:02000004C0D06A
:1000000070B58EB062B6204D0024B022284621463D
:1000100005F064FD05F042FD02AE304609F07EFBBE
:10002000B08586B2002E0BD002A884850C9807F00C
:1000300043F8102EE8D005F00DFD00200EB070BD85
:1000400002A807F039F80C9005F0AEFE0F4878448E
:1000500006F0B6FE407801280BD001AD2C700120CF
:1000600068700B48784406F0ABFE0222294606F081
:10007000D5FE002008F0CCFC012008F0C9FC04F0FB
:10008000F7FB05F0DFF9C046B01800206EA70000AE
:1000900058A70000F0B583B017460E46029009F04D
:1000A00087FB0190304609F083FB00900025202259
:1000B0003846294605F012FD3C4620348022204671
:1000C000294605F00BFD38463146009A05F0EBFC59
:1000D00020460299019A05F0E6FC03B0F0BD00004D
:1000E000F0B585B01E4620292AD904900392104607
:1000F00009F05EFB0746212F25D20B9802900A9843
:100100000190002520223046294605F0E7FC3446C0
:10011000203480222046294605F0E0FC3046039931
:100120003A4605F0C0FC21257F2304982946224643
:1001300004F01AF801990D600299086005B0F0BD4D
:100140000448784401E00448784406F0A1FA01200C
:1001500005F0E4FCF297000011980000F0B585B0BE
:100160001E46012933D903900292104609F020FB64
:100170000446212C2ED20B9801900A98009000255D
:1001800020223046294605F0A9FC37462037802238
:100190003846294605F0A2FC30460299224605F071
:1001A00082FC04AC0225204603992A4605F07BFC1C
:1001B00023887F210BA2384606F002FC00980560D8
:1001C000384609F0F5FA0199086005B0F0BD064817
:1001D000784401E00548784406F05AFA012005F019
:1001E0009DFCC046256400006497000083970000D2
:1001F000F0B585B01E46032932D90390029210460D
:1002000009F0D6FA0446212C2DD20B9801900A98B9
:100210000090002520223046294605F05FFC374635
:10022000203780223846294605F058FC304602998E
:10023000224605F038FC04A804240399224605F060
:1002400032FC049B7F210BA2384606F0B9FB0098D4
:100250000460384609F0ACFA0199086005B0F0BDB9
:100260000548784401E00548784406F011FA012079
:1002700005F054FC25640000D2960000F1960000C1
:10028000F0B587B01E46072931D903900292104677
:1002900009F08EFA0446212C2CD20D9801900C986E
:1002A0000090002520223046294605F017FC3746ED
:1002B000203780223846294605F010FC3046029946
:1002C000224605F0F0FB04A808240399224605F015
:1002D000EAFB059904983A4604F032F80098046065
:1002E000384609F065FA0199086007B0F0BD054885
:1002F000784401E00448784406F0CAF9012005F08A
:100300000DFCC0464496000063960000F0B589B02D
:100310001E460F292FD903900292104609F048FA81
:100320000746212F2AD20F9801900E9800900025A1
:1003300020223046294605F0D1FB34462034802265
:100340002046294605F0CAFB304602993A4605F098
:10035000AAFB04AD102628460399324605F0A3FBFC
:100360007F222846214603F071FE00990E60019914
:10037000086009B0F0BD0548784401E004487844BD
:1003800006F086F9012005F0C9FBC046BC950000C7
:10039000DB950000F0B585B01C46039102900192F8
:1003A000104609F005FA0546212D2CD200272022FF
:1003B0002046394605F092FB2646203680223046FC
:1003C000394605F08BFB204601992A4605F06BFB68
:1003D000049704AA029F3846039D294603F082FE33
:1003E0000446049A802A11D23846AA4210D80B9D9E
:1003F0000A9F0119304605F056FB0498011939602F
:10040000286005B0F0BD1048784403E004A001E086
:100410000E48784406F03CF9012005F07FFBC04609
:100420007061727365416374696F6E4461746120B9
:10043000496E73756666696369656E742062756678
:10044000666572670A000000519500002295000061
:10045000F0B585B01C4615460E4600210491039167
:1004600003A96A46516004A91160471C1D4A7A44D9
:1004700038463146FFF78EFF002D2DD0049803A992
:100480006A46516004A911603F18361A164A7A4428
:10049000384631462346FFF77DFF012D1CD00498D6
:1004A00003A96A46516004A911603F18361A0F4A21
:1004B0007A44384631462346FFF76CFF022D0BD0B5
:1004C000049903A86A46506004A810607818711A4D
:1004D00002A22346FFF742FE05B0F0BD57656967EB
:1004E000687400000B950000F1940000D6940000A1
:1004F000F0B585B01C4615460E46002104910391C7
:1005000003A96A46516004A91160471C33A238460A
:100510003146FFF73FFF002D5ED0049803A96A46DD
:10052000516004A911603F18361A30A2384631468E
:100530002346FFF72FFF012D4ED0049803A96A46EA
:10054000516004A911603F18361A304A7A4438467F
:1005500031462346FFF71EFF022D3DD0049803A924
:100560006A46516004A911603F18361A284A7A4435
:10057000384631462346FFF70DFF032D2CD0049853
:1005800003A96A46516004A911603F18361A1BA2DC
:10059000384631462346FFF7FDFE042D1CD0049853
:1005A00003A96A46516004A911603F18361A15A2C2
:1005B000384631462346FFF7EDFE052D0CD0049951
:1005C00003A86A46506004A810607818711A114A8E
:1005D0007A442346FFF7DEFE05B0F0BD5061726538
:1005E0006E7420417574686F72000000506172650E
:1005F0006E74205065726D6C696E6B005469746C1A
:1006000065000000426F6479000000003394000030
:1006100018940000BF930000F0B585B01C46154645
:100620000E4600210491039103A96A46516004A972
:100630001160471C1D4A7A4438463146FFF7AAFE2E
:10064000002D2FD0049803A96A46516004A91160B7
:100650003F18361A14A2384631462346FFF79AFE51
:10066000012D1FD0049A03A86946486004A80860B9
:100670000292BF1810210E4A7A4438462346FFF7EB
:1006800045FE022D0ED0049903A86A46506004A8C6
:1006900010607818029AB21A511A064A7A44234610
:1006A000FFF778FE05B0F0BD546F000067930000BF
:1006B0002A9300000D930000F0B585B01C46154646
:1006C0000E4600210491039103A96A46516004A9D2
:1006D0001160471C134A7A4438463146FFF75AFEE8
:1006E000002D1BD0049803A96A46516004A911602B
:1006F0003F18311A0AA238462346FFF74BFE012D58
:100700000CD0049803A96A46516004A911603818F6
:100710001021054A7A442346FFF7F8FD05B0F0BDE5
:10072000546F0000C79200008E92000070B584B034
:100730001C46154600220392029202AA6B465A609A
:1007400003AA1A60461C0B4A7A4430462346FFF738
:1007500021FE002D0CD0039802A96A46516003A91E
:10076000116030181021044A7A442346FFF7CEFD69
:1007700004B070BD669200004E920000F0B587B0E4
:100780001C4615460E4600210691059105A96A46AC
:10079000516006A91160471C3B4A7A4438463146ED
:1007A000FFF7F8FD002D4ED0069805A96A46516066
:1007B00006A911603F18361A344A7A443846314641
:1007C0002346FFF715FD012D3DD005A86946486079
:1007D00006A808603F1D10211CA238462346FFF7DB
:1007E00095FD022D2FD0069A05A86946486006A8F7
:1007F00008600492BF18102118A238462346FFF75C
:1008000085FD032D1FD00699785C0128039102D045
:100810002048784401E01E48784414A12246FFF79E
:1008200039FC039BF818042D0DD005A96A465160C8
:1008300006A91160711F049A891AC91A401C0FA2D7
:100840002346FFF7D5FC07B0F0BDC046416D6F757C
:100850006E7420546F2053656C6C00004D696E20DF
:10086000546F2052656365697665000046696C6C5B
:10087000206F72204B696C6C000000004578706935
:10088000726174696F6E00002B920000119200007B
:10089000BC910000C7910000F0B585B01C4616461B
:1008A0000D4600210491039103A96A46516004A9F1
:1008B0001160471C0B4A7A4438462946FFF76AFD07
:1008C000002E0CD0049903A86A46506004A810605A
:1008D0007818691A044A7A442346FFF789FC05B060
:1008E000F0BDC0460F910000F5900000F0B585B056
:1008F0001C4615460E4600210491039103A96A4641
:10090000516004A91160471C12A238463146FFF716
:1009100041FD002D1BD0049803A96A46516004A92B
:1009200011603F18361A0EA2384631462346FFF7AB
:10093000EDFC012D0BD0049903A86A46506004A871
:1009400010607818711A08A22346FFF7DFFC05B083
:10095000F0BDC0465075626C697368657200000036
:10096000426173650000000051756F7465000000FE
:10097000F0B585B01C4615460E4600210491039142
:1009800003A96A46516004A91160471C134A7A44BE
:1009900038463146FFF7FEFC002D1CD0049803A911
:1009A0006A46516004A911603F18311A0C4A7A4412
:1009B00038462346FFF71CFC012D0CD0049803A9F0
:1009C0006A46516004A9116038181021054A7A441A
:1009D0002346FFF79BFC05B0F0BDC04637900000F2
:1009E00031900000D48F0000F0B5B5B017460C462A
:1009F000002134910991339133A96A46516034A999
:100A00001160461CF9A2304621460C93FFF77EFC8C
:100A10003498251A3418002F00D1E4E133A8694630
:100A2000486034A80860F24A7A44204629460C9B64
:100A3000FFF7B0FC34982E1A2518012F00D1D2E10F
:100A400033A86946486034A80860EA4A7A442846D0
:100A500031460C9BFFF79EFC3498311A2E18022F5A
:100A600000D1C0E1039733A86A46506034A81060F3
:100A7000E14A7A4430460C9D08912B46FFF7B8FBBB
:100A800034980790203513A88027DC4A7A443946E9
:100A90002B4605F095FF0B952846099C21463A46C2
:100AA00005F01CF812AD2C70079C3619012228465F
:100AB000314604F0F8FF0898401E011B741C28788A
:100AC00000280A9748D0099E0594079133AA0992F5
:100AD0006846426034AA06920260C94A7A44089283
:100AE00020460C9BFFF756FC349D13AF384608F0A8
:100AF0005FFE69460B9A0A603C180A99091AF0B21F
:100B0000431CC04A7A44204605F05AFF68460699BD
:100B10000160099941600598411909910798441BA2
:100B200008462146089A0C9BFFF718FB349D38466F
:100B300008F03EFE3B180A99091AB34A7A4418464F
:100B40000B9B05F03DFF611B09984419761CF0B220
:100B500012AA12789042B7D311AF00253D700E460D
:100B600001223846214604F09EFF721E631C38782D
:100B700000284BD0A54878440790A54878440590B4
:100B8000A448784404900893099233A906916846D2
:100B9000416034AE066018461146079A0C9BFFF779
:100BA0009FFA349C13AF384608F002FE69460B9A50
:100BB0000A603A180A99091AE8B2431C1046059AC5
:100BC00005F0FEFE68460660069941600898011926
:100BD00008910998041B08462146079A0C9BFFF7C9
:100BE000BDFA349E384608F0E3FD3A180A99091A0E
:100BF0001046049A0B9B05F0E3FEA21B089883198C
:100C00006D1CE8B211A909788842BCD30398032867
:100C100000D1DCE013AF002107918026384614464E
:100C2000099432461D46089504F058FF33A86946DA
:100C3000486034A80860784A7A44284621460C9BCC
:100C4000FFF7D6FA349CFD4A7A44384631460B9D6C
:100C50002B4605F0B5FE2846079D29460A963246E2
:100C600004F03CFF10AF3D70089806190122384689
:100C7000314604F018FF0998401E041B731C387895
:100C8000002847D005940693079533A90991684633
:100C9000416034AE0660F74A7A440892184621460D
:100CA0000C9BFFF777FB349D13AF384608F080FDAF
:100CB00069460B9A0A603C180A99091A0798C0B24B
:100CC000431CED4A7A44204605F07AFE68460660E9
:100CD00009994160069846190598441B30462146FB
:100CE000089A0C9BFFF73AFA349D384608F060FDED
:100CF0003B180A99091AE14A7A4418460B9B05F0F9
:100D00005FFE641B7319079D6D1CE8B210A909787A
:100D10008842B7D30FAF00253D70012238461946EF
:100D20001E4604F0C0FE621E731C387800284BD0AB
:100D3000C34878440790C34878440590C248784433
:100D400004900893099233A906916846416034AC37
:100D5000046018461146079A0C9BFFF7C1F9349FAF
:100D600013AE304608F024FD69460B9A0A6032182B
:100D70000A99091AE8B2431C1046059A05F020FEAC
:100D800068460460069941600898C119089109985D
:100D9000C71B08463946079A0C9BFFF7DFF9349CBE
:100DA000304608F005FD32180A99091A1046049ACF
:100DB0000B9B05F005FE3A1B089803196D1CE8B261
:100DC0000FA909788842BCD30398042826D10021B2
:100DD00080240B9D2846224604F080FE13A9284655
:100DE000224604F060FE35B0F0BDC04646656500A1
:100DF000C28F0000A68F000000900000778F0000D7
:100E0000968F00000D8F0000DF8E0000FC8E00002A
:100E1000A68E0000998E0000F48D000013A80790A4
:100E2000002680243146099222461F46089704F086
:100E300055FE0B9D28463146224604F04FFE33A84E
:100E40006946486034A80860804A7A44384609995F
:100E50000C9BFFF7CDF9349F7D4A7A4407982146D1
:100E60002B4605F0ADFD284631460A94224604F093
:100E700035FE0EAD2E700898C41901222846214671
:100E800004F011FE0998401EC11B641C287800283C
:100E900046D005940691099633AA089268464260A6
:100EA00034AE0660704A7A44079220460C9BFFF7E6
:100EB00071FA349D13AF384608F07AFC69460B9AF4
:100EC0000A603C180A99091A0998C0B2431C674A7B
:100ED0007A44204605F074FD684606600899416032
:100EE000059846190698441B30462146079A0C9BE4
:100EF000FFF734F9349D384608F05AFC3B180A993C
:100F0000091A5B4A7A4418460B9B05F059FD611B90
:100F10007419099E761CF0B20EAA12789042B8D3CA
:100F20000DAF00263E700D4601223846214604F0E2
:100F3000BAFD691E601C3A78002A4BD0454A7A44B3
:100F40000992454A7A440592444A7A4404920F46EB
:100F50000697079033AA089269464A6034AD0D603F
:100F60003946099A0C9BFFF7BBF8349C13AF3846FF
:100F700008F01EFC69460B9A0A603A180A99091A89
:100F8000F0B2431C1046059A05F01AFD684605604C
:100F90000899416007980019089006990C1B214692
:100FA000099A0C9BFFF7DAF8349D384608F000FCEC
:100FB0003A180A99091A1046049A0B9B05F000FD8D
:100FC000671B08984019761CF2B20DA909788A426D
:100FD000BED300E00F460546002180220B9E30461E
:100FE00004F07CFD039C052C03D113A9802230461C
:100FF000F7E633A86946486034A80860184A7A447E
:101000002E46304639460C9D2B46FFF769F8062CD4
:1010100000D1E8E6349C002180220B9804F05EFDAC
:1010200033A86946486034A808603019391B0D4A56
:101030007A442B46FFF7AEF9D5E6C046BB8D0000DB
:10104000FA8C0000EA8C0000DD8C0000EE8B0000C2
:10105000A98B0000FA8A0000DE8A0000D18A000015
:10106000478A00005F890000928B0000418B0000DE
:10107000178B0000948D00005E8D0000238D000012
:10108000F0B5B5B01F4616460C9100243494339445
:1010900033A96A46516034A91160451C1021E84A01
:1010A0007A442846FFF776F934980C99091A2818DB
:1010B0000396002E00D1C0E133AB6A46536034ABD7
:1010C0001360E04A7A44099108903B46FFF790F894
:1010D000349E0B973D46203513A88027DA4A7A4480
:1010E00039462B4605F06CFC0C95284621463A46BD
:1010F00004F0F4FC12AD07942C70344608980619DD
:1011000001222846314604F0CEFC0998401E011BFE
:10111000741C287800280A9748D0079E05940791E8
:1011200033AA09926846426034AA06920260C74A0E
:101130007A44089220460B9BFFF72CF9349D13AF9D
:10114000384608F035FB69460C9A0A603C180A9943
:10115000091AF0B2431CBE4A7A44204605F030FC1E
:1011600068460699016009994160059841190991FD
:101170000798441B08462146089A0B9BFEF7EEFF92
:10118000349D384608F014FB3B180A99091AB14AF5
:101190007A4418460C9B05F013FC611B099844190E
:1011A000761CF0B212AA12789042B7D311AF002584
:1011B0003D700E4601223846214604F074FC721E32
:1011C000631C387800284BD0A34878440790A34884
:1011D00078440590A248784404900893099233A972
:1011E00006916846416034AE066018461146079A7B
:1011F0000B9BFEF775FF349C13AF384608F0D8FA06
:1012000069460C9A0A603A180A99091AE8B2431C0E
:101210001046059A05F0D4FB6846066006994160C1
:101220000898011908910998041B08462146079A55
:101230000B9BFEF793FF349E384608F0B9FA3A1834
:101240000A99091A1046049A0C9B05F0B9FBA21BD7
:10125000089883196D1CE8B211A909788842BCD39B
:101260000398012800D1DCE013AF0021079180260C
:1012700038461446099432461D46089504F02EFC63
:1012800033A86946486034A80860FE4A7A44284674
:1012900021460B9BFEF7ACFF349CFB4A7A44384650
:1012A00031460C9D2B4605F08BFB2846079D2946B1
:1012B0000A96324604F012FC10AF3D7008980619E9
:1012C00001223846314604F0EEFB0998401E041B0B
:1012D000731C3878002847D005940693079533A9E6
:1012E00009916846416034AE0660F54A7A44089236
:1012F000184621460B9BFFF74DF8349D13AF384637
:1013000008F056FA69460C9A0A603C180A99091ABC
:101310000798C0B2431CEB4A7A44204605F050FBC4
:101320006846066009994160069846190598441B6D
:1013300030462146089A0B9BFEF710FF349D384635
:1013400008F036FA3B180A99091ADF4A7A44184617
:101350000C9B05F035FB641B7319079D6D1CE8B2EF
:1013600010A909788842B7D30FAF00253D7001223C
:10137000384619461E4604F096FB621E731C3878E8
:1013800000284BD0C14878440790C1487844059064
:10139000C048784404900893099233A9069168469E
:1013A000416034AC046018461146079A0B9BFEF767
:1013B00097FE349F13AE304608F0FAF969460C9A4E
:1013C0000A6032180A99091AE8B2431C1046059AB5
:1013D00005F0F6FA68460460069941600898C1195C
:1013E00008910998C71B08463946079A0B9BFEF7D8
:1013F000B5FE349C304608F0DBF932180A99091A18
:101400001046049A0C9B05F0DBFA3A1B0898031966
:101410006D1CE8B20FA909788842BCD30398022852
:1014200020D1002180240C9D2846224604F056FB42
:1014300013A92846224604F036FB35B0F0BDC0465D
:101440000E890000AE890000258900004289000055
:10145000B98800008B880000A8880000528800002E
:101460004588000013A80790002680243146099281
:1014700022461F46089704F031FB0C9D2846314652
:10148000224604F02BFB33A86946486034A8086064
:10149000814A7A44384609990B9BFEF7A9FE349F8E
:1014A0007E4A7A44079821462B4605F089FA284659
:1014B00031460A94224604F011FB0EAD2E700898B6
:1014C000C41901222846214604F0EDFA0998401E6D
:1014D000C11B641C2878002846D005940691099603
:1014E00033AA08926846426034AE0660714A7A4474
:1014F000079220460B9BFEF74DFF349D13AF3846F5
:1015000008F056F969460C9A0A603C180A99091ABB
:101510000998C0B2431C684A7A44204605F050FA44
:101520006846066008994160059846190698441B6C
:1015300030462146079A0B9BFEF710FE349D384635
:1015400008F036F93B180A99091A5C4A7A44184699
:101550000C9B05F035FA611B7419099E761CF0B2DC
:101560000EAA12789042B8D30DAF00263E700D46F9
:1015700001223846214604F096FA691E601C3A782A
:10158000002A4BD0464A7A440992464A7A44059248
:10159000454A7A4404920F460697079033AA089268
:1015A00069464A6034AD0D603946099A0B9BFEF7D7
:1015B00097FD349C13AF384608F0FAF869460C9A48
:1015C0000A603A180A99091AF0B2431C1046059AA3
:1015D00005F0F6F96846056008994160079800191A
:1015E000089006990C1B2146099A0B9BFEF7B6FD45
:1015F000349D384608F0DCF83A180A99091A104662
:10160000049A0C9B05F0DCF9671B08984019761CBE
:10161000F2B20DA909788A42BED300E00F46054612
:10162000002180220C9E304604F058FA039C032CC3
:1016300003D113A980223046FDE633A869464860ED
:1016400034A80860194A7A442E46304639460B9D24
:101650002B46FEF745FD042C00D1EEE6349C00211C
:1016600080220C9804F03AFA33A86946486034A8FE
:1016700008603019391B0E4A7A442B46FEF78AFE61
:10168000DBE6C046A087000067870000A686000052
:101690009686000089860000A6850000618500000E
:1016A000B28400009684000089840000FF8300005B
:1016B000178300004A850000F9840000CF840000F1
:1016C000408700000A870000CF860000F0B5A9B06F
:1016D0001C4615460E4600212891279127A96A46E7
:1016E000516028A91160471C694A7A44384631463E
:1016F000FEF750FE002D00D193E0289827A96A46F6
:10170000516028A911603F18361A47A23846314661
:101710002346FEF73FFE012D00D182E0289827A93D
:101720006A46516028A911603F18311A3FA2384615
:101730002346FEF7D5FC022D73D02898049007AD00
:1017400080263DA22846314605F03AF927A90691A0
:101750006846416028A905910160049838180390F3
:10176000102104913AA22346FEF7D0FD289802905A
:10177000284608F01DF82B18311A2746203738A2C2
:1017800018463B4605F01CF9284608F011F82B18BE
:10179000311A34A2184605F013F96846059901601C
:1017A000069941600398029940180390049928A271
:1017B0002346FEF71DFD28980290284607F0F8FF03
:1017C0002A18311A104626A23B4605F0F9F8284699
:1017D00007F0EEFF2B18311A27A2184605F0F0F893
:1017E000684605990160069941600398029940187E
:1017F000049917A22346FEF7B1FC284607F0D8FF4C
:101800002A18311A104616A23B4605F0D9F80021D5
:101810003846324604F062F938462946324604F02A
:1018200042F929B0F0BDC04655524C005369676E6D
:10183000696E67204B6579004163636F756E742034
:101840004372656174696F6E204665653A200000D9
:101850005769746E6573732050726F707300000067
:1018600025730000202D204D617820426C6F636B42
:101870002053697A653A2000202D204842442049AF
:101880006E74657265737420526174653A2000004D
:10189000DB820000F0B585B01C4615460E460021DF
:1018A0000491039103A96A46516004A91160471C81
:1018B000154A7A4438463146FEF76CFD002D1CD09F
:1018C000049803A96A46516004A911603F18311AAF
:1018D0000BA238462346FEF75DFD012D0DD004987E
:1018E000385C012802D00A48784401E0074878446F
:1018F000084979442246FEF7CDFB05B0F0BDC0464D
:101900005769746E65737300FC800000E680000008
:10191000F18000005C810000F0B585B01C461646E1
:101920000D4600210491039103A96A46516004A960
:101930001160471C0C4A7A4438462946FEF72AFDB6
:10194000002E0BD0049903A86A46506004A81060CA
:101950007818691A02A22346FEF71CFD05B0F0BDF7
:1019600050726F787900000078800000F0B585B083
:101970001C4616460D4600210491039103A96A46B0
:10198000516004A91160471C0B4A7A443846294625
:10199000FEF700FD002E0CD0049903A86A465060A3
:1019A00004A810607818691A044A7A442346FEF79E
:1019B000F1FC05B0F0BDC046F57F0000DC7F000003
:1019C000F0B5ABB0069302920E4600242994089419
:1019D000471C042108AA384602F084FB05462A95D4
:1019E00009A880215DA2059104F0EAFF0699761B03
:1019F0007F19089800282AD00846203004900D4608
:101A000029A8694648602AA808603846314654A289
:101A10002B46FEF7BFFC09AD284607F0C9FE089922
:101A2000491E8C4202D0574A7A4400E050A22B183B
:101A30000599091A1846049B04F0C2FF2A98361A21
:101A40003F18641C08988442069DD9D300E00D46D7
:101A500009AC204607F0ACFE23180599091A45A2E7
:101A6000184604F0ADFF029800284FD000240794D8
:101A7000042107AA384602F035FB05462A9509A835
:101A8000802136A2059104F09BFF761B7F190798F1
:101A900000282CD0069D2846203004903A487844EF
:101AA000039029A8694648602AA80860384631464C
:101AB0002BA22B46FEF76EFC09AD284607F078FEF8
:101AC0000799491E8C4201D0039A00E028A22B18E6
:101AD0000599091A1846049B04F072FF2A98361AD1
:101AE0003F18641C07988442069DDAD300E0069DE7
:101AF00009AC204607F05CFE23180599091A1DA2BF
:101B0000184604F05DFF029C012C0DD12035002108
:101B100080242846224603F0E1FF09A928462246F0
:101B200003F0C1FF2BB0F0BD29A8694648602AA880
:101B3000086011A2384631462B46FEF72BFC022CDA
:101B4000F0D02A9929A86A4650602AA8106078180F
:101B5000711A0AA22B46FEF71DFCE3E75B2000008A
:101B6000526571756972656420417574687300000F
:101B700025730000205D0000494400004A534F4E89
:101B8000000000002E800000B87F0000F0B5AFB06C
:101B90001C4615460E4600212E910A912D912DA925
:101BA0006A4651602EA91160471C974A7A4438460C
:101BB0003146FEF7EFFB002D00D1EDE02E982DA968
:101BC0006A4651602EA911603F18361A8F4A7A442E
:101BD000384631462346FEF7DDFB012D00D1DBE020
:101BE0002E982DA96A4651602EA911603F18361A09
:101BF0006CA2384631462346FEF788FB022D00D101
:101C0000CAE02E982DA96A4651602EA911603F188E
:101C1000361A67A2384631462346FEF79FFA032D4F
:101C200000D1B9E009942E9C385D012802D0794892
:101C3000784401E07648784460A1099AFEF72AFAD0
:101C40003F19042D00D1A7E07878012802D073480D
:101C5000784401E0704878445BA1099AFEF71AFACB
:101C6000781C052D00D197E008942CAF0A9C3C709D
:101C7000451C01223846294603F015FF3878012813
:101C800008D0002800D089E05EA056A1099AFEF78E
:101C900001FA81E0681C697800297FD10BAF3C70A4
:101CA000451C01223846294603F0FDFE0CA8802180
:101CB0004BA2049104F084FE3878002855D0701FA0
:101CC0000899411A099E20366D1C049F03960791BE
:101CD0000A942DAA0892684642602EAA06920260D3
:101CE000284640A2099BFEF755FB2E9805903446E6
:101CF0000CAE304607F05CFD3218391A10463DA292
:101D0000234604F05DFE684606990160089941602B
:101D1000059AA8180799891A0890079131A2099B7A
:101D20000A9CFEF71BFA2E9DE7B2304607F040FDF5
:101D30000BAA1178491E8F42069202D0384A7A4483
:101D400000E02EA23318049F391A1846039E33462A
:101D500004F036FE0798411B08984519641CE0B250
:101D6000069A12789042B2D302E0099E2036049F70
:101D70000CAD284607F01CFD2B18391A20A2184676
:101D800004F01EFE002130463A4603F0A7FE30461E
:101D900029463A4603F087FE2FB0F0BD012003F03C
:101DA000BDFEC0464D6178205061796F75740000AA
:101DB00050657263656E742048424400416C6C6FDC
:101DC0007720566F74657300416C6C6F7720437594
:101DD000726174696F6E205265776172647300007E
:101DE0005B20000042656E656669636961726965C2
:101DF000730000002573202D2000000025730000D3
:101E0000205D00005B5D0000D37D0000B87D000018
:101E10009E7D0000A97D00007E7D0000897D000080
:101E2000187D0000F0B585B01C4615460E46002111
:101E30000491039103A96A46516004A91160471CEB
:101E40001AA238463146FEF7A5FA002D2BD0049889
:101E500003A96A46516004A911603F18361A17A2F7
:101E6000384631462346FEF795FA012D1BD00498DB
:101E700003A96A46516004A911603F18311A12A2E1
:101E800038462346FEF7B4F9022D0CD00498385C8E
:101E9000012802D01248784401E0104878440CA18F
:101EA0002246FEF7F7F805B0F0BDC04646726F6DEA
:101EB000204163636F756E7400000000546F204111
:101EC00063636F756E74000050657263656E7400B5
:101ED0004175746F7665737400000000387B0000F4
:101EE000437B000070B584B01C4615460022039267
:101EF000029202AA6B465A6003AA1A60461C0C4A58
:101F00007A4430462346FEF745FA012D0BD003985C
:101F100002A96A46516003A911603018102103A27A
:101F20002346FEF7F3F904B070BDC0464665650070
:101F3000EA7A0000F0B5B5B01F4616460C460021FF
:101F400034910991339133A96A46516034A91160E3
:101F5000451CF04A7A4428462146FEF71BFA34987D
:101F6000241A2D18002E00D1D2E133A8694648600A
:101F700034A80860E84A7A44284621463B46FEF7E2
:101F800009FA3498211A2818012E00D1C0E10396CD
:101F900033AB6A46536034AB1360E04A7A4408912D
:101FA00007903B46FEF724F9349C0B973D462035BD
:101FB00013A88027DA4A7A4439462B4604F000FDFC
:101FC0000C952846099E31463A4603F087FD12AD2E
:101FD0002E700798061901222846314603F063FD4A
:101FE0000898401E011B741C287800280A9748D0C6
:101FF000099E0594079133AA09926846426034AA63
:1020000006920260C74A7A44089220460B9BFEF76C
:10201000C1F9349D13AF384607F0CAFB69460C9AE4
:102020000A603C180A99091AF0B2431CBE4A7A4465
:10203000204604F0C5FC6846069901600999416094
:102040000598411909910798441B08462146089AAA
:102050000B9BFEF783F8349D384607F0A9FB3B182D
:102060000A99091AB14A7A4418460C9B04F0A8FC54
:10207000611B09984419761CF0B212AA127890429A
:10208000B7D311AF00253D700E46012238462146D8
:1020900003F009FD721E631C387800284BD0A44859
:1020A00078440790A34878440590A3487844049066
:1020B0000893099233A906916846416034AE0660E0
:1020C00018461146079A0B9BFEF70AF8349C13AF8B
:1020D000384607F06DFB69460C9A0A603A180A996F
:1020E000091AE8B2431C1046059A04F069FC6846D8
:1020F0000660069941600898011908910998041B27
:1021000008462146079A0B9BFEF728F8349E38466E
:1021100007F04EFB3A180A99091A1046049A0C9BCC
:1021200004F04EFCA21B089883196D1CE8B211A99B
:1021300009788842BCD30398022800D1DCE013AFB1
:1021400000210791802638461446099432461D46E0
:10215000089503F0C3FC33A86946486034A80860BA
:10216000764A7A44284621460B9BFEF741F8349C78
:10217000FB4A7A44384631460C9D2B4604F020FC3D
:102180002846079D29460A96324603F0A7FC10AF61
:102190003D700898061901223846314603F083FC49
:1021A0000998401E041B731C3878002847D00594FA
:1021B0000693079533A909916846416034AE0660DD
:1021C000F54A7A440892184621460B9BFEF7E2F83E
:1021D000349D13AF384607F0EBFA69460C9A0A6053
:1021E0003C180A99091A0798C0B2431CEB4A7A4472
:1021F000204604F0E5FB68460660099941600698B0
:1022000046190598441B30462146089A0B9BFDF75A
:10221000A5FF349D384607F0CBFA3B180A99091AF6
:10222000DF4A7A4418460C9B04F0CAFB641B7319FE
:10223000079D6D1CE8B210A909788842B7D30FAF8B
:1022400000253D700122384619461E4603F02BFC3E
:10225000621E731C387800284BD0C248784407901F
:10226000C14878440590C148784404900893099285
:1022700033A906916846416034AC046018461146A3
:10228000079A0B9BFDF72CFF349F13AE304607F0E7
:102290008FFA69460C9A0A6032180A99091AE8B24C
:1022A000431C1046059A04F08BFB684604600699AF
:1022B00041600898C11908910998C71B084639461A
:1022C000079A0B9BFDF74AFF349C304607F070FAE3
:1022D00032180A99091A1046049A0C9B04F070FBF4
:1022E0003A1B089803196D1CE8B20FA909788842B7
:1022F000BCD30398032823D1002180240C9D2846B9
:10230000224603F0EBFB13A92846224603F0CBFB41
:1023100035B0F0BD967A00007C7A0000D67A0000D5
:102320004D7A00006C7A0000E3790000B579000076
:10233000D27900007C7900006F790000CA78000033
:1023400013A80790002680243146099222461F4692
:10235000089703F0C3FB0C9D28463146224603F044
:10236000BDFB33A86946486034A80860804A7A44B7
:10237000384609990B9BFDF73BFF349F7D4A7A4411
:10238000079821462B4604F01BFB284631460A9449
:10239000224603F0A3FB0EAD2E700898C41901224B
:1023A0002846214603F07FFB0998401EC11B641C90
:1023B0002878002846D005940691099633AA0892F9
:1023C0006846426034AE0660704A7A4407922046FE
:1023D0000B9BFDF7DFFF349D13AF384607F0E8F99C
:1023E00069460C9A0A603C180A99091A0998C0B201
:1023F000431C674A7A44204604F0E2FA68460660C5
:1024000008994160059846190698441B30462146B4
:10241000079A0B9BFDF7A2FE349D384607F0C8F9DA
:102420003B180A99091A5B4A7A4418460C9B04F037
:10243000C7FA611B7419099E761CF0B20EAA1278B5
:102440009042B8D30DAF00263E700D4601223846AB
:10245000214603F028FB691E601C3A78002A4BD005
:10246000454A7A440992454A7A440592444A7A4454
:1024700004920F460697079033AA089269464A606D
:1024800034AD0D603946099A0B9BFDF729FE349C4B
:1024900013AF384607F08CF969460C9A0A603A186F
:1024A0000A99091AF0B2431C1046059A04F088FAFA
:1024B00068460560089941600798001908900699D8
:1024C0000C1B2146099A0B9BFDF748FE349D3846AC
:1024D00007F06EF93A180A99091A1046049A0C9BEB
:1024E00004F06EFA671B08984019761CF2B20DA929
:1024F00009788A42BED300E00F46054600218022BB
:102500000C9E304603F0EAFA039C042C03D113A975
:1025100080223046FAE633A86946486034A808604D
:10252000184A7A442E46304639460B9D2B46FDF715
:10253000D7FD052C00D1EBE6349C002180220C98BD
:1025400003F0CCFA33A86946486034A80860301913
:10255000391B0D4A7A442B46FDF71CFFD8E6C046CE
:1025600091780000D0770000C0770000B3770000BA
:10257000CA76000085760000D6750000BA750000A6
:10258000AD750000237500003B7400006E760000FE
:102590001D760000F37500006A78000034780000B2
:1025A000F9770000F0B5AFB01D460A920C46002145
:1025B0002E9107912D912DA96A4651602EA9116087
:1025C000471C7FA238462146FDF7E4FE2E98261AC6
:1025D0003C182F460A9D002D00D1EEE02DA869463B
:1025E00048602EA808607B4A7A44204631463B4624
:1025F000FDF7D0FE2E98311A2418012D00D1DCE011
:102600002DA86A4650602EA81060734A7A4420466E
:1026100006913B46FDF7ECFD3D462E9F0995203582
:102620000DA880266D4A7A4431462B4604F0C8F93D
:102630000A952846079D29460896324603F04EFA29
:102640000CAE3570E51901223046294603F02BFA0D
:102650000698401EC11B6F1C3078002848D0079D8B
:10266000039705912DAA0792684642602EAA04920C
:1026700002605B4A7A4406923846099BFDF78AFE5F
:102680002E9F0DAE304607F093F869460A9A0A600D
:1026900034180899091AE8B2431C524A7A44204671
:1026A00004F08EF968460499016007994160039827
:1026B000C11907910598C41B08462146069A099B33
:1026C000FDF74CFD2E9F304607F072F8331808993D
:1026D000091A454A7A4418460A9B04F071F9E11B2D
:1026E0000798C7196D1CE8B20CAA12789042B7D3AC
:1026F0000D460BAE0024347001223046394603F0FB
:10270000D2F9307800284CD07F1C691E37487844B5
:1027100007903748784403903648784402900591F2
:102720002DAA0692684642602EAA0492026038469C
:10273000079A099BFDF7D4FC2E9D0DAE304607F09D
:1027400037F869460A9A0A6032180899091AE0B2FD
:10275000431C1046039A04F033F96846049901605B
:1027600006994160791906910598451B0846294646
:10277000079A099BFDF7F2FC2E9F304607F018F8E8
:1027800032180899091A1046029A0A9B04F018F99F
:10279000E91B0698C719641CE0B20BAA1278904294
:1027A000BDD3002180240A9D2846224603F096F9D5
:1027B0000DA92846224603F076F92FB0F0BDC04699
:1027C0005265636F76657279204163636F756E74CD
:1027D000000000007374000062740000DD730000EC
:1027E000FA73000075730000477300006073000007
:1027F0000E73000001730000F0B5B3B01E4617461B
:102800000C46002132910991319131A96A465160FB
:1028100032A91160451CEB4A7A4428462146FDF74F
:10282000B9FD3298211A2D18002F00D1BDE1039770
:1028300031A86A46506032A81060E34A7A442846BC
:1028400008913346FDF7D4FC329807900B9620365A
:1028500011A88024DD4A7A442146334604F0B0F8BA
:102860000C963046099F39460A94224603F036F901
:1028700010AE3770079C2D1901223046294603F00F
:1028800012F90898401E041B6B1C307800284AD0AF
:102890000B9E05940893099731A9079168464160FA
:1028A00032AD0560CA4A7A4406921846214633463C
:1028B000FDF770FD329E11AF384606F079FF69468C
:1028C0000C9A0A603C180A99091A0998C0B2431C6C
:1028D000C04A7A44204604F073F8684605600799B8
:1028E0004160089885190598841B28462146069A58
:1028F0000B9BFDF733FC329E384606F059FF3B1820
:102900000A99091AB44A7A4418460C9B04F058F8FC
:10291000A41B099FAB190B9E7F1CF8B210A9097864
:102920008842B6D300E00B9E08930FAF00253D70A0
:1029300001223846194603F0B6F8611E0898431C78
:10294000387800284DD0A54878440790A4487844AA
:102950000590A448784404900893099131AA0692FE
:102960006846426032AC04601846079A3346FDF769
:10297000B7FB329E11AF384606F01AFF69460C9A33
:102980000A603A180A99091AE8B2431C1046059AD7
:1029900004F016F8684604600699416008988119A9
:1029A00008910998861B08463146079A0B9BFDF74C
:1029B000D5FB329C384606F0FBFE3A180C9F0A996C
:1029C000091A1046049A3B4603F0FAFF311B0B9E8E
:1029D000089803196D1CE8B20FAA12789042BBD375
:1029E00000E00C9F0398012808D10021802438467C
:1029F000224603F073F811A93846D3E031A86A469D
:102A0000506032A810606AA21846099108933346B4
:102A1000FDF7EEFB329C11A88025734A7A442946C3
:102A20003B4603F0CDFF0026384631460A952A463C
:102A300003F054F80EAF3E7008980519012238468D
:102A4000294603F030F80998401E011B6B1C3878AA
:102A5000002846D00C9C0793099131AA0892684639
:102A6000426032AF0760184651A20B9BFDF792FC03
:102A70003298069011AD284606F09AFE69460C6021
:102A80002C180A99091AF0B2431C584A7A44204675
:102A900003F096FF68460760089941600798069919
:102AA000421808920998441A1046214640A20B9BEE
:102AB000FDF754FB329F284606F07AFE2B180A9940
:102AC000091A4B4A7A4418460C9B03F079FFE11B24
:102AD0000C9C0898C319761CF0B20EAA127890428A
:102AE000B9D309910DAF00263E7001223846194630
:102AF0001C4602F0D8FF387800284AD0651C099897
:102B0000411E3C48784406903B4878440590089123
:102B100031AA09926846426032AA079202602846AA
:102B200023A20B9BFDF7DCFA329F11AC204606F086
:102B30003FFE69460C9A0A6022180A99091AF0B2F7
:102B4000431C1046069A03F03BFF68460799016054
:102B500009994160E91909910898C71B0846394647
:102B600013A20B9BFDF7FAFA329D204606F020FED9
:102B700022180A99091A1046059A0C9B03F020FFA7
:102B8000791B09984519761CF0B20DAA127890426B
:102B9000BDD3002180240C9D2846224602F09EFFD2
:102BA00011A92846224602F07EFF33B0F0BDC04690
:102BB000526563656E74204F776E6572204175743F
:102BC000680000004372000032720000AD71000026
:102BD000C87100003F7100001571000026710000EF
:102BE000D4700000C7700000E76F0000856F000020
:102BF000576F00001E6F0000116F0000F0B585B028
:102C00001C4616460D4600210491039103A96A460D
:102C1000516004A91160471C104A7A44384629467D
:102C2000FDF7B8FB002E0BD0049903A86A4650604C
:102C300004A810607818691A02A22346FDF7AAFBBF
:102C400005B0F0BD4E6577205265636F7665727989
:102C5000204163636F756E7400000000416E0000D8
:102C6000F0B585B01C4615460E460021049103912F
:102C700003A96A46516004A91160471C1C4A7A44A2
:102C800038463146FDF786FB002D2DD0049803A968
:102C90006A46516004A911603F18361A13A23846DB
:102CA00031462346FDF776FB012D1DD0049803A97C
:102CB0006A46516004A911603F18361A0D4A7A44D9
:102CC000384631462346FDF721FB022D0CD00499EE
:102CD00003A86A46506004A810607818711A064A62
:102CE0007A442346FDF756FB05B0F0BD546F000053
:102CF0001F6D0000E46C0000C96C0000F0B585B0E9
:102D00001C4615460E4600210491039103A96A460C
:102D1000516004A91160471C254A7A44384631465F
:102D2000FDF738FB002D3ED0049803A96A46516098
:102D300004A911603F18361A1E4A7A4438463146B3
:102D40002346FDF755FA012D2DD0049803A96A46B4
:102D5000516004A911603F18361A14A23846314652
:102D60002346FDF717FB022D1DD0049803A96A46E0
:102D7000516004A911603F18361A0F4A7A44384648
:102D800031462346FDF7C2FA032D0CD0049903A85F
:102D90006A46506004A810607818711A074A7A448D
:102DA0002346FDF7F7FA05B0F0BDC046546F0000AA
:102DB000836C0000A56C0000266C00000B6C00000A
:102DC000F0B585B01C4616460D46002104910391CE
:102DD00003A96A46516004A91160471C0B4A7A4452
:102DE00038462946FDF7D6FA002E0CD0049903A8E0
:102DF0006A46506004A810607818691A044A7A4438
:102E00002346FDF7F5F905B0F0BDC046BF6B0000E5
:102E1000E16B000070B584B01C4615460022039299
:102E2000029202AA6B465A6003AA1A60461C0D4A17
:102E30007A4430462346FDF7ADFA002D0CD00398B6
:102E4000305C012802D00948784401E00648784403
:102E500002A12246FDF71EF904B070BD4465636C03
:102E6000696E65007E6B0000866B0000916B000050
:102E7000F0B5AFB01F4614460D4600212E910791C4
:102E80002D912DA96A4651602EA91160461C7EA283
:102E900030462946FDF77EFA002C00D1F2E02E984C
:102EA0002DA96A4651602EA9116036182D1A7AA2F2
:102EB000304629463B46FDF76DFA012C00D1E1E092
:102EC0002E982DA96A4651602EA911603418291A2E
:102ED0000691764A7A4420463B46FDF789F92E98BA
:102EE0000590099720370DA88026714A7A4431460B
:102EF0003B4603F065FD0A973846079D294608962C
:102F0000324602F0EBFD0CAE3570059FE51901224B
:102F10003046294602F0C7FD0698401EC11B6B1CB7
:102F20003078002848D0079D039305912DAA079279
:102F3000684642602EAA049202605E4A7A44069273
:102F40001846099BFDF726FA2E9F0DAE304606F077
:102F50002FFC69460A9A0A6034180899091AE8B2DF
:102F6000431C554A7A44204603F02AFD68460499DA
:102F70000160079941600398C11907910598C41B26
:102F800008462146069A099BFDF7E8F82E9F304631
:102F900006F00EFC33180899091A484A7A44184674
:102FA0000A9B03F00DFDE11B0798C3196D1CE8B2E5
:102FB0000CAA12789042B7D30D460BAE00243470A1
:102FC0000122304619461F4602F06DFD3078002878
:102FD0004CD07F1C691E3A487844079039487844A1
:102FE000039039487844029005912DAA06926846CC
:102FF00042602EAA049202603846079A099BFDF7A8
:103000006FF82E9D0DAE304606F0D2FB69460A9A47
:103010000A6032180899091AE0B2431C1046039A54
:1030200003F0CEFC68460499016006994160791965
:1030300006910598451B08462946079A099BFDF706
:103040008DF82E9F304606F0B3FB32180899091A06
:103050001046029A0A9B03F0B3FCE91B0698C719B5
:10306000641CE0B20BAA12789042BDD300218024E8
:103070000A9D2846224602F031FD0DA92846224627
:1030800002F011FD2FB0F0BD5265736574204163ED
:10309000636F756E740000004163636F756E74201A
:1030A000546F205265736574000000009A6B000035
:1030B000176B0000326B0000AD6A00007F6A0000F1
:1030C000966A0000446A0000376A0000F0B585B0D7
:1030D0001C4615460E4600210491039103A96A4639
:1030E000516004A91160471C1C4A7A443846314695
:1030F000FDF750F9002D1BD0049803A96A465160D2
:1031000004A911603F18361A0AA2384631462346F0
:10311000FDF740F9012D0BD0049903A86A465060D1
:1031200004A810607818711A07A22346FDF732F937
:1031300005B0F0BD4375722052657365742041631C
:10314000636F756E740000004E657720526573657D
:1031500074204163636F756E74000000C4680000E2
:10316000F0B585B01C4615460E460021049103912A
:1031700003A96A46516004A91160471C244A7A4495
:1031800038463146FDF706F9002D2BD0049803A9E7
:103190006A46516004A911603F18361A12A23846D7
:1031A00031462346FDF7B2F8012D1BD0049803A940
:1031B0006A46516004A911603F18361A0DA23846BC
:1031C00031462346FDF7A2F8022D0BD0049903A83F
:1031D0006A46506004A810607818711A08A2234645
:1031E000FDF794F805B0F0BD526577617264204830
:1031F0006976650052657761726420484244000038
:1032000052657761726420564553545300000000A4
:1032100030680000F0B585B01C4615460E4600210A
:103220000491039103A96A46516004A91160471CE7
:1032300012A238463146FDF7ADF8002D1CD0049897
:1032400003A96A46516004A911603F18361A0EA2FC
:10325000384631462346FDF79DF8012D0CD00499E0
:1032600003A86A46506004A810607818711A094AC9
:103270007A442346FDF74AF805B0F0BD44656C6515
:103280006761746F7200000044656C656761746506
:103290006500000046670000F0B585B01C46154685
:1032A0000E4600210491039103A96A46516004A9C6
:1032B0001160471C414A7A4438463146FDF76AF8A6
:1032C000002D5CD0049803A96A46516004A91160DE
:1032D0003F18361A2BA2384631462346FDF75AF8D6
:1032E000012D4CD0049803A96A46516004A91160CD
:1032F0003F18361A26A2384631462346FCF778FF97
:10330000022D3CD0049803A96A46516004A91160BB
:103310003F18361A21A2384631462346FCF768FF8B
:10332000032D2CD0049803A96A46516004A91160AA
:103330003F18361A1CA2384631462346FCF7E6FFF2
:10334000042D1CD0049803A96A46516004A9116099
:103350003F18361A17A2384631462346FDF71AF8A9
:10336000052D0CD0049903A86A46506004A810608B
:103370007818711A124A7A442346FDF70BF805B003
:10338000F0BDC04652656365697665720000000055
:10339000537461727420446174650000456E64204A
:1033A00044617465000000004461696C79205061DB
:1033B000790000005375626A656374003467000029
:1033C00010660000F0B5ABB016460F4600242A94F4
:1033D0002994289429A96A4651602AA91160451C9C
:1033E0003E4A7A44284639460793FCF7D3FF002E1D
:1033F0006BD0059704962A9803902D18042128AACB
:10340000284600F06FFE07462A9708A8802130A2C0
:10341000069103F0D5FAEE19289800282CD00598CB
:103420000399401AC51B07982030059029A86946C2
:1034300048602AA808602A4A7A4430462946079BF1
:10344000FCF71EFF08AF384606F0B2F92899491E6E
:103450008C4202D0234A7A4400E01EA23B1806990F
:10346000091A1846059B03F0ABFA2A982D1A36184C
:10347000641C28988442D9D308AC204606F098F9F9
:1034800023180699091A14A2184603F099FA049809
:1034900001280DD1079D2035002180242846224691
:1034A00002F01CFB08A92846224602F0FCFA0CE0B8
:1034B0003078012802D00D48784401E00A48784469
:1034C0000B497944079AFCF7E5FD2BB0F0BDC046E7
:1034D0005B20000025730000205D00009765000060
:1034E00045660000006600001665000021650000CA
:1034F0008C650000F0B5A9B015460C46002728974A
:103500002797269727A96A46516028A91160461C6B
:1035100031A2304621460593FCF73CFF002D59D0DF
:10352000289803903618042126AA304600F0DAFDC8
:103530000546289506A880212BA2049103F040FAA5
:10354000269800282FD076190398201A441B059B33
:1035500018462030039027A86946486028A80860CC
:10356000244A7A4430462146FCF78AFE06AD2846B6
:1035700006F01EF92699491E8F4202D01E4A7A444F
:1035800000E01AA22B180499091A1846039B03F0AD
:1035900017FA2898241A36187F1C26988742059B0C
:1035A000D9D3039D01E0059D203506AC204606F0E9
:1035B000FFF82318049E311A0DA2184603F000FAF2
:1035C00000212846324602F089FA28462146324632
:1035D00002F069FA29B0F0BD50726F706F73616CC0
:1035E000204F776E657200005B200000257300009D
:1035F000205D00001B650000D8640000F0B581B0BC
:103600001E4617460D4604469320820000212046A0
:1036100002F064FA6560A7604920C00026500120CE
:1036200020709120800006992154284603F032FC36
:10363000A06803F02FFC01B0F0BD000080B5426B24
:10364000002A07D0036B19785B1C521E0363426388
:10365000084680BD02A003F01BF8012002F05EFACC
:103660007265616454784279746520556E64657240
:10367000666C6F770A00000010B50C4602464920C0
:10368000C000235818782233216A4434132812DCEE
:10369000072823DD0B283DDD102868DD112800D127
:1036A000A6E0122800D1A7E0132800D0E8E02046C9
:1036B000FEF76CFA10BD21281EDD262836DD2B28EA
:1036C0005EDD2C2800D19BE02D2800D19CE02E2827
:1036D00000D0D5E02046FFF70DFF10BD032830DCF9
:1036E000012855DC002800D192E0012800D0C7E075
:1036F0002046FCF7FDFE10BD18282DDC16284FDCF7
:10370000142800D188E0162800D0B9E02046FEF742
:10371000E9FB10BD09284BDC082800D180E009280E
:1037200000D0ADE02046FDF75FF910BD242847DC4E
:10373000222879D0242800D0A2E02046FFF76AFB97
:1037400010BD052844DC042872D0052800D097E07D
:103750002046FDF713F810BD1F2841DC19286BD057
:103760001A2800D08CE02046FFF748FA10BD0C283C
:1037700066D00D2800D083E02046FEF7CDF810BDBE
:10378000272861D028287BD12046FFF743FD10BDB4
:1037900002285DD0032873D12046FCF78DFF10BDB1
:1037A000172859D018286BD12046FEF7FBFE10BD14
:1037B0000A2855D00B2863D12046FDF787FF10BD9E
:1037C000252851D026285BD12046FFF77FFC10BD6D
:1037D00006284DD0072853D12046FDF787F810BDA5
:1037E000202849D021284BD12046FFF787FA10BD69
:1037F0002046FEF7BBF810BD2046FEF7E1F810BDED
:103800002046FFF749FD10BD2046FFF7DBFD10BD48
:103810002046FCF71DFE10BD2046FEF703FB10BD41
:103820002046FDF7A5F810BD2046FFF7C9FA10BDE8
:103830002046FCF77BFF10BD2046FEF7DDFF10BDE4
:103840002046FEF727F810BD2046FFF789FC10BD83
:103850002046FCF7E1FE10BD2046FEF76BFB10BDD5
:103860002046FDF70DFC10BD2046FFF701FB10BD03
:103870002046FDF711F810BD2046FFF7F1F910BD05
:10388000012002F04BF90000F0B595B015460E4648
:10389000044608AF384605F041FFB885FD490842A7
:1038A00006D008A800268685129803F005FC0EE0D5
:1038B00008A803F001FC1290606B002801D1266378
:1038C0006563A078002812D00020A070032603F0C2
:1038D000E7FB08A9884202D1129803F0EDFB08A883
:1038E000808D002800D00AE3F0B215B0F0BD492069
:1038F000C00020180790204625300690204618303A
:1039000005902646383620460C300390274624374B
:1039100002970496E5E2207804260828D7D0606B49
:1039200001260028D3D03878002837D12046FFF769
:1039300085FEE16A4A1CE262611825228854E16A28
:1039400014AD0698039A2B4600F052FD07462878DE
:10395000002808D00520002F09D1E16A00200529A0
:1039600005D1E1A000E0E7A002F092FE01200721CE
:103970000140002903D1606B0028D7D101E005295F
:1039800008D1012F029FA2D100202061E062012016
:10399000387003E000260028029F98D12078042880
:1039A0002CDC401E042800D3A3E2E56823699D4275
:1039B00018D96068226B676B00216E4631607160B8
:1039C000EB1A9F4200D31F463B4603F043FA206B9D
:1039D000C0192063606BC01B60632069C319236139
:1039E000E568029FAB4204D12078401C2070002083
:1039F0003870A078002800D173E265E705282BD045
:103A0000062850D0072800D073E2E3682569AB424E
:103A100000D8A3E06068226B676B00216E463160BE
:103A200071605B1B9F4200D31F463B4603F012FAB6
:103A3000206920183830216B3A4602F034F8206BA8
:103A4000C0192063606BC01B60632069C5192561C4
:103A5000E368049E029F82E0E3682569AB4200D8D8
:103A600097E06068226B676B00216E463160716081
:103A70005B1B9F4200D31F463B4603F0EBF92069D6
:103A800020183830216B3A4602F00DF8206BC0192F
:103A90002063606BC01B60632069C5192561E36802
:103AA000049E029F76E003980168480A00D028E24D
:103AB0002369994232D96068226B676B00256E4694
:103AC00035607560C91A8F4200D30F4629463B46C0
:103AD00003F0C0F9A068226B69460D604D6029466D
:103AE0003B4603F0B7F9206920184430216B3A4671
:103AF00001F0D9FF2069002806D1216B07980068E2
:103B0000012201F0D0FF2069216BC9192163616B8B
:103B1000C91B6163C3192361E168029F8B4200D016
:103B200067E72162079800680178132946DC0729B6
:103B30005ADD0B2900DC80E0102900DCBAE01129F5
:103B400000D134E1122900D137E1132900D0DDE1A1
:103B500007214170801CF14979447BE1049E9D421C
:103B600000D046E700271497591C14AA304600F0ED
:103B7000B9FA1498002800D0C6E10C223046394624
:103B800001F0ACFF2078401C2070029807700746B7
:103B90002FE7049E9D4200D02BE7591C3046059A22
:103BA00000F0A0FA002565610C223046294601F09C
:103BB00095FF2078401C20703D701AE721292BDDED
:103BC000262949DD2B2900DC80E02C2900D1FBE0EF
:103BD0002D2900D1FEE02E2900D097E1022141706D
:103BE000801C1022D5A16DE1032944DC012900DDF0
:103BF00092E0002900D1F3E0012900D086E10721FD
:103C0000417000214172742101726E21C1716521E0
:103C100081716D21417104E118293DDC162900DD17
:103C200086E0142900D1E8E0162900D06EE10221D7
:103C30004170801CDB49794435E1092900DD84E0CD
:103C4000082900D1E0E0092900D05FE10821417096
:103C5000801CD14979441FE1242900DD81E022291B
:103C600000D1E4E0242900D050E102214170801C01
:103C7000D049794499E005297FDC042900D1DDE0B1
:103C8000052900D042E106214170801CC0497944D9
:103C900010E1C046FFFF00001F297BDC192900D17D
:103CA000D3E01A2900D031E102214170801CBF49C4
:103CB000794416E00C2900D1CEE00D2900D025E191
:103CC00002214170801CB64979446EE0272900D159
:103CD000C8E0282900D019E103214170801CB649B1
:103CE00079441822EEE0C046544C56207072652D7F
:103CF0006465636F6465206C6F67696320657272C9
:103D00006F720A00544C56206465636F64696E6775
:103D1000206572726F720A00022900D1A9E003299E
:103D200000D0F3E003214170801C98497944C8E039
:103D3000172900D1A4E0182900D0E7E00321417041
:103D4000801C994979441922BCE00A2900D19EE0DF
:103D50000B2900D0DAE004214170801C8F4979449E
:103D60009AE0252900D199E0262900D0CEE0032150
:103D70004170801C12227FA1A4E0062900D194E0AA
:103D8000072900D0C2E003214170801C8149794499
:103D90000D2297E0202900D18EE0212900D0B5E046
:103DA00005214170801C8249794416228AE0022153
:103DB0004170801C864979446EE004214170801C6A
:103DC000844979440C227DE007214170801C102237
:103DD00064A177E003214170801C16225BA171E091
:103DE0000421417065214171742101716F21C170FD
:103DF000762181700021817166E003214170801C71
:103E0000754979441B225DE0032141700021417214
:103E1000742101727221C171652181717621417114
:103E20006E2101716F21C170632181704CE002210C
:103E30004170801C6C4979441D2243E0022141708D
:103E4000801C5F49794411223CE003214170801CB1
:103E500063497944102235E003214170801C5B499D
:103E6000794404E004214170801C614979441522A1
:103E700028E004214170801C50497944092221E046
:103E800007214170801C5549794417221AE0062108
:103E90004170801C4C4979440F2213E0032141708A
:103EA000801C524979440E220CE002214170801C92
:103EB00044497944132205E004214170801C49499A
:103EC0007944142205F04AFB6069401C6061A169D5
:103ED000884201D3072020700020387001206070D4
:103EE00087E56078002800D115E500206070022683
:103EF000EDE44148784402F0CBFB0026E7E401F012
:103F00000DFE2148784403E005A001E039487844DB
:103F100002F0BEFB012001F001FEC0466C60000013
:103F20007A65726F53697A654669656C64206D7550
:103F3000737420626520300A0000000072656D6FA6
:103F400076655F70726F706F73616C00757064611D
:103F500074655F70726F706F73616C5F766F74659C
:103F6000730000006372656174655F70726F706FDB
:103F700073616C007365745F72657365745F616310
:103F8000636F756E74000000A35B0000BC5D0000F1
:103F9000825E0000AA5D0000F45E00000A5E000080
:103FA000C85E0000BA5F0000D45E0000945F0000AD
:103FB000C85E00003660000008600000625C00001F
:103FC000B85C0000725C0000C25C0000185D00007C
:103FD000F25D0000F65D0000D25D0000785D00003B
:103FE000E25D00009C5D0000525E00001C5E00006F
:103FF000645E0000BA5B0000965B0000F0B59BB009
:10400000164601960F46044602AD6421284605F087
:104010009FFA28462146324605F0FEFB284605F069
:10402000C7FB0646A819394605F0BAFB384605F025
:10403000BFFB019961188019281805F0B1FB2046D3
:10404000294605F0ADFB1BB0F0BD0000F0B585B012
:104050000C460546002D3DD001AF00261022384603
:10406000314601F03BFD03CD3A46083D00F068F9CA
:10407000384605F09DFB297A88420ED8009417A790
:1040800001AC002220463946FFF7B8FF204605F074
:104090008FFB297A8842F3D9009C421A01AF10A104
:1040A0003846FFF7ABFF384605F082FB2021395434
:1040B0003818467009353846294605F049FB102264
:1040C0002046394601F0EFFC384605F071FBC0B2DE
:1040D00005B0F0BD022001F021FDC0463000000017
:1040E0002E000000F0B581B00092002529462C4634
:1040F0002B46C25C7F251540E6B2B54029435D1CC6
:1041000080273A4205D0E21DE0271740F41D202FFA
:10411000EED300980160581C01B0F0BD70B58AB0B4
:104120001C461546002819D0202917D9272C18D944
:104130004021415C01220A400221114301AE31704D
:10414000731C411C2022184601F0ADFC2121304691
:104150002A46234600F008F80AB070BD022001F09C
:10416000DDFC032001F0DAFCF0B5AFB004462029F5
:1041700044D905920693272B3DD925AE0021039102
:1041800025220492304601F0A9FC21273046214621
:104190003A4601F088FC08AC204602F06FFE14207D
:1041A0006946486020AD0D600121204632463B46FD
:1041B00002F050FE304621300422294601F073FC03
:1041C000059D28460399069C224601F087FC532052
:1041D0002870542068704D20A870E01E0790EA1CDB
:1041E00007AB3046049900F00DF80798C01CA042B8
:1041F00001D22FB0F0BD032001F090FC022001F0AD
:104200008DFC0000F0B503AF8BB06E46326070617C
:104210000024B161002908D000247069005D0028E5
:1042200003D1641CB0698442F7D37360B569291B5C
:104230008A204843642104F0A1FE024608323E4928
:1042400011406A46531A3062421C9D460021B362F7
:1042500018463161B26001F041FCF460AC422BD2EF
:10426000316AF2680B467069F261805C316A736290
:10427000994202D80028316A19D0356AB16A495D7D
:1042800009020C183A21204604F0E8FFB06A4155B3
:104290000021002D0BD03A21204604F0F9FE3934DC
:1042A0006D1E716A8D42E9D8722C2946E6D8F269F2
:1042B000521CB0698242D5D17468F5683369B1681F
:1042C000B06AC05C002802D15B1C8B42F8D348194D
:1042D000C11A226800208A4227D90021002D3361AB
:1042E00006D0312130682A4601F0F8FB33692946AF
:1042F000B268934215D2306840181446B26AD21898
:10430000E31A346A0919491C0C4D7D4414782C5D5C
:104310000470401C5B1E521C002BF7D13069091A37
:1043200074680020326850540120491C2160FC1F31
:10433000053CA546F0BDC046F8FFFF07F659000052
:10434000F0B585B00D46034600200490C0430390AD
:10435000002D01DB104606E02D2010700021CB1A45
:10436000A941501C0D460292039944180193184626
:104370002946049E074609370B4673410122122F36
:10438000174600D8049F002B00D11A46002B00D0FE
:1043900017460A22049E334604F066FF641C002F71
:1043A000E8D100276770114878440490019E0A22E2
:1043B000304629463B4604F057FF049B9A5C227026
:1043C00009367D410123122E1A4600D83A46002DA7
:1043D00000D12B46002D00D01A46039BE418002A7A
:1043E00006460D46E3D1029805B0F0BD9259000093
:1043F00070B5044620781F2505400020042D11D1FA
:10440000012602290FD36578491E8020054204D178
:10441000294611600126304605E07F200540002036
:10442000042D02D906461E7070BD8D42FBD2A01C21
:104430000021002DEDD0002634463146865D09026C
:104440003143641CE6B2AE42F8D3E2E701460020F5
:10445000C2430B785BB2002B0FDB0AD02023CB5674
:1044600093420ADD0120002B07D12120085CC009FE
:1044700070470123CB56002BF0DB7047F0B581B0BD
:104480000C4605462A7905270420002A00D0074655
:104490000020C143002A00D00146EA785618202E99
:1044A00041D80020202E0ED0701C2023202800DCB4
:1044B0001846401A811A204605F04AF80020401C90
:1044C00031182029FBDB2018E919324601F0EBFAFC
:1044D000F219901C2B5CD71C002B00D00746002043
:1044E000C143002B00D00146AA1852785618202E3E
:1044F00019D80020202E0FD0701C2023202800DC8B
:104500001846401A811A2046203005F021F8002074
:10451000401C31182029FBDBE919201820303246D5
:1045200001F0C1FA012001B0F0BDF0B5E3B00D9289
:104530000691049020200E906B980B906A9D6998CC
:104540000790689803900F950E9829180991401CC0
:1045500008900D9800286DD001210C9128460E9CE2
:1045600022460A9301F0BAFA00270B9D28463946E5
:10457000224601F0B3FA099807703C4610AE202796
:10458000304629463A4602F091FC6846A0C03046C3
:10459000059421460F9A089B02F096FC6846A0C03D
:1045A000304621460D9A0A9B02F08EFC6846A0C058
:1045B00030460C99069A0E9C234602F085FC304644
:1045C00029463A4602F072FC68460F9982C030468E
:1045D0000C990F9A234602F077FC09980C99017008
:1045E000304629463A4602F061FC6846A0C0304693
:1045F000059C21460F9A089B02F066FC6846A0C005
:10460000304621460D9A0A9B02F05EFC6846A0C027
:1046100030460C9C2146069A0E9B02F055FC304613
:1046200029460F9D3A4602F041FC6846A0C030463C
:1046300021461FE000200999087010AC2025204673
:104640000B9F39462A4602F031FC684607604560F8
:104650000126204631460F9A089B02F035FC204681
:1046600039462A4602F022FC68460F9922C00F9D67
:10467000204631462A460E9B02F026FC002307986E
:1046800000280D9300D164E70E9F079E10AC2025F3
:1046900020460B992A4602F009FC68460F9922C071
:1046A000BE42324600D33A460121204614460F9DB1
:1046B0002A46234602F008FC04982946224601F0C7
:1046C000F2F9361B2746E1D10E9400230798002803
:1046D0000D9300D138E70020039B195C2A5C401C35
:1046E0008A4206D300210D9107998842F5D30D9B8C
:1046F0002AE763B0F0BD000010B582B001AC2070B5
:104700000748784402F05CFB0122214602F086FB58
:10471000044979440020024604F09EFB02B010BD1B
:10472000BA6000003257000080B50748784402F0B4
:1047300047FB01780120002900D10846034979444C
:10474000002204F089FB80BD90600000B25600009A
:1047500070B505466878012400281FD0411E104A14
:104760001268012400238A4200D01C468A4215D1D7
:104770007D26310101280FD002280FD107212846BC
:1047800001F0D2FBF60080190649884204D30721C4
:10479000284601F0C9FB811903484161204670BDDC
:1047A000AC180020B80B0000B0180020F0B581B0A4
:1047B00004466178012500291DD01C4802687D202F
:1047C000C6001B4F032919D1022A17D907212046F9
:1047D00001F0AAFB8019B84204D30721204601F05A
:1047E000A3FB87191348476110480068FE30C0B228
:1047F0001149FEF741FF284601B0F0BD4B1E0020D5
:104800009A42F9D1022B0ED20721204601F08CFBEF
:104810008019B84204D30721204601F085FB87198F
:1048200004484761E7E70329D0D0E4E7AC1800204B
:10483000B80B0000B0180020441A00204178012075
:1048400000290FD0491E08480268012000238A422F
:1048500000D01846012905D88A4203D17D210901DB
:10486000024A51617047C046AC180020B0180020C1
:1048700080B5034979440020024604F0EDFA80BD7A
:104880007856000010B500F017F8094990220A5434
:10489000091800244C70801C81B2202001F0D6FB46
:1048A000044979442046224604F0D6FA204610BD39
:1048B0000C1E00204A560000F0B581B0144F412272
:1048C0003A70781C134C2146083101F0ECF826466A
:1048D0004C36304604F06CFF054642203D543846C5
:1048E000433031462A4601F0DEF8A820215C2846F4
:1048F0004330002907D0381888342022214601F09F
:10490000D2F8633500E00546284601B0F0BDC04648
:104910000C1E00200018002080B50D49884212D0DE
:104920000C49884211D10C486921017085214170E0
:104930002020022101F08AFB084979440020024628
:1049400004F08AFA01E0FFF79DFF002080BDC04619
:1049500002000080010000800C1E0020B255000003
:1049600010B500F017F8094990220A5409180024DC
:104970004C70801C81B2202001F068FB044979440E
:104980002046224604F068FA204610BD0C1E002086
:104990006E550000F0B5B5B0202768464760414C21
:1049A00022462C32026040480121002606910592E1
:1049B000334602F04FFA227868460660211D3446DD
:1049C0002120089025AD04952B4602F0E5FA1BAE98
:1049D000089829463D463A46334602F089FA402275
:1049E0000498214601F07AF8083604962F4F07956F
:1049F000002C08940FD00AA86946C86012A88860E5
:104A00004D602D4878440860384664300022059C8B
:104A1000214613460EE01C9B0AA86946C86012A8EE
:104A200088604D6023487844086038466430059CAF
:104A30002146049AFFF779FD2946234609AD6846C9
:104A400064243E46643642C0046045601BA8184991
:104A5000032202F06DFA385D2978C9073A4602D17F
:104A6000079D069903E0069908431055079D0840E5
:104A70001F3010701746541C30462146FFF7FEFCCD
:104A80002046FFF7E3FC089A541C002800D0144687
:104A90000028ADD01BA80021282201F01FF84120DA
:104AA00035B0F0BD00180020B41C00200C1E002002
:104AB000410800001F53000041530000F0B581B0D1
:104AC00080266849884214D0674988420ED16A48D6
:104AD00069210170711D41702020022101F0B6FA98
:104AE0006C4979440020024604F0B6F9002001B078
:104AF000F0BD5E4F3868401C38605D4D29688842C3
:104B000041D2C0B25B49FEF7B7FD01F06DF901F08B
:104B10006DF95E4C0020A060042002F0D9FAE0613B
:104B200021680029E2D00028E0D09728DED0A068D4
:104B300061688842DAD202F097FA0028D6D130466E
:104B40002A30C5B202F01CFAA84203D102F042FAA0
:104B5000A842CBD12068A268E168520180180029E0
:104B600002D08847002807D0012803D12068A16817
:104B70004901401801F094F9A068401CA060216828
:104B80000029D5D1B2E73B48002421462246FEF752
:104B90007BFE012851D004285CD002285DD13C6006
:104BA00036484078801C286032498869022805D33D
:104BB0004B693348202133A201F002FF01F014F9C0
:104BC00001F014F9314DAC60042002F081FAE86183
:104BD000296800298AD0002888D0972886D0A8681C
:104BE0006968884282D202F03FFA002800D07DE74F
:104BF00030462A30C4B202F0C3F9A04204D102F018
:104C0000E9F9A04200D071E72868AA68E968520172
:104C10008018002902D08847002807D0012803D136
:104C20002868A9684901401801F03AF9A868401CB1
:104C3000A86029680029D3D158E710360E480670BD
:104C400044702020022101F001FA114979442046E4
:104C5000224649E7FFF784FE48E707486A210170CA
:104C6000467039E70200008001000080AC18002087
:104C7000B01C0020441A00200C1E002080190020C7
:104C8000601900204F50202325640000B018002038
:104C9000A05200000A54000080B501F001F980BD67
:104CA00070B580253D49884208D03D49884273D17E
:104CB0003D4869210170691D417063E03948002455
:104CC00021462246FEF7E0FD012847D0042852D0B5
:104CD000022853D1354800260660354840783549CA
:104CE000086001F081F801F081F8334CA6600420DF
:104CF00002F0EEF9E061216800294DD000284BD088
:104D0000972849D0A0686168884245D202F0ACF982
:104D1000002841D128462A30C6B202F031F9B0420B
:104D200003D102F057F9B04236D12068A268E16899
:104D300052018018002902D08847002807D0012896
:104D400003D12068A1684901401801F0A9F8A068C2
:104D5000401CA06021680029D5D11DE01035124803
:104D6000057044702020022101F070F91349794444
:104D7000204622460EE0FFF7F3FD0DE00A486A21C7
:104D8000017045702020022101F060F90C4979443E
:104D90000020024604F060F8002070BD0200008090
:104DA00001000080441A00200C1E0020AC180020D6
:104DB00080190020B01C0020B01800207E51000097
:104DC0005E510000B0B505460720284000240128A8
:104DD00013D0022813D1002908D00A4802F038F96C
:104DE00068B2002809DA02F00FF806E0FF2152311C
:104DF0000448002202F044F904462046B0BD0220D7
:104E000000F08CFE0C1E0020F0B5A3B013461A78FB
:104E10005F1CD523DD01531EDBB20A2B00D3B7E0A4
:104E2000022800D3B0E0012900D9ADE0299B02930C
:104E3000289B039311AB14463D782D067E783604EB
:104E40002E43BD782D023543FE782E4340C33F1DCF
:104E5000641EF1D100260129344600D10C4606908B
:104E6000A823534DEC5428468830012900D0304601
:104E7000694608600596212611A91BAF30463B46BE
:104E800002F08AF82022049207AC304639462346C5
:104E900002F02EF8012330462946224602F038F867
:104EA00028222046059C214600F018FE384621465F
:104EB000049A00F013FE284608304C3541213C236B
:104EC0002A46FFF72BF90698002868D039480026B3
:104ED0000660394802210160384D3948784428601D
:104EE0000720686037487844286137487844E8608C
:104EF00003202876EE612846183002F077F8042463
:104F0000204602F0E5F8E86100F06EFF00F06EFF69
:104F1000AE60204602F0DCF8E861296800292CD058
:104F200000282AD0972828D0A8686968884224D207
:104F300002F09AF8002820D1AA2402F021F8AA2829
:104F400003D102F047F8A04217D12868AA68E9689F
:104F500052018018002902D08847002807D0012874
:104F600003D12868A9684901401800F099FFA86892
:104F7000401CA86029680029D7D1039A1068102125
:104F80000143116023B0F0BD8035284600F0C6FD16
:104F90000E48784401F07CFB284600F0BFFDFFF787
:104FA0008BFC029908600920000300F0B7FDC046A1
:104FB00000180020AC180020B01C0020B018002001
:104FC0009C5000002FFAFFFF61F8FFFF504E0000D9
:104FD00080B50C48784401F0F3FE017801200029E7
:104FE000024600D10A4606490A70487000228A70BB
:104FF000C8700398042101600920000300F08EFDB1
:105000000C1E0020E8570000F0B585B01E4615467E
:10501000D522D7016B221302802834D0002800D07B
:105020001CE10391049728789E490870421ED2B271
:105030000A2A00D31FE10293761E6D1C0022930002
:10504000CB182F783F066C7824043C43AF783F029E
:105050002743EC783C435C60B3B2934C1E192D1D82
:10506000521C8242EBD3AE48784401F0A9FE00788E
:10507000694608608D488E498E4A8F4BFEF7BEFA0E
:10508000049F029B0399002900D0E7E0874800783D
:10509000002800D1E5E0B2B2844E30462946FEF742
:1050A000F3FB09210C03AA25022814DC049500D087
:1050B000DCE08248002707607F484578804C256007
:1050C000B06902286AD373697E4820217EA201F06C
:1050D00077FC256868E0032800D0D3E0B3697E48F8
:1050E00020217EA201F06CFC744800270760744800
:1050F00002210160774E8B48784430600720706051
:1051000089487844306189487844F06003203076DB
:10511000F7613046183001F069FF0424204601F0A1
:10512000D7FFF06100F060FE00F060FEB76020463F
:1051300001F0CEFFF0613168002900D187E000283E
:1051400000D184E0972800D181E0B068716888427E
:105150007DD201F089FF002879D101F011FFA8422A
:1051600003D101F037FFA84271D13068B268F1680D
:1051700052018018002902D08847002807D0012852
:1051800003D13068B1684901401800F089FEB06869
:10519000401CB06031680029D8D158E049486449C2
:1051A00079440C2204F0DAF9A81C2060494E6148C9
:1051B00078443060092070605F48784430615F480F
:1051C0007844F06003203076F7613046183001F003
:1051D0000DFF0424204601F07BFFF06100F004FE87
:1051E00000F004FEB760204601F072FFF061316804
:1051F0000029049C2BD0002829D0972827D0B068FC
:105200007168884223D201F02FFF00281FD101F0DE
:10521000B7FEA04203D101F0DDFEA04217D13068F5
:10522000B268F16852018018002902D0884700282E
:1052300007D0012803D13068B1684901401800F057
:105240002FFEB068401CB06031680029D8D10A98A0
:10525000016810220A43026005B0F0BD184600F054
:105260005DFC29A001F014FAFB3F17E0002815D0DF
:1052700001280DD00FE03248784401F009FA049873
:1052800000F04CFC042806D10B9DFFF783FB28603F
:10529000204600F043FC15A001F0FAF9384600F072
:1052A0003DFCC04600180020FCFF0000441A00200E
:1052B000B41C0020201D002080190020AC18002004
:1052C000B01C002060190020416374696F6E2023B8
:1052D00025640000B0180020901C00202564206F79
:1052E0007065726174696F6E73000000556E657849
:1052F0007065637465642070617273657220737485
:10530000617475730A000000506172736572206EDB
:105310006F7420696E697469616C697A65640A00EA
:10532000545700008C5000009BFBFFFF31F7FFFF3C
:10533000D84F0000A84E0000FFF8FFFFE9F5FFFF7F
:105340006A4B0000F0B58FB00C46064603AF3846F6
:1053500004F0E4F90546BD85A8B2002826D010283F
:1053600052D003A8002181850D9801F0A5FE0F20E1
:1053700001032940FF2000022840000A03225203B3
:10538000914209D009221203914205D02C480540D0
:105390000D20C0020543280A2168284A505420687D
:1053A000101845702068801C20601FE003A801F0E1
:1053B00083FE0D90214A1078D4282ED150780228EF
:1053C0000BD004282DD11379D17890786D462E60BA
:1053D0006C60521DFFF718FE08E0D17890786B469C
:1053E0001E605C60521D0023FFF70EFD01F058FEA9
:1053F00003A9884202D10D9801F05EFE03A8808DBA
:1054000000280CD10FB0F0BD03A8002181850D98B4
:1054100001F052FE102000F081FB3720400200F026
:105420007DFB062806D168464460002001460346FD
:10543000FFF7CEFD6D20000200F070FB0C1E002077
:10544000FF070000F0B591B0002610960F960E965B
:10545000334F0DA8068001AD284604F05FF90446DD
:10546000AC85A0B2002814D010284AD001A88685A7
:105470000B9801F021FE0F200003204009210903B1
:10548000884203D00321490388421AD10DA8048021
:105490001EE001A801F010FE0B900F981090002460
:1054A0000F940E981099C0B289B200F0CFFD109001
:1054B0000E94109800282CD00EA80FA9FFF742FFD9
:1054C00011E0164804400D20C00220430DA90880B9
:1054D0000D98000A0F9978540D980F997918487013
:1054E0000F98801C0F9001F0DBFD01A9884202D1CA
:1054F0000B9801F0E1FD01A8808D0028A9D000F0F3
:105500000DFB01A886850B9801F0D6FD102000F058
:1055100005FB014800F002FB82690000FF07000064
:105520000C1E0020F0B581B0C24E3078AA250C28A0
:1055300010DD0D2863D00E2800D1A6E015280FD16C
:10554000BD48807901280BD1B079000708D410201C
:1055500000F0E4FA052800D1E7E00C2800D16AE267
:10556000FB4C012020760026E6612046183001F031
:105570003DFD042001F0ACFDE061692800D029E187
:1055800000F032FC00F032FCA660042001F0A0FD27
:10559000E0612168002900D14DE2002800D14AE2F3
:1055A000972800D147E2A0686168884200D342E2B0
:1055B00001F05AFD002800D03DE201F0E1FCA842D4
:1055C00004D101F007FDA84200D034E22068A268AF
:1055D000E16852018018002902D08847002807D0CE
:1055E000012803D12068A1684901401800F058FC47
:1055F000A068401CA06021680029D5D11BE2D44CD2
:10560000012020760026E6612046183001F0EEFCED
:10561000042001F05DFDE061002800D10BE2692863
:1056200000D197E1972800D105E22068002800D139
:10563000FBE1A0686168884200D3F6E101F014FD47
:10564000002800D0F1E101F09BFCA84204D101F058
:10565000C1FCA84200D0E8E12068A268E1685201DC
:105660008018002902D08847002807D0012803D1DC
:105670002068A1684901401800F012FCA068401C95
:10568000A06021680029D5D1CFE1EF4E012030760E
:105690000027F7613046183001F0A8FC042001F023
:1056A00017FD0446F461692C00D0C7E000F09CFBB4
:1056B00000F09CFBB760042001F00AFDF061316846
:1056C000002900D1B7E1002800D1B4E1972800D12A
:1056D000B1E1B0687168884200D3ACE101F0C4FC6C
:1056E000002800D0A7E101F04BFCA84204D101F052
:1056F00071FCA84200D09EE13068B268F1685201A6
:105700008018002902D08847002807D0012803D13B
:105710003068B1684901401800F0C2FBB068401C15
:10572000B06031680029D5D185E1C74C01202076D1
:105730000027E7612046183001F058FC042001F0F2
:10574000C7FCE061002800D175E1972800D172E123
:10575000692800D037E100F047FB00F047FBA76065
:10576000042001F0B5FCE0612168002900D162E16C
:10577000002800D15FE1972800D15CE1A068616852
:10578000884200D357E101F06FFC002800D052E1BD
:1057900001F0F6FBA84204D101F01CFCA84200D0A5
:1057A00049E12068A268E16852018018002902D00E
:1057B0008847002807D0012803D12068A168490143
:1057C000401800F06DFBA068401CA0602168002913
:1057D000D5D130E12068002800D126E1A0686168B9
:1057E000884200D321E101F03FFC002800D01CE1F9
:1057F00001F0C6FBA84204D101F0ECFBA84200D0A6
:1058000013E12068A268E16852018018002902D0E3
:105810008847002807D0012803D12068A1684901E2
:10582000401800F03DFBA068401CA06021680029E2
:10583000D5D1FAE08C1D0020601F0020706900287F
:1058400052D064216428024600D30A46801A70614F
:1058500029461339C9B28C4246D0002C44D00028C6
:1058600042D17A48016800293ED079480068401C3E
:1058700003F00AFC7648016000F0B6FA00F0B6FAD0
:10588000B760042001F024FCF061316800292BD0BE
:10589000002829D0972827D0B0687168884223D281
:1058A00001F0E2FB00281FD101F06AFBA84203D1FE
:1058B00001F090FBA84217D13068B268F16852013C
:1058C0008018002902D08847002807D0012803D17A
:1058D0003068B1684901401800F0E2FAB068401C35
:1058E000B06031680029D8D1002C00D1A3E0972CFA
:1058F00000D1A0E03068002827D0B06871688842E5
:1059000023D201F0B1FB00281FD101F039FBA842DE
:1059100003D101F05FFBA84217D13068B268F1688B
:1059200052018018002902D08847002807D001289A
:1059300003D13068B1684901401800F0B1FAB0688D
:10594000401CB06031680029D8D17068B1686EE041
:10595000B018002000F048FA00F048FAA6600420D1
:1059600001F0B6FBE0612168002964D0002862D014
:10597000972860D0A068616888425CD201F074FB0F
:10598000002858D101F0FCFAA84203D101F022FB13
:10599000A84250D12068A268E1685201801800290D
:1059A00002D08847002807D0012803D12068A168C9
:1059B0004901401800F074FAA068401CA0602168FA
:1059C0000029D8D137E02069002803D0F1784908B0
:1059D00000F0D6FA2068002827D0A06861688842C5
:1059E00023D201F041FB00281FD101F0C9FAA842DF
:1059F00003D101F0EFFAA84217D12068A268E1684C
:105A000052018018002902D08847002807D00128B9
:105A100003D12068A1684901401800F041FAA0684C
:105A2000401CA06021680029D8D16068A16881422B
:105A300001D301F019FB01F017FB002801D100F0A0
:105A400087F8012001B0F0BDB0180020B01C002084
:105A5000AC18002010B58CB06C46204603F05EFEFA
:105A6000A0850D49084206D1684601F025FB0A9041
:105A7000FF2001F0E1FA01F013FB6946884202D1F0
:105A80000A9801F019FB6846808D002801D10CB0FE
:105A900010BD00F043F8C046FFFF000080B50020B5
:105AA00001F00AFB80BDB0B588420DD9002A14D0A0
:105AB000491E5242401E0023DB431C4654430D5DE9
:105AC0000555521CF9D108E0002A06D000239CB2EB
:105AD0000D5D05555B1C521EF9D1B0BD80B50B465E
