:02000004C0D06A
:1000000070B58CB062B61D4D0024B0222846214642
:1000100005F0CAFD05F01AFD01AE304609F0C8FA38
:10002000308580B2002806D01028EDD005F0EAFC1B
:1000300000200CB070BD01A805F00BFD05F0AEFF6F
:100040000F48784407F08CF8407801280BD06D46B3
:100050002C70012068700B48784407F081F8022268
:10006000294607F0BFF8002008F084FE012008F0C0
:1000700081FE04F0F5FB05F087F9C046B0180020BA
:100080003AA7000024A70000F0B583B017460E463B
:10009000029009F0D7FA0190304609F0D3FA0090A7
:1000A000002520223846294605F07EFD3C462034B6
:1000B00080222046294605F077FD38463146009AD1
:1000C00005F07BFD20460299019A05F076FD03B00C
:1000D000F0BD0000F0B585B01E4620292AD9049055
:1000E0000392104609F0AEFA0746212F25D20B984D
:1000F00002900A980190002520223046294605F0FA
:1001000053FD3446203480222046294605F04CFD1C
:10011000304603993A4605F050FD21257F23049887
:100120002946224604F018F801990D6002990860EA
:1001300005B0F0BD0448784401E00448784406F076
:1001400059FC012005F0EDFD92960000B1960000EB
:10015000F0B585B01E46012933D9039002921046AE
:1001600009F070FA0446212C2ED20B9801900A98BF
:100170000090002520223046294605F015FD37461F
:10018000203780223846294605F00EFD3046029978
:10019000224605F012FD04AC0225204603992A46AA
:1001A00005F00BFD23887F210BA2384606F0C8FD21
:1001B00000980560384609F045FA0199086005B0D5
:1001C000F0BD0648784401E00548784406F012FC8A
:1001D000012005F0A6FDC04625640000049600003D
:1001E00023960000F0B585B01E46032932D903904E
:1001F0000292104609F026FA0446212C2DD20B98C3
:1002000001900A980090002520223046294605F0EA
:10021000CBFC3746203780223846294605F0C4FCFF
:1002200030460299224605F0C8FC04A8042403992C
:10023000224605F0C2FC049B7F210BA2384606F043
:100240007FFD00980460384609F0FCF901990860C8
:1002500005B0F0BD0548784401E00548784406F053
:10026000C9FB012005F05DFD2564000072950000CA
:1002700091950000F0B587B01E46072931D903904B
:100280000292104609F0DEF90446212C2CD20D987A
:1002900001900C980090002520223046294605F058
:1002A00083FC3746203780223846294605F07CFCFF
:1002B00030460299224605F080FC04A808240399E0
:1002C000224605F07AFC059904983A4604F030F885
:1002D00000980460384609F0B5F90199086007B044
:1002E000F0BD0548784401E00448784406F082FBFC
:1002F000012005F016FDC046E494000003950000BF
:10030000F0B589B01E460F292FD9039002921046EE
:1003100009F098F90746212F2AD20F9801900E98DC
:100320000090002520223046294605F03DFC344649
:10033000203480222046294605F036FC30460299BA
:100340003A4605F03AFC04AD102628460399324699
:1003500005F033FC7F222846214603F06FFE00990A
:100360000E600199086009B0F0BD0548784401E0CD
:100370000448784406F03EFB012005F0D2FCC0465C
:100380005C9400007B940000F0B585B01C4603919E
:1003900002900192104609F055F90546212D2CD204
:1003A000002720222046394605F0FEFB264620364F
:1003B00080223046394605F0F7FB204601992A464F
:1003C00005F0FBFB049704AA029F3846039D2946CB
:1003D00003F080FE0446049A802A11D23846AA42CD
:1003E00010D80B9D0A9F0119304605F0E6FB0498D2
:1003F00001193960286005B0F0BD1048784403E069
:1004000004A001E00E48784406F0F4FA012005F05B
:1004100088FCC0467061727365416374696F6E4495
:1004200061746120496E73756666696369656E748F
:1004300020627566666572670A000000F19300002D
:10044000C2930000F0B585B01C4615460E4600214B
:100450000491039103A96A46516004A91160471CE5
:100460001D4A7A4438463146FFF78EFF002D2DD0C5
:10047000049803A96A46516004A911603F18361A0E
:10048000164A7A44384631462346FFF77DFF012D50
:100490001CD0049803A96A46516004A911603F1852
:1004A000361A0F4A7A44384631462346FFF76CFF26
:1004B000022D0BD0049903A86A46506004A810606E
:1004C0007818711A02A22346FFF742FE05B0F0BD6C
:1004D0005765696768740000AB9300009193000052
:1004E00076930000F0B585B01C4615460E460021F7
:1004F0000491039103A96A46516004A91160471C45
:1005000033A238463146FFF73FFF002D5ED00498F6
:1005100003A96A46516004A911603F18361A30A237
:10052000384631462346FFF72FFF012D4ED0049861
:1005300003A96A46516004A911603F18361A304A6F
:100540007A44384631462346FFF71EFF022D3DD040
:10055000049803A96A46516004A911603F18361A2D
:10056000284A7A44384631462346FFF70DFF032DCB
:100570002CD0049803A96A46516004A911603F1861
:10058000361A1BA2384631462346FFF7FDFE042DDE
:100590001CD0049803A96A46516004A911603F1851
:1005A000361A15A2384631462346FFF7EDFE052DD3
:1005B0000CD0049903A86A46506004A8106078180B
:1005C000711A114A7A442346FFF7DEFE05B0F0BDEA
:1005D000506172656E7420417574686F720000001E
:1005E000506172656E74205065726D6C696E6B003F
:1005F0005469746C65000000426F6479000000006B
:10060000D3920000B89200005F920000F0B585B070
:100610001C4615460E4600210491039103A96A4623
:10062000516004A91160471C1D4A7A44384631467E
:10063000FFF7AAFE002D2FD0049803A96A46516047
:1006400004A911603F18361A14A2384631462346D1
:10065000FFF79AFE012D1FD0049A03A8694648604F
:1006600004A808600292BF1810210E4A7A44384646
:100670002346FFF745FE022D0ED0049903A86A46D3
:10068000506004A810607818029AB21A511A064AEB
:100690007A442346FFF778FE05B0F0BD546F0000A2
:1006A00007920000CA910000AD910000F0B585B03E
:1006B0001C4615460E4600210491039103A96A4683
:1006C000516004A91160471C134A7A4438463146E8
:1006D000FFF75AFE002D1BD0049803A96A4651600B
:1006E00004A911603F18311A0AA238462346FFF7C1
:1006F0004BFE012D0CD0049803A96A46516004A951
:10070000116038181021054A7A442346FFF7F8FD96
:1007100005B0F0BD546F0000679100002E910000FD
:1007200070B584B01C46154600220392029202AABC
:100730006B465A6003AA1A60461C0B4A7A4430463C
:100740002346FFF721FE002D0CD0039802A96A462C
:10075000516003A9116030181021044A7A442346DD
:10076000FFF7CEFD04B070BD06910000EE900000D2
:10077000F0B587B01C4615460E460021069105913E
:1007800005A96A46516006A91160471C3B4A7A4494
:1007900038463146FFF7F8FD002D4ED0069805A9E2
:1007A0006A46516006A911603F18361A344A7A44E5
:1007B000384631462346FFF715FD012D3DD005A8EB
:1007C0006946486006A808603F1D10211CA23846F3
:1007D0002346FFF795FD022D2FD0069A05A86946FE
:1007E000486006A808600492BF18102118A2384675
:1007F0002346FFF785FD032D1FD00699785C01285D
:10080000039102D02048784401E01E48784414A1A6
:100810002246FFF739FC039BF818042D0DD005A9DB
:100820006A46516006A91160711F049A891AC91A93
:10083000401C0FA22346FFF7D5FC07B0F0BDC04611
:10084000416D6F756E7420546F2053656C6C0000A1
:100850004D696E20546F20526563656976650000AE
:1008600046696C6C206F72204B696C6C0000000054
:1008700045787069726174696F6E0000CB900000FA
:10088000B19000005C90000067900000F0B585B06A
:100890001C4616460D4600210491039103A96A46A1
:1008A000516004A91160471C0B4A7A443846294616
:1008B000FFF76AFD002E0CD0049903A86A46506029
:1008C00004A810607818691A044A7A442346FFF78E
:1008D00089FC05B0F0BDC046AF8F0000958F0000C9
:1008E000F0B585B01C4615460E46002104910391D3
:1008F00003A96A46516004A91160471C12A2384638
:100900003146FFF741FD002D1BD0049803A96A462C
:10091000516004A911603F18361A0EA238463146BC
:100920002346FFF7EDFC012D0BD0049903A86A467E
:10093000506004A810607818711A08A22346FFF7C7
:10094000DFFC05B0F0BDC0465075626C6973686528
:1009500072000000426173650000000051756F7401
:1009600065000000F0B585B01C4615460E46002116
:100970000491039103A96A46516004A91160471CC0
:10098000134A7A4438463146FFF7FEFC002D1CD04E
:10099000049803A96A46516004A911603F18311AEE
:1009A0000C4A7A4438462346FFF71CFC012D0CD034
:1009B000049803A96A46516004A9116038181021EF
:1009C000054A7A442346FFF79BFC05B0F0BDC046BC
:1009D000D78E0000D18E0000748E0000F0B5B5B047
:1009E00017460C46002134910991339133A96A4688
:1009F000516034A91160461CF9A2304621460C937F
:100A0000FFF77EFC3498251A3418002F00D1E4E15A
:100A100033A86946486034A80860F24A7A44204600
:100A200029460C9BFFF7B0FC34982E1A2518012F8D
:100A300000D1D2E133A86946486034A80860EA4A88
:100A40007A44284631460C9BFFF79EFC3498311AB5
:100A50002E18022F00D1C0E1039733A86A465060D8
:100A600034A81060E14A7A4430460C9D08912B4628
:100A7000FFF7B8FB34980790203513A88027DC4A8D
:100A80007A4439462B4606F05BF90B952846099CBB
:100A900021463A4605F088F812AD2C70079C3619AD
:100AA00001222846314605F088F80898401E011BAF
:100AB000741C287800280A9748D0099E059407914D
:100AC00033AA09926846426034AA06920260C94A73
:100AD0007A44089220460C9BFFF756FC349D13AFD6
:100AE000384608F0AFFD69460B9A0A603C180A992F
:100AF000091AF0B2431CC04A7A44204606F020F995
:100B00006846069901600999416005984119099163
:100B10000798441B08462146089A0C9BFFF718FBD0
:100B2000349D384608F08EFD3B180A99091AB34ADD
:100B30007A4418460B9B06F003F9611B0998441987
:100B4000761CF0B212AA12789042B7D311AF0025EA
:100B50003D700E4601223846214605F02EF8721EE1
:100B6000631C387800284BD0A54878440790A548E6
:100B700078440590A448784404900893099233A9D6
:100B800006916846416034AE066018461146079AE1
:100B90000C9BFFF79FFA349C13AF384608F052FDC8
:100BA00069460B9A0A603A180A99091AE8B2431C76
:100BB0001046059A06F0C4F868460660069941603A
:100BC0000898011908910998041B08462146079ABC
:100BD0000C9BFFF7BDFA349E384608F033FD3A18F7
:100BE0000A99091A1046049A0B9B06F0A9F8A21B51
:100BF000089883196D1CE8B211A909788842BCD302
:100C00000398032800D1DCE013AF00210791802670
:100C100038461446099432461D46089504F0C4FF30
:100C200033A86946486034A80860784A7A44284660
:100C300021460C9BFFF7D6FA349CFD4A7A4438468D
:100C400031460B9D2B4606F07BF82846079D29462A
:100C50000A96324604F0A8FF10AF3D7008980619B6
:100C600001223846314604F0A8FF0998401E041BB3
:100C7000731C3878002847D005940693079533A94C
:100C800009916846416034AE0660F74A7A4408929A
:100C9000184621460C9BFFF777FB349D13AF38466F
:100CA00008F0D0FC69460B9A0A603C180A99091AA8
:100CB0000798C0B2431CED4A7A44204606F040F83B
:100CC0006846066009994160069846190598441BD4
:100CD00030462146089A0C9BFFF73AFA349D384675
:100CE00008F0B0FC3B180A99091AE14A7A44184600
:100CF0000B9B06F025F8641B7319079D6D1CE8B269
:100D000010A909788842B7D30FAF00253D700122A2
:100D1000384619461E4604F050FF621E731C387890
:100D200000284BD0C34878440790C34878440590C6
:100D3000C248784404900893099233A90691684602
:100D4000416034AC046018461146079A0C9BFFF7CB
:100D5000C1F9349F13AE304608F074FC69460B9A13
:100D60000A6032180A99091AE8B2431C1046059A1B
:100D700005F0E6FF68460460069941600898C119CD
:100D800008910998C71B08463946079A0C9BFFF73C
:100D9000DFF9349C304608F055FC32180A99091ADC
:100DA0001046049A0B9B05F0CBFF3A1B08980319D9
:100DB0006D1CE8B20FA909788842BCD303980428B7
:100DC00026D1002180240B9D2846224604F0ECFE0B
:100DD00013A92846224604F0F0FE35B0F0BDC04607
:100DE00046656500628E0000468E0000A08E000001
:100DF000178E0000368E0000AD8D00007F8D000044
:100E00009C8D0000468D0000398D0000948C000000
:100E100013A80790002680243146099222461F46D7
:100E2000089704F0C1FE0B9D28463146224604F087
:100E3000BBFE33A86946486034A80860804A7A44FB
:100E4000384609990C9BFFF7CDF9349F7D4A7A44C7
:100E5000079821462B4605F073FF284631460A9431
:100E6000224604F0A1FE0EAD2E700898C41901228E
:100E70002846214604F0A1FE0998401EC11B641CAF
:100E80002878002846D005940691099633AA08923E
:100E90006846426034AE0660704A7A440792204643
:100EA0000C9BFFF771FA349D13AF384608F0CAFB6C
:100EB00069460B9A0A603C180A99091A0998C0B247
:100EC000431C674A7A44204605F03AFF68460660AC
:100ED00008994160059846190698441B30462146FA
:100EE000079A0C9BFFF734F9349D384608F0AAFBAB
:100EF0003B180A99091A5B4A7A4418460B9B05F07D
:100F00001FFF611B7419099E761CF0B20EAA12789D
:100F10009042B8D30DAF00263E700D4601223846F0
:100F2000214604F04AFE691E601C3A78002A4BD024
:100F3000454A7A440992454A7A440592444A7A4499
:100F400004920F460697079033AA089269464A60B2
:100F500034AD0D603946099A0C9BFFF7BBF8349C01
:100F600013AF384608F06EFB69460B9A0A603A18D0
:100F70000A99091AF0B2431C1046059A05F0E0FEE2
:100F8000684605600899416007980019089006991D
:100F90000C1B2146099A0C9BFFF7DAF8349D384662
:100FA00008F050FB3A180A99091A1046049A0B9B4C
:100FB00005F0C6FE671B08984019761CF2B20DA911
:100FC00009788A42BED300E00F4605460021802200
:100FD0000B9E304604F0E8FD039C052C03D113A9B9
:100FE00080223046F7E633A86946486034A8086096
:100FF000184A7A442E46304639460C9D2B46FFF758
:1010000069F8062C00D1E8E6349C002180220B9878
:1010100004F0CAFD33A86946486034A80860301956
:10102000391B0D4A7A442B46FFF7AEF9D5E6C04688
:101030005B8C00009A8B00008A8B00007D8B000087
:101040008E8A0000498A00009A8900007E8900008B
:1010500071890000E7880000FF870000328A0000E5
:10106000E1890000B7890000348C0000FE8B00008D
:10107000C38B0000F0B5B5B01F4616460C91002496
:101080003494339433A96A46516034A91160451CE5
:101090001021E84A7A442846FFF776F934980C99EB
:1010A000091A28180396002E00D1C0E133AB6A4616
:1010B000536034AB1360E04A7A44099108903B4690
:1010C000FFF790F8349E0B973D46203513A88027F4
:1010D000DA4A7A4439462B4605F032FE0C9528460A
:1010E00021463A4604F060FD12AD07942C70344658
:1010F0000898061901222846314604F05EFD099839
:10110000401E011B741C287800280A9748D0079EAF
:101110000594079133AA09926846426034AA069260
:101120000260C74A7A44089220460B9BFFF72CF9CD
:10113000349D13AF384608F085FA69460C9A0A6068
:101140003C180A99091AF0B2431CBE4A7A44204658
:1011500005F0F6FD68460699016009994160059819
:10116000411909910798441B08462146089A0B9B90
:10117000FEF7EEFF349D384608F064FA3B180A99F2
:10118000091AB14A7A4418460C9B05F0D9FD611B37
:1011900009984419761CF0B212AA12789042B7D37B
:1011A00011AF00253D700E4601223846214604F05D
:1011B00004FD721E631C387800284BD0A348784485
:1011C0000790A34878440590A24878440490089377
:1011D000099233A906916846416034AE066018460C
:1011E0001146079A0B9BFEF775FF349C13AF3846E8
:1011F00008F028FA69460C9A0A603A180A99091AFE
:10120000E8B2431C1046059A05F09AFD6846066050
:10121000069941600898011908910998041B08462D
:101220002146079A0B9BFEF793FF349E384608F041
:1012300009FA3A180A99091A1046049A0C9B05F003
:101240007FFDA21B089883196D1CE8B211A90978CB
:101250008842BCD30398012800D1DCE013AF002101
:101260000791802638461446099432461D46089553
:1012700004F09AFC33A86946486034A80860FE4A26
:101280007A44284621460B9BFEF7ACFF349CFB4A70
:101290007A44384631460C9D2B4605F051FD2846D0
:1012A000079D29460A96324604F07EFC10AF3D7039
:1012B0000898061901223846314604F07EFC099848
:1012C000401E041B731C3878002847D005940693F1
:1012D000079533A909916846416034AE0660F54A26
:1012E0007A440892184621460B9BFFF74DF8349D2F
:1012F00013AF384608F0A6F969460C9A0A603C1804
:101300000A99091A0798C0B2431CEB4A7A4420464E
:1013100005F016FD68460660099941600698461971
:101320000598441B30462146089A0B9BFEF710FF98
:10133000349D384608F086F93B180A99091ADF4AA5
:101340007A4418460C9B05F0FBFC641B7319079D3F
:101350006D1CE8B210A909788842B7D30FAF0025F9
:101360003D700122384619461E4604F026FC621ED6
:10137000731C387800284BD0C14878440790C14886
:1013800078440590C048784404900893099233A9A2
:1013900006916846416034AC046018461146079ACD
:1013A0000B9BFEF797FE349F13AE304608F04AF9C8
:1013B00069460C9A0A6032180A99091AE8B2431C65
:1013C0001046059A05F0BCFC684604600699416029
:1013D0000898C11908910998C71B08463946079A09
:1013E0000B9BFEF7B5FE349C304608F02BF9321803
:1013F0000A99091A1046049A0C9B05F0A1FC3A1BA5
:10140000089803196D1CE8B20FA909788842BCD36B
:101410000398022820D1002180240C9D28462246D2
:1014200004F0C2FB13A92846224604F0C6FB35B0DF
:10143000F0BDC046AE8700004E880000C5870000A2
:10144000E2870000598700002B87000048870000D2
:10145000F2860000E586000013A80790002680248D
:101460003146099222461F46089704F09DFB0C9DC9
:1014700028463146224604F097FB33A86946486067
:1014800034A80860814A7A44384609990B9BFEF7D4
:10149000A9FE349F7E4A7A44079821462B4605F0E0
:1014A0004FFC284631460A94224604F07DFB0EADDF
:1014B0002E700898C41901222846214604F07DFBAD
:1014C0000998401EC11B641C2878002846D005944A
:1014D0000691099633AA08926846426034AE0660C7
:1014E000714A7A44079220460B9BFEF74DFF349DCC
:1014F00013AF384608F0A6F869460C9A0A603C1803
:101500000A99091A0998C0B2431C684A7A442046CD
:1015100005F016FC68460660089941600598461972
:101520000698441B30462146079A0B9BFEF710FE97
:10153000349D384608F086F83B180A99091A5C4A27
:101540007A4418460C9B05F0FBFB611B7419099E3D
:10155000761CF0B20EAA12789042B8D30DAF0026D6
:101560003E700D4601223846214604F026FB691ED6
:10157000601C3A78002A4BD0464A7A440992464A7F
:101580007A440592454A7A4404920F46069707909A
:1015900033AA089269464A6034AD0D603946099A0B
:1015A0000B9BFEF797FD349C13AF384608F04AF8C2
:1015B00069460C9A0A603A180A99091AF0B2431C53
:1015C0001046059A05F0BCFB684605600899416025
:1015D00007980019089006990C1B2146099A0B9B45
:1015E000FEF7B6FD349D384608F02CF83A180A99F3
:1015F000091A1046049A0C9B05F0A2FB671B089879
:101600004019761CF2B20DA909788A42BED300E0D7
:101610000F460546002180220C9E304604F0C4FA95
:10162000039C032C03D113A980223046FDE633A886
:101630006946486034A80860194A7A442E46304604
:1016400039460B9D2B46FEF745FD042C00D1EEE6F6
:10165000349C002180220C9804F0A6FA33A8694635
:10166000486034A808603019391B0E4A7A442B466A
:10167000FEF78AFEDBE6C0464086000007860000D3
:10168000468500003685000029850000468400005C
:10169000018400005283000036830000298300008B
:1016A0009F820000B7810000EA8300009983000058
:1016B0006F830000E0850000AA8500006F850000B0
:1016C000F0B5A9B01C4615460E4600212891279179
:1016D00027A96A46516028A91160471C694A7A44C3
:1016E00038463146FEF750FE002D00D193E0289891
:1016F00027A96A46516028A911603F18361A47A2E7
:10170000384631462346FEF73FFE012D00D182E0E8
:10171000289827A96A46516028A911603F18311AF4
:101720003FA238462346FEF7D5FC022D73D02898F9
:10173000049007AD80263DA22846314605F000FB07
:1017400027A906916846416028A90591016004987F
:1017500038180390102104913AA22346FEF7D0FDD9
:1017600028980290284607F06DFF2B18311A27465B
:10177000203738A218463B4605F0E2FA284607F023
:1017800061FF2B18311A34A2184605F0D9FA6846C1
:1017900005990160069941600398029940180390E9
:1017A000049928A22346FEF71DFD2898029028469A
:1017B00007F048FF2A18311A104626A23B4605F0CA
:1017C000BFFA284607F03EFF2B18311A27A2184609
:1017D00005F0B6FA684605990160069941600398DC
:1017E00002994018049917A22346FEF7B1FC284637
:1017F00007F028FF2A18311A104616A23B4605F0BA
:101800009FFA00213846324604F0CEF93846294680
:10181000324604F0D2F929B0F0BDC04655524C0012
:101820005369676E696E67204B6579004163636F2A
:10183000756E74204372656174696F6E20466565CC
:101840003A2000005769746E6573732050726F7090
:101850007300000025730000202D204D6178204288
:101860006C6F636B2053697A653A2000202D204805
:10187000424420496E7465726573742052617465C8
:101880003A2000007B810000F0B585B01C4615466B
:101890000E4600210491039103A96A46516004A9F0
:1018A0001160471C154A7A4438463146FEF76CFDF4
:1018B000002D1CD0049803A96A46516004A9116048
:1018C0003F18311A0BA238462346FEF75DFD012D65
:1018D0000DD00498385C012802D00A48784401E011
:1018E00007487844084979442246FEF7CDFB05B005
:1018F000F0BDC0465769746E657373009C7F00002D
:10190000867F0000917F0000FC7F0000F0B585B06D
:101910001C4616460D4600210491039103A96A4610
:10192000516004A91160471C0C4A7A443846294684
:10193000FEF72AFD002E0BD0049903A86A465060DA
:1019400004A810607818691A02A22346FEF71CFD4D
:1019500005B0F0BD50726F7879000000187F00006C
:10196000F0B585B01C4616460D4600210491039142
:1019700003A96A46516004A91160471C0B4A7A44C6
:1019800038462946FEF700FD002E0CD0049903A826
:101990006A46506004A810607818691A044A7A44AC
:1019A0002346FEF7F1FC05B0F0BDC046957E000071
:1019B0007C7E0000F0B5ABB0069302920E46002488
:1019C00029940894471C042108AA384602F082FB97
:1019D00005462A9509A880215DA2059105F0B0F978
:1019E0000699761B7F19089800282AD008462030CF
:1019F00004900D4629A8694648602AA80860384620
:101A0000314654A22B46FEF7BFFC09AD284607F02D
:101A100019FE0899491E8C4202D0574A7A4400E0C8
:101A200050A22B180599091A1846049B05F088F94D
:101A30002A98361A3F18641C08988442069DD9D308
:101A400000E00D4609AC204607F0FCFD231805997F
:101A5000091A45A2184605F073F9029800284FD0DC
:101A600000240794042107AA384602F033FB0546F8
:101A70002A9509A8802136A2059105F061F9761B07
:101A80007F19079800282CD0069D28462030049006
:101A90003A487844039029A8694648602AA8086013
:101AA000384631462BA22B46FEF76EFC09AD284680
:101AB00007F0C8FD0799491E8C4201D0039A00E047
:101AC00028A22B180599091A1846049B05F038F925
:101AD0002A98361A3F18641C07988442069DDAD368
:101AE00000E0069D09AC204607F0ACFD23180599DF
:101AF000091A1DA2184605F023F9029C012C0DD1EC
:101B00002035002180242846224604F04DF809A9FA
:101B10002846224604F051F82BB0F0BD29A86946AA
:101B200048602AA8086011A2384631462B46FEF7C5
:101B30002BFC022CF0D02A9929A86A4650602AA8CA
:101B400010607818711A0AA22B46FEF71DFCE3E715
:101B50005B2000005265717569726564204175747F
:101B60006873000025730000205D000049440000F8
:101B70004A534F4E00000000CE7E0000587E000009
:101B8000F0B5AFB01C4615460E4600212E910A91C5
:101B90002D912DA96A4651602EA91160471C974AC4
:101BA0007A4438463146FEF7EFFB002D00D1EDE0D8
:101BB0002E982DA96A4651602EA911603F18361A39
:101BC0008F4A7A44384631462346FEF7DDFB012D25
:101BD00000D1DBE02E982DA96A4651602EA9116034
:101BE0003F18361A6CA2384631462346FEF788FB6A
:101BF000022D00D1CAE02E982DA96A4651602EA967
:101C000011603F18361A67A2384631462346FEF760
:101C10009FFA032D00D1B9E009942E9C385D01286C
:101C200002D07948784401E07648784460A1099A66
:101C3000FEF72AFA3F19042D00D1A7E07878012891
:101C400002D07348784401E0704878445BA1099A57
:101C5000FEF71AFA781C052D00D197E008942CAFF6
:101C60000A9C3C70451C01223846294603F0A5FF1A
:101C70003878012808D0002800D089E05EA056A15D
:101C8000099AFEF701FA81E0681C697800297FD182
:101C90000BAF3C70451C01223846294603F08DFFEE
:101CA0000CA880214BA2049105F04AF8387800284E
:101CB00055D0701F0899411A099E20366D1C049F4B
:101CC000039607910A942DAA0892684642602EAAAC
:101CD00006920260284640A2099BFEF755FB2E980B
:101CE000059034460CAE304607F0ACFC3218391A79
:101CF00010463DA2234605F023F868460699016088
:101D000008994160059AA8180799891A08900791BF
:101D100031A2099B0A9CFEF71BFA2E9DE7B23046C2
:101D200007F090FC0BAA1178491E8F42069202D050
:101D3000384A7A4400E02EA23318049F391A184614
:101D4000039E334604F0FCFF0798411B0898451991
:101D5000641CE0B2069A12789042B2D302E0099E67
:101D60002036049F0CAD284607F06CFC2B18391A5E
:101D700020A2184604F0E4FF002130463A4603F062
:101D800013FF304629463A4603F017FF2FB0F0BD47
:101D9000012003F0C6FFC0464D6178205061796F85
:101DA0007574000050657263656E7420484244008B
:101DB000416C6C6F7720566F74657300416C6C6F6B
:101DC00077204375726174696F6E20526577617216
:101DD000647300005B20000042656E65666963699C
:101DE00061726965730000002573202D20000000DA
:101DF00025730000205D00005B5D0000737C000027
:101E0000587C00003E7C0000497C00001E7C0000E5
:101E1000297C0000B87B0000F0B585B01C46154653
:101E20000E4600210491039103A96A46516004A95A
:101E30001160471C1AA238463146FEF7A5FA002D5C
:101E40002BD0049803A96A46516004A911603F1879
:101E5000361A17A2384631462346FEF795FA012D69
:101E60001BD0049803A96A46516004A911603F1869
:101E7000311A12A238462346FEF7B4F9022D0CD0CF
:101E80000498385C012802D01248784401E01048D8
:101E900078440CA12246FEF7F7F805B0F0BDC04625
:101EA00046726F6D204163636F756E7400000000B1
:101EB000546F204163636F756E74000050657263E8
:101EC000656E74004175746F766573740000000070
:101ED000D8790000E379000070B584B01C4615463F
:101EE00000220392029202AA6B465A6003AA1A6069
:101EF000461C0C4A7A4430462346FEF745FA012D2B
:101F00000BD0039802A96A46516003A911603018EA
:101F1000102103A22346FEF7F3F904B070BDC046BA
:101F2000466565008A790000F0B5B5B01F461646D3
:101F30000C46002134910991339133A96A465160CE
:101F400034A91160451CF04A7A4428462146FEF720
:101F50001BFA3498241A2D18002E00D1D2E133A890
:101F60006946486034A80860E84A7A442846214611
:101F70003B46FEF709FA3498211A2818012E00D1A1
:101F8000C0E1039633AB6A46536034AB1360E04A5A
:101F90007A44089107903B46FEF724F9349C0B974E
:101FA0003D46203513A88027DA4A7A4439462B4625
:101FB00004F0C6FE0C952846099E31463A4603F0C9
:101FC000F3FD12AD2E7007980619012228463146FE
:101FD00003F0F3FD0898401E011B741C28780028AC
:101FE0000A9748D0099E0594079133AA099268463A
:101FF000426034AA06920260C74A7A440892204698
:102000000B9BFEF7C1F9349D13AF384607F01AFB5E
:1020100069460C9A0A603C180A99091AF0B2431CE6
:10202000BE4A7A44204604F08BFE68460699016059
:10203000099941600598411909910798441B084680
:102040002146089A0B9BFEF783F8349D384607F02B
:10205000F9FA3B180A99091AB14A7A4418460C9BB6
:1020600004F06EFE611B09984419761CF0B212AAA6
:1020700012789042B7D311AF00253D700E46012271
:102080003846214603F099FD721E631C38780028FB
:102090004BD0A44878440790A34878440590A348BF
:1020A000784404900893099233A9069168464160E8
:1020B00034AE066018461146079A0B9BFEF70AF8E5
:1020C000349C13AF384607F0BDFA69460C9A0A6093
:1020D0003A180A99091AE8B2431C1046059A04F006
:1020E0002FFE68460660069941600898011908911C
:1020F0000998041B08462146079A0B9BFEF728F80F
:10210000349E384607F09EFA3A180A99091A104682
:10211000049A0C9B04F014FEA21B089883196D1CF2
:10212000E8B211A909788842BCD30398022800D1EB
:10213000DCE013AF0021079180263846144609944D
:1021400032461D46089503F02FFD33A869464860C6
:1021500034A80860764A7A44284621460B9BFEF74D
:1021600041F8349CFB4A7A44384631460C9D2B4654
:1021700004F0E6FD2846079D29460A96324603F0FC
:1021800013FD10AF3D7008980619012238463146FC
:1021900003F013FD0998401E041B731C38780028B7
:1021A00047D005940693079533A909916846416085
:1021B00034AE0660F54A7A440892184621460B9BD5
:1021C000FEF7E2F8349D13AF384607F03BFA694654
:1021D0000C9A0A603C180A99091A0798C0B2431C65
:1021E000EB4A7A44204604F0ABFD68460660099944
:1021F0004160069846190598441B30462146089AC6
:102200000B9BFDF7A5FF349D384607F01BFA3B18E2
:102210000A99091ADF4A7A4418460C9B04F090FD8B
:10222000641B7319079D6D1CE8B210A909788842D8
:10223000B7D30FAF00253D700122384619461E4620
:1022400003F0BBFC621E731C387800284BD0C248D8
:1022500078440790C14878440590C1487844049078
:102260000893099233A906916846416034AC046032
:1022700018461146079A0B9BFDF72CFF349F13AEAF
:10228000304607F0DFF969460C9A0A6032180A995D
:10229000091AE8B2431C1046059A04F051FD68463D
:1022A0000460069941600898C11908910998C71BF4
:1022B00008463946079A0B9BFDF74AFF349C304687
:1022C00007F0C0F932180A99091A1046049A0C9BB3
:1022D00004F036FD3A1B089803196D1CE8B20FA9EB
:1022E00009788842BCD30398032823D10021802495
:1022F0000C9D2846224603F057FC13A92846224687
:1023000003F05BFC35B0F0BD367900001C790000AD
:1023100076790000ED7800000C79000083780000E9
:1023200055780000727800001C7800000F780000DB
:102330006A77000013A8079000268024314609928E
:1023400022461F46089703F02FFC0C9D2846314675
:10235000224603F029FC33A86946486034A8086087
:10236000804A7A44384609990B9BFDF73BFF349F1E
:102370007D4A7A44079821462B4604F0E1FC284622
:1023800031460A94224603F00FFC0EAD2E700898D9
:10239000C41901222846214603F00FFC0998401E6B
:1023A000C11B641C2878002846D005940691099624
:1023B00033AA08926846426034AE0660704A7A4496
:1023C000079220460B9BFDF7DFFF349D13AF384685
:1023D00007F038F969460C9A0A603C180A99091AFC
:1023E0000998C0B2431C674A7A44204604F0A8FC0E
:1023F0006846066008994160059846190698441B8E
:1024000030462146079A0B9BFDF7A2FE349D3846C5
:1024100007F018F93B180A99091A5B4A7A441846DA
:102420000C9B04F08DFC611B7419099E761CF0B2A4
:102430000EAA12789042B8D30DAF00263E700D461A
:1024400001223846214603F0B8FB691E601C3A7829
:10245000002A4BD0454A7A440992454A7A4405926B
:10246000444A7A4404920F460697079033AA08928A
:1024700069464A6034AD0D603946099A0B9BFDF7F9
:1024800029FE349C13AF384607F0DCF869460C9AF5
:102490000A603A180A99091AF0B2431C1046059AC4
:1024A00004F04EFC684605600899416007980019E1
:1024B000089006990C1B2146099A0B9BFDF748FED4
:1024C000349D384607F0BEF83A180A99091A1046A2
:1024D000049A0C9B04F034FC671B08984019761C86
:1024E000F2B20DA909788A42BED300E00F46054634
:1024F000002180220C9E304603F056FB039C042CE6
:1025000003D113A980223046FAE633A86946486011
:1025100034A80860184A7A442E46304639460B9D46
:102520002B46FDF7D7FD052C00D1EBE6349C0021AE
:1025300080220C9803F038FB33A86946486034A821
:1025400008603019391B0D4A7A442B46FDF71CFFF1
:10255000D8E6C04631770000707600006076000053
:10256000537600006A75000025750000767400003F
:102570005A7400004D740000C3730000DB72000049
:102580000E750000BD740000937400000A7700000F
:10259000D476000099760000F0B5AFB01D460A92DF
:1025A0000C4600212E9107912D912DA96A4651606C
:1025B0002EA91160471C7FA238462146FDF7E4FE94
:1025C0002E98261A3C182F460A9D002D00D1EEE0C9
:1025D0002DA8694648602EA808607B4A7A442046A8
:1025E00031463B46FDF7D0FE2E98311A2418012DB6
:1025F00000D1DCE02DA86A4650602EA81060734A16
:102600007A44204606913B46FDF7ECFD3D462E9F61
:10261000099520350DA880266D4A7A4431462B460F
:1026200004F08EFB0A952846079D294608963246F7
:1026300003F0BAFA0CAE3570E5190122304629468E
:1026400003F0BBFA0698401EC11B6F1C30780028AF
:1026500048D0079D039705912DAA079268464260CE
:102660002EAA049202605B4A7A4406923846099B7D
:10267000FDF78AFE2E9F0DAE304606F0E3FF694659
:102680000A9A0A6034180899091AE8B2431C524A97
:102690007A44204604F054FB684604990160079987
:1026A00041600398C11907910598C41B084621464B
:1026B000069A099BFDF74CFD2E9F304606F0C2FF9F
:1026C00033180899091A454A7A4418460A9B04F0B7
:1026D00037FBE11B0798C7196D1CE8B20CAA1278EA
:1026E0009042B7D30D460BAE002434700122304621
:1026F000394603F062FA307800284CD07F1C691EFE
:1027000037487844079037487844039036487844EF
:10271000029005912DAA0692684642602EAA049264
:1027200002603846079A099BFDF7D4FC2E9D0DAE3A
:10273000304606F087FF69460A9A0A6032180899FF
:10274000091AE0B2431C1046039A04F0F9FA6846ED
:102750000499016006994160791906910598451B15
:1027600008462946079A099BFDF7F2FC2E9F304642
:1027700006F068FF32180899091A1046029A0A9B57
:1027800004F0DEFAE91B0698C719641CE0B20BAA34
:1027900012789042BDD3002180240A9D284622460B
:1027A00003F002FA0DA92846224603F006FA2FB0DC
:1027B000F0BDC0465265636F7665727920416363F0
:1027C0006F756E7400000000137300000273000048
:1027D0007D7200009A72000015720000E77100001F
:1027E00000720000AE710000A1710000F0B5B3B03E
:1027F0001E4617460C46002132910991319131A9AC
:102800006A46516032A91160451CEB4A7A44284659
:102810002146FDF7B9FD3298211A2D18002F00D15D
:10282000BDE1039731A86A46506032A81060E34AC0
:102830007A44284608913346FDF7D4FC3298079035
:102840000B96203611A88024DD4A7A44214633466F
:1028500004F076FA0C963046099F39460A942246CF
:1028600003F0A2F910AE3770079C2D1901223046F3
:10287000294603F0A2F90898401E041B6B1C30780F
:1028800000284AD00B9E05940893099731A9079117
:102890006846416032AD0560CA4A7A4406921846DD
:1028A00021463346FDF770FD329E11AF384606F0E3
:1028B000C9FE69460C9A0A603C180A99091A0998D7
:1028C000C0B2431CC04A7A44204604F039FA684634
:1028D000056007994160089885190598841B28466A
:1028E0002146069A0B9BFDF733FC329E384606F0D4
:1028F000A9FE3B180A99091AB44A7A4418460C9B57
:1029000004F01EFAA41B099FAB190B9E7F1CF8B2A2
:1029100010A909788842B6D300E00B9E08930FAF48
:1029200000253D7001223846194603F046F9611E24
:102930000898431C387800284DD0A5487844079063
:10294000A44878440590A4487844049008930991D9
:1029500031AA06926846426032AC04601846079A73
:102960003346FDF7B7FB329E11AF384606F06AFEDC
:1029700069460C9A0A603A180A99091AE8B2431C87
:102980001046059A04F0DCF9684604600699416037
:102990000898811908910998861B08463146079ABC
:1029A0000B9BFDF7D5FB329C384606F04BFE3A18E0
:1029B0000C9F0A99091A1046049A3B4604F0C0F984
:1029C000311B0B9E089803196D1CE8B20FAA1278F0
:1029D0009042BBD300E00C9F0398012808D100214E
:1029E00080243846224603F0DFF811A93846D3E0A8
:1029F00031A86A46506032A810606AA21846099150
:102A000008933346FDF7EEFB329C11A88025734AEC
:102A10007A4429463B4604F093F90026384631466D
:102A20000A952A4603F0C0F80EAF3E7008980519C3
:102A300001223846294603F0C0F80998401E011BC0
:102A40006B1C3878002846D00C9C0793099131AA5A
:102A500008926846426032AF0760184651A20B9B4D
:102A6000FDF792FC3298069011AD284606F0EAFD7B
:102A700069460C602C180A99091AF0B2431C584A8E
:102A80007A44204604F05CF9684607600899416082
:102A900007980699421808920998441A1046214648
:102AA00040A20B9BFDF754FB329F284606F0CAFD5F
:102AB0002B180A99091A4B4A7A4418460C9B04F0C1
:102AC0003FF9E11B0C9C0898C319761CF0B20EAAC2
:102AD00012789042B9D309910DAF00263E700122C1
:102AE000384619461C4603F068F8387800284AD062
:102AF000651C0998411E3C48784406903B48784440
:102B00000590089131AA09926846426032AA07925C
:102B10000260284623A20B9BFDF7DCFA329F11AC22
:102B2000204606F08FFD69460C9A0A6022180A9921
:102B3000091AF0B2431C1046069A04F001F96846DF
:102B40000799016009994160E91909910898C71B23
:102B50000846394613A20B9BFDF7FAFA329D204630
:102B600006F070FD22180A99091A1046059A0C9B66
:102B700004F0E6F8791B09984519761CF0B20DAA05
:102B800012789042BDD3002180240C9D2846224615
:102B900003F00AF811A92846224603F00EF833B0D4
:102BA000F0BDC046526563656E74204F776E6572E6
:102BB0002041757468000000E3700000D2700000CE
:102BC0004D70000068700000DF6F0000B56F0000FE
:102BD000C66F0000746F0000676F0000876E000012
:102BE000256E0000F76D0000BE6D0000B16D0000A5
:102BF000F0B585B01C4616460D46002104910391A0
:102C000003A96A46516004A91160471C104A7A441E
:102C100038462946FDF7B8FB002E0BD0049903A8CF
:102C20006A46506004A810607818691A02A2234608
:102C3000FDF7AAFB05B0F0BD4E6577205265636FC6
:102C400076657279204163636F756E7400000000D1
:102C5000E16C0000F0B585B01C4615460E4600211B
:102C60000491039103A96A46516004A91160471CAD
:102C70001C4A7A4438463146FDF786FB002D2DD09C
:102C8000049803A96A46516004A911603F18361AD6
:102C900013A2384631462346FDF776FB012D1DD0A1
:102CA000049803A96A46516004A911603F18361AB6
:102CB0000D4A7A44384631462346FDF721FB022D62
:102CC0000CD0049903A86A46506004A810607818D4
:102CD000711A064A7A442346FDF756FB05B0F0BD4B
:102CE000546F0000BF6B0000846B0000696B000034
:102CF000F0B585B01C4615460E460021049103919F
:102D000003A96A46516004A91160471C254A7A4408
:102D100038463146FDF738FB002D3ED0049803A914
:102D20006A46516004A911603F18361A1E4A7A4457
:102D3000384631462346FDF755FA012D2DD004982B
:102D400003A96A46516004A911603F18361A14A2FB
:102D5000384631462346FDF717FB022D1DD0049857
:102D600003A96A46516004A911603F18361A0F4A38
:102D70007A44384631462346FDF7C2FA032D0CD07B
:102D8000049903A86A46506004A810607818711A64
:102D9000074A7A442346FDF7F7FA05B0F0BDC0466E
:102DA000546F0000236B0000456B0000C66A0000F2
:102DB000AB6A0000F0B585B01C4616460D460021F2
:102DC0000491039103A96A46516004A91160471C4C
:102DD0000B4A7A4438462946FDF7D6FA002E0CD025
:102DE000049903A86A46506004A810607818691A0C
:102DF000044A7A442346FDF7F5F905B0F0BDC04614
:102E00005F6A0000816A000070B584B01C461546F8
:102E100000220392029202AA6B465A6003AA1A6029
:102E2000461C0D4A7A4430462346FDF7ADFA002D84
:102E30000CD00398305C012802D00948784401E0A6
:102E40000648784402A12246FDF71EF904B070BD81
:102E50004465636C696E65001E6A0000266A0000A6
:102E6000316A0000F0B5AFB01F4614460D46002190
:102E70002E9107912D912DA96A4651602EA91160BE
:102E8000461C7EA230462946FDF77EFA002C00D172
:102E9000F2E02E982DA96A4651602EA911603618CD
:102EA0002D1A7AA2304629463B46FDF76DFA012CD1
:102EB00000D1E1E02E982DA96A4651602EA911603B
:102EC0003418291A0691764A7A4420463B46FDF783
:102ED00089F92E980590099720370DA88026714A08
:102EE0007A4431463B4603F02BFF0A973846079D4C
:102EF00029460896324602F057FE0CAE3570059F03
:102F0000E51901223046294602F057FE0698401E78
:102F1000C11B6B1C3078002848D0079D0393059196
:102F20002DAA0792684642602EAA049202605E4A69
:102F30007A4406921846099BFDF726FA2E9F0DAE9D
:102F4000304606F07FFB69460A9A0A6034180899F1
:102F5000091AE8B2431C554A7A44204603F0F0FEB1
:102F6000684604990160079941600398C119079167
:102F70000598C41B08462146069A099BFDF7E8F808
:102F80002E9F304606F05EFB33180899091A484A0E
:102F90007A4418460A9B03F0D3FEE11B0798C31935
:102FA0006D1CE8B20CAA12789042B7D30D460BAE56
:102FB000002434700122304619461F4602F0FDFD00
:102FC000307800284CD07F1C691E3A48784407901E
:102FD00039487844039039487844029005912DAAE5
:102FE0000692684642602EAA049202603846079A0A
:102FF000099BFDF76FF82E9D0DAE304606F022FBC3
:1030000069460A9A0A6032180899091AE0B2431C04
:103010001046039A03F094FE6846049901600699ED
:103020004160791906910598451B08462946079A7B
:10303000099BFDF78DF82E9F304606F003FB3218F2
:103040000899091A1046029A0A9B03F079FEE91BB7
:103050000698C719641CE0B20BAA12789042BDD33F
:10306000002180240A9D2846224602F09DFD0DA9DC
:103070002846224602F0A1FD2FB0F0BD52657365CF
:1030800074204163636F756E740000004163636F69
:10309000756E7420546F20526573657400000000D3
:1030A0003A6A0000B7690000D26900004D6900006B
:1030B0001F69000036690000E4680000D76800005E
:1030C000F0B585B01C4615460E46002104910391CB
:1030D00003A96A46516004A91160471C1C4A7A443E
:1030E00038463146FDF750F9002D1BD0049803A94E
:1030F0006A46516004A911603F18361A0AA2384680
:1031000031462346FDF740F9012D0BD0049903A861
:103110006A46506004A810607818711A07A2234606
:10312000FDF732F905B0F0BD437572205265736545
:1031300074204163636F756E740000004E657720E4
:103140005265736574204163636F756E740000008F
:1031500064670000F0B585B01C4615460E46002198
:103160000491039103A96A46516004A91160471CA8
:10317000244A7A4438463146FDF706F9002D2BD013
:10318000049803A96A46516004A911603F18361AD1
:1031900012A2384631462346FDF7B2F8012D1BD066
:1031A000049803A96A46516004A911603F18361AB1
:1031B0000DA2384631462346FDF7A2F8022D0BD06A
:1031C000049903A86A46506004A810607818711A20
:1031D00008A22346FDF794F805B0F0BD526577616B
:1031E0007264204869766500526577617264204890
:1031F000424400005265776172642056455354532F
:1032000000000000D0660000F0B585B01C461546F1
:103210000E4600210491039103A96A46516004A956
:103220001160471C12A238463146FDF7ADF8002D5B
:103230001CD0049803A96A46516004A911603F1884
:10324000361A0EA2384631462346FDF79DF8012D69
:103250000CD0049903A86A46506004A8106078183E
:10326000711A094A7A442346FDF74AF805B0F0BDC1
:1032700044656C656761746F7200000044656C653D
:103280006761746565000000E6650000F0B585B013
:103290001C4615460E4600210491039103A96A4677
:1032A000516004A91160471C414A7A4438463146AE
:1032B000FDF76AF8002D5CD0049803A96A465160B6
:1032C00004A911603F18361A2BA23846314623460E
:1032D000FDF75AF8012D4CD0049803A96A465160B5
:1032E00004A911603F18361A26A2384631462346F3
:1032F000FCF778FF022D3CD0049803A96A46516080
:1033000004A911603F18361A21A2384631462346D7
:10331000FCF768FF032D2CD0049803A96A4651607E
:1033200004A911603F18361A1CA2384631462346BC
:10333000FCF7E6FF042D1CD0049803A96A465160EF
:1033400004A911603F18361A17A2384631462346A1
:10335000FDF71AF8052D0CD0049903A86A465060B1
:1033600004A810607818711A124A7A442346FDF7AF
:103370000BF805B0F0BDC0465265636569766572AD
:103380000000000053746172742044617465000091
:10339000456E642044617465000000004461696CFE
:1033A00079205061790000005375626A656374008A
:1033B000D4650000B0640000F0B5ABB016460F460F
:1033C00000242A942994289429A96A4651602AA99C
:1033D0001160451C3E4A7A44284639460793FCF75B
:1033E000D3FF002E6BD0059704962A9803902D18D2
:1033F000042128AA284600F06DFE07462A9708A84F
:10340000802130A2069103F09BFCEE192898002839
:103410002CD005980399401AC51B079820300590B9
:1034200029A8694648602AA808602A4A7A44304692
:103430002946079BFCF71EFF08AF384606F002F945
:103440002899491E8C4202D0234A7A4400E01EA2E9
:103450003B180699091A1846059B03F071FC2A9837
:103460002D1A3618641C28988442D9D308AC2046FB
:1034700006F0E8F823180699091A14A2184603F072
:103480005FFC049801280DD1079D20350021802480
:103490002846224602F088FB08A92846224602F068
:1034A0008CFB0CE03078012802D00D48784401E014
:1034B0000A4878440B497944079AFCF7E5FD2BB09C
:1034C000F0BDC0465B20000025730000205D0000B9
:1034D00037640000E5640000A0640000B6630000EB
:1034E000C16300002C640000F0B5A9B015460C467D
:1034F000002728972797269727A96A46516028A969
:103500001160461C31A2304621460593FCF73CFF72
:10351000002D59D0289803903618042126AA304649
:1035200000F0D8FD0546289506A880212BA204911D
:1035300003F006FC269800282FD076190398201A4D
:10354000441B059B18462030039027A86946486015
:1035500028A80860244A7A4430462146FCF78AFEAF
:1035600006AD284606F06EF82699491E8F4202D015
:103570001E4A7A4400E01AA22B180499091A184628
:10358000039B03F0DDFB2898241A36187F1C26982D
:103590008742059BD9D3039D01E0059D203506ACEC
:1035A000204606F04FF82318049E311A0DA2184643
:1035B00003F0C6FB00212846324602F0F5FA284601
:1035C0002146324602F0F9FA29B0F0BD50726F7010
:1035D0006F73616C204F776E657200005B20000096
:1035E00025730000205D0000BB63000078630000CD
:1035F000F0B581B01E4617460D4604469320820062
:103600000021204602F0D0FA6560A7604920C00082
:1036100026500120207091208000069921542846D0
:1036200003F040FEA06803F03DFE01B0F0BD0000D5
:1036300080B5426B002A07D0036B19785B1C521EC1
:1036400003634263084680BD02A003F0D3F9012062
:1036500002F067FB726561645478427974652055A5
:103660006E646572666C6F770A00000010B50C46D8
:1036700002464920C000235818782233216A443476
:10368000132812DC072823DD0B283DDD102868DD18
:10369000112800D1A6E0122800D1A7E0132800D0FD
:1036A000E8E02046FEF76CFA10BD21281EDD262832
:1036B00036DD2B285EDD2C2800D19BE02D2800D1A3
:1036C0009CE02E2800D0D5E02046FFF70DFF10BD6E
:1036D000032830DC012855DC002800D192E00128C5
:1036E00000D0C7E02046FCF7FDFE10BD18282DDCF9
:1036F00016284FDC142800D188E0162800D0B9E045
:103700002046FEF7E9FB10BD09284BDC082800D154
:1037100080E0092800D0ADE02046FDF75FF910BD3C
:10372000242847DC222879D0242800D0A2E0204693
:10373000FFF76AFB10BD052844DC042872D0052879
:1037400000D097E02046FDF713F810BD1F2841DC9C
:1037500019286BD01A2800D08CE02046FFF748FAD1
:1037600010BD0C2866D00D2800D083E02046FEF75F
:10377000CDF810BD272861D028287BD12046FFF73F
:1037800043FD10BD02285DD0032873D12046FCF70D
:103790008DFF10BD172859D018286BD12046FEF791
:1037A000FBFE10BD0A2855D00B2863D12046FDF73B
:1037B00087FF10BD252851D026285BD12046FFF772
:1037C0007FFC10BD06284DD0072853D12046FDF7B9
:1037D00087F810BD202849D021284BD12046FFF77B
:1037E00087FA10BD2046FEF7BBF810BD2046FEF755
:1037F000E1F810BD2046FFF749FD10BD2046FFF758
:10380000DBFD10BD2046FCF71DFE10BD2046FEF777
:1038100003FB10BD2046FDF7A5F810BD2046FFF7BD
:10382000C9FA10BD2046FCF77BFF10BD2046FEF70D
:10383000DDFF10BD2046FEF727F810BD2046FFF73C
:1038400089FC10BD2046FCF7E1FE10BD2046FEF7C6
:103850006BFB10BD2046FDF70DFC10BD2046FFF7A9
:1038600001FB10BD2046FDF711F810BD2046FFF703
:10387000F1F910BD012002F054FA0000F0B595B046
:1038800015460E46044609AF384605F091FE3885C8
:10389000FC49084203D009A8002606850DE009A8C6
:1038A00002F0D7F8606B002801D126636563A07829
:1038B000002813D00020A070032602F037FA09A9CF
:1038C000884203D102F034FA02F0C3F809A8008D4F
:1038D000002800D00DE3F0B215B0F0BD4920C000C3
:1038E0002018089020462530079020461830069072
:1038F0002646383620460C30049027462437039756
:103900000596E8E2207804260828D6D0606B0126C8
:103910000028D2D03878002837D12046FFF788FE1B
:10392000E16A4A1CE262611825228854E16A14ADFA
:103930000798049A2B4600F053FD07462878002884
:1039400008D00520002F09D1E16A0020052905D102
:10395000E1A000E0E7A003F04DF8012007210140BD
:10396000002903D1606B0028D7D101E0052908D1D7
:10397000012F039FA1D100202061E0620120387057
:1039800003E000260028039F97D1207804282CDC30
:10399000401E042800D3A6E2E56823699D4218D999
:1039A0006068226B676B00216E4631607160EB1AB4
:1039B0009F4200D31F463B4603F042FC206BC019D8
:1039C0002063606BC01B60632069C3192361E568D5
:1039D000039FAB4204D12078401C20700020387037
:1039E000A078002800D176E264E705282BD00628CD
:1039F00050D0072800D076E2E3682569AB4200D8B2
:103A0000A3E06068226B676B00216E4631607160D5
:103A10005B1B9F4200D31F463B4603F011FC20690D
:103A200020183830216B3A4602F0C7F8206BC019D5
:103A30002063606BC01B60632069C5192561E36862
:103A4000059E039F82E0E3682569AB4200D897E0BA
:103A50006068226B676B00216E46316071605B1B92
:103A60009F4200D31F463B4603F0EAFB2069201823
:103A70003830216B3A4602F0A0F8206BC019206361
:103A8000606BC01B60632069C5192561E368059EF2
:103A9000039F76E004980168480A00D02BE223696E
:103AA000994232D96068226B676B00256E4635609B
:103AB0007560C91A8F4200D30F4629463B4603F072
:103AC000BFFBA068226B69460D604D6029463B46EE
:103AD00003F0B6FB206920184430216B3A4602F00F
:103AE0006CF82069002806D1216B08980068012233
:103AF00002F063F82069216BC9192163616BC91B4E
:103B00006163C3192361E168039F8B4200D067E7BB
:103B10002162089800680178132946DC07295ADDDC
:103B20000B2900DC80E0102900DCBBE0112900D16A
:103B300037E1122900D13AE1132900D0E0E1072151
:103B40004170801C704979447EE1059E9D4200D001
:103B500046E700271497591C14AA304600F0BAFA19
:103B60001498002800D0C9E10C223046394602F0F2
:103B70001BF82078401C20700398077007462FE739
:103B8000059E9D4200D02BE7591C3046069A00F056
:103B9000A1FA002565610C223046294602F004F89E
:103BA0002078401C20703D701AE721292BDD262942
:103BB00049DD2B2900DC81E02C2900D1FEE02D29F4
:103BC00000D101E12E2900D09AE102214170801C30
:103BD0001022D6A170E1032944DC012900DD95E023
:103BE000002900D1F6E0012900D089E107214170C8
:103BF00000214172742101726E21C17165218171B0
:103C00006D21417107E118293EDC162900DD89E0AC
:103C1000142900D1EBE0162900D071E10221417096
:103C2000801CDC49794438E1092900DD87E0082956
:103C300000D1E3E0092900D062E108214170801C35
:103C4000D149794422E1242900DD84E0222900D1F0
:103C5000E7E0242900D053E102214170801CD149C2
:103C600079449CE0052900DD81E0042900D1DFE0F2
:103C7000052900D044E106214170801CC0497944E7
:103C800012E1C046FFFF00001F297DDC192900D189
:103C9000D5E01A2900D033E102214170801CBF49D0
:103CA000794416E00C2900D1D0E00D2900D027E19D
:103CB00002214170801CB649794470E0272900D167
:103CC000CAE0282900D01BE103214170801CB649BD
:103CD00079441822F0E0C046544C56207072652D8D
:103CE0006465636F6465206C6F67696320657272D9
:103CF0006F720A00544C56206465636F64696E6786
:103D0000206572726F720A00125F0000022900D1F2
:103D1000A9E0032900D0F3E003214170801C9749FA
:103D20007944C8E0172900D1A4E0182900D0E7E0C1
:103D300003214170801C984979441922BCE00A296A
:103D400000D19EE00B2900D0DAE004214170801CF4
:103D50008E4979449AE0252900D199E0262900D09E
:103D6000CEE003214170801C12227EA1A4E006292E
:103D700000D194E0072900D0C2E003214170801CEB
:103D8000804979440D2297E0202900D18EE0212935
:103D900000D0B5E005214170801C8149794416228C
:103DA0008AE002214170801C854979446EE004213B
:103DB0004170801C834979440C227DE007214170C9
:103DC000801C102263A177E003214170801C162221
:103DD0005AA171E004214170652141717421017182
:103DE0006F21C170762181700021817166E003210D
:103DF0004170801C744979441B225DE003214170AD
:103E000000214172742101727221C1716521817199
:103E1000762141716E2101716F21C1706321817022
:103E20004CE002214170801C6B4979441D2243E023
:103E300002214170801C5E49794411223CE003213B
:103E40004170801C62497944102235E003214170A1
:103E5000801C5A49794404E004214170801C604967
:103E60007944152228E004214170801C4F4979448F
:103E7000092221E007214170801C5449794417220E
:103E80001AE006214170801C4B4979440F2213E04F
:103E900003214170801C514979440E220CE002211B
:103EA0004170801C43497944132205E0042141708C
:103EB000801C48497944142205F0EAFA6069401CE4
:103EC0006061A169884201D307202070002038700A
:103ED0000120607084E56078002800D112E50020A0
:103EE00060700226E9E44048784402F083FD002631
:103EF000E3E401F016FF2048784403E004A001E069
:103F00003848784402F076FD012001F00AFFC046EF
:103F10007A65726F53697A654669656C64206D7560
:103F2000737420626520300A0000000072656D6FB6
:103F300076655F70726F706F73616C00757064612D
:103F400074655F70726F706F73616C5F766F7465AC
:103F5000730000006372656174655F70726F706FEB
:103F600073616C007365745F72657365745F616320
:103F7000636F756E74000000435A00005C5C0000C3
:103F8000265D00004A5C00009A5D0000AA5C00000B
:103F90006C5D0000605E0000745D0000385E000033
:103FA000685D0000DC5E0000AC5E0000025B0000AB
:103FB000585B0000125B0000625B0000B85B000011
:103FC000925C0000965C0000725C0000185C0000CF
:103FD000825C00003C5C0000F25C0000BC5C000005
:103FE000045D00005A5A0000365A0000F0B59BB03C
:103FF000164601960F46044602AD6421284605F098
:1040000041FA28462146324605F050FB284605F085
:1040100019FB0646A819394605F00CFB384605F091
:1040200011FB019961188019281805F003FB20463F
:10403000294605F0FFFA1BB0F0BD0000F0B585B0D1
:104040000C460546002D3DD001AF00261022384613
:10405000314601F0A9FD03CD3A46083D00F068F96C
:10406000384605F0EFFA297A88420ED8009417A74F
:1040700001AC002220463946FFF7B8FF204605F084
:10408000E1FA297A8842F3D9009C421A01AF10A1C3
:104090003846FFF7ABFF384605F0D4FA20213954F3
:1040A0003818467009353846294605F09BFA102223
:1040B0002046394601F081FD384605F0C3FAC0B20A
:1040C00005B0F0BD022001F02CFEC046300000001B
:1040D0002E000000F0B581B00092002529462C4644
:1040E0002B46C25C7F251540E6B2B54029435D1CD6
:1040F00080273A4205D0E21DE0271740F41D202F0B
:10410000EED300980160581C01B0F0BD70B58AB0C4
:104110001C461546002819D0202917D9272C18D954
:104120004021415C01220A400221114301AE31705D
:10413000731C411C2022184601F03FFD212130460E
:104140002A46234600F008F80AB070BD022001F0AC
:10415000E8FD032001F0E5FDF0B5AFB004462029ED
:1041600044D905920693272B3DD925AE0021039112
:1041700025220492304601F017FD212730462146C2
:104180003A4601F01AFD08AC204603F075F81420F9
:104190006946486020AD0D600121204632463B460D
:1041A00003F04EF8304621300422294601F005FD87
:1041B000059D28460399069C224601F0F5FC5320F4
:1041C0002870542068704D20A870E01E0790EA1CEB
:1041D00007AB3046049900F00DF80798C01CA042C8
:1041E00001D22FB0F0BD032001F09BFD022001F0B1
:1041F00098FD0000F0B503AF8BB06E463260706181
:104200000024B161002908D000247069005D0028F5
:1042100003D1641CB0698442F7D37360B569291B6C
:104220008A204843642104F043FE024608323E4996
:1042300011406A46531A3062421C9D460021B36207
:1042400018463161B26001F0AFFCF460AC422BD291
:10425000316AF2680B467069F261805C316A7362A0
:10426000994202D80028316A19D0356AB16A495D8D
:1042700009020C183A21204604F08AFFB06A415521
:104280000021002D0BD03A21204604F09BFE39344A
:104290006D1E716A8D42E9D8722C2946E6D8F26902
:1042A000521CB0698242D5D17468F5683369B1682F
:1042B000B06AC05C002802D15B1C8B42F8D348195D
:1042C000C11A226800208A4227D90021002D3361BB
:1042D00006D0312130682A4601F066FC3369294650
:1042E000B268934215D2306840181446B26AD218A8
:1042F000E31A346A0919491C0C4D7D4414782C5D6D
:104300000470401C5B1E521C002BF7D13069091A47
:1043100074680020326850540120491C2160FC1F41
:10432000053CA546F0BDC046F8FFFF079A580000BF
:10433000F0B585B00D46034600200490C0430390BD
:10434000002D01DB104606E02D2010700021CB1A55
:10435000A941501C0D460292039944180193184636
:104360002946049E074609370B4673410122122F46
:10437000174600D8049F002B00D11A46002B00D00E
:1043800017460A22049E334604F008FF641C002FDF
:10439000E8D100276770114878440490019E0A22F2
:1043A000304629463B4604F0F9FE049B9A5C227095
:1043B00009367D410123122E1A4600D83A46002DB7
:1043C00000D12B46002D00D01A46039BE418002A8A
:1043D00006460D46E3D1029805B0F0BD3658000000
:1043E00070B5044620781F2505400020042D11D10A
:1043F000012602290FD36578491E8020054204D189
:10440000294611600126304605E07F200540002046
:10441000042D02D906461E7070BD8D42FBD2A01C31
:104420000021002DEDD0002634463146865D09027C
:104430003143641CE6B2AE42F8D3E2E70146002005
:10444000C2430B785BB2002B0FDB0AD02023CB5684
:1044500093420ADD0120002B07D12120085CC0090E
:1044600070470123CB56002BF0DB7047F0B581B0CD
:104470000C4605462A7905270420002A00D0074665
:104480000020C143002A00D00146EA785618202EA9
:1044900041D80020202E0ED0701C2023202800DCC4
:1044A0001846401A811A204604F0ECFF0020401CF8
:1044B00031182029FBDB2018E919324601F07DFB79
:1044C000F219901C2B5CD71C002B00D00746002053
:1044D000C143002B00D00146AA1852785618202E4E
:1044E00019D80020202E0FD0701C2023202800DC9B
:1044F0001846401A811A2046203004F0C3FF0020DD
:10450000401C31182029FBDBE919201820303246E5
:1045100001F053FB012001B0F0BDF0B5BBB00C922F
:104520000591039020200D9043980A90429D419858
:104530000690409802900E950D9829180891401CFD
:1045400007900C9800286DD001210B9128460D9CF6
:104550002246099301F028FB00270A9D2846394688
:10456000224601F021FB089807703C460FAE202739
:10457000304629463A4602F0ABFE6846A0C03046B7
:10458000049421460E9A079B02F0BAFE6846A0C02A
:10459000304621460C9A099B02F0B2FE6846A0C044
:1045A00030460B99059A0D9C234602F0A9FE304631
:1045B00029463A4602F08CFE68460E9982C0304683
:1045C0000B990E9A234602F09BFE08980B990170F6
:1045D000304629463A4602F07BFE6846A0C0304687
:1045E000049C21460E9A079B02F08AFE6846A0C0F2
:1045F000304621460C9A099B02F082FE6846A0C014
:1046000030460B9C2146059A0D9B02F079FE304600
:1046100029460E9D3A4602F05BFE6846A0C0304631
:1046200021461FE00020089908700FAC2025204685
:104630000A9F39462A4602F04BFE684607604560ED
:104640000126204631460E9A079B02F059FE20466D
:1046500039462A4602F03CFE68460E9922C00E9D5D
:10466000204631462A460D9B02F04AFE002306985A
:1046700000280C9300D164E70D9F069E0FAC202507
:1046800020460A992A4602F023FE68460E9922C067
:10469000BE42324600D33A460121204614460E9DC2
:1046A0002A46234602F02CFE03982946224601F0B2
:1046B00084FA361B2746E1D10D9400230698002882
:1046C0000C9300D138E70020029B195C2A5C401C47
:1046D0008A4206D300210C9106998842F5D30C9B9F
:1046E0002AE73BB0F0BD000010B582B001AC2070ED
:1046F0000748784402F034FD0122214602F072FDA1
:10470000044979440020024602F0E4F802B010BDEA
:104710008A600000D655000080B50748784402F052
:104720001FFD01780120002900D108460349794482
:10473000002202F0CFF880BD6060000056550000F6
:1047400070B505466878012400281FD0411E104A24
:104750001268012400238A4200D01C468A4215D1E7
:104760007D26310101280FD002280FD107212846CC
:1047700001F0D2FDF60080190649884204D30721D2
:10478000284601F0C9FD811903484161204670BDEA
:10479000AC180020B80B0000B0180020F0B581B0B4
:1047A00004466178012500291DD01C4802687D203F
:1047B000C6001B4F032919D1022A17D90721204609
:1047C00001F0AAFD8019B84204D30721204601F068
:1047D000A3FD87191348476110480068FE30C0B236
:1047E0001149FEF743FF284601B0F0BD4B1E0020E3
:1047F0009A42F9D1022B0ED20721204601F08CFDFE
:104800008019B84204D30721204601F085FD87199D
:1048100004484761E7E70329D0D0E4E7AC1800205B
:10482000B80B0000B0180020441A00204178012085
:1048300000290FD0491E08480268012000238A423F
:1048400000D01846012905D88A4203D17D210901EB
:10485000024A51617047C046AC180020B0180020D1
:1048600080B5034979440020024602F033F880BD48
:104870001C55000010B500F017F8094990220A54A1
:10488000091800244C70801C81B2202001F0B8FD72
:10489000044979442046224602F01CF8204610BD07
:1048A000181E0020EE540000F0B581B0144F4122D4
:1048B0003A70781C134C2146083101F07EF92646E7
:1048C0004C36304604F0BEFE054642203D54384684
:1048D000433031462A4601F070F9A820215C284671
:1048E0004330002907D0381888342022214601F0AF
:1048F00064F9633500E00546284601B0F0BDC046C6
:10490000181E00200018002080B50D49884212D0E2
:104910000C49884211D10C486921017085214170F0
:104920002020022101F06CFD084979440020024654
:1049300001F0D0FF01E0FFF79DFF002080BDC046E1
:104940000200008001000080181E00205654000064
:1049500010B500F017F8094990220A5409180024EC
:104960004C70801C81B2202001F04AFD044979443A
:104970002046224601F0AEFF204610BD181E002042
:1049800012540000F0B5B5B0202768464760414C8E
:1049900022462C32026040480121002606910592F1
:1049A000334602F04DFC227868460660211D3446ED
:1049B0002120089025AD04952B4602F025FD1BAE65
:1049C000089829463D463A46334602F0B5FC402257
:1049D0000498214601F0E8F8083604962F4F079511
:1049E000002C08940FD00AA86946C86012A88860F5
:1049F0004D602D4878440860384664300022059C9C
:104A0000214613460EE01C9B0AA86946C86012A8FE
:104A100088604D6023487844086038466430059CBF
:104A20002146049AFFF779FD2946234609AD6846D9
:104A300064243E46643642C0046045601BA81849A1
:104A4000032202F0A9FC385D2978C9073A4602D151
:104A5000079D069903E0069908431055079D0840F5
:104A60001F3010701746541C30462146FFF7FEFCDD
:104A70002046FFF7E3FC089A541C002800D0144697
:104A80000028ADD01BA80021282201F08DF841207C
:104A900035B0F0BD00180020B41C0020181E002006
:104AA00041080000C3510000E5510000F0B581B09D
:104AB00080265A49884214D0594988420ED15C4810
:104AC00069210170711D41702020022101F098FCC4
:104AD0005F4979440020024601F0FCFE002001B04D
:104AE000F0BD504F3868401C38604F4D29688842EF
:104AF00033D2C0B24D49FEF7B9FD01F077FA01F0AB
:104B00007BFA504C0020A06021680029E6D0E169C2
:104B10004D4A91421ED1E1E761688842DED202F03F
:104B2000CDFC0028DAD1A068E16838256843226806
:104B30001018002902D08847002807D0012803D187
:104B4000A06845432068401901F0A4FBA068401C00
:104B5000A06021680029DFD1C0E734480024214645
:104B60002246FEF78BFE012841D004284DD00228B2
:104B70004ED13C602F484078801C28602B498869C2
:104B8000022805D34B692C4820212CA202F0D8F82A
:104B900001F02CFA01F030FA2A4DAC6028680028A8
:104BA0009CD0E869284988421ED197E7686884420A
:104BB00094D202F083FC002890D1A868E9683824D8
:104BC00060432A681018002902D08847002807D0BF
:104BD000012803D1A86844432868001901F05AFB52
:104BE000A868441CAC6028680028DFD176E710363E
:104BF0000F480670002444702020022101F000FCC0
:104C0000124979442046224666E7FFF7A1FE65E790
:104C100007486A210170467056E7C04602000080CE
:104C200001000080AC180020B01C0020441A0020B5
:104C3000181E002080190020601900204F502023EA
:104C400025640000B0180020445010B07E510000D0
:104C5000AE52000080B501F01DFB80BDB0B58025CF
:104C60003649884213D0364988420ED136486921E8
:104C70000170691D41702020022101F0C1FB3949FA
:104C800079440020024601F025FE0020B0BD2D48E9
:104C9000002421462246FEF7F1FD012839D00428E0
:104CA00044D0022845D1294800250560284840788D
:104CB0002849086001F09AF901F09EF9264CA56098
:104CC00020680028E1D0E069244988421ED1DCE751
:104CD00060688542D9D202F0F1FB0028D5D1A068E6
:104CE000E1683825684322681018002902D08847F7
:104CF000002807D0012803D1A06845432068401947
:104D000001F0C8FAA068451CA56020680028DFD122
:104D1000BBE710350C48057044702020022101F0DB
:104D20006FFB0F49794420462246ACE7FFF710FE9F
:104D3000ABE705486A21017045709CE702000080DE
:104D400001000080441A0020181E0020AC1800202A
:104D500080190020B01C0020B0180020445010B072
:104D60005C50000000510000B0B505460F202840FF
:104D70000024012813D0022813D1002908D00A48A2
:104D800002F086FB68B2002809DA02F017FA06E0A2
:104D9000FF2152310448002202F0A6FB04462046BF
:104DA000B0BD022000F0BDFF181E0020F0B5A3B07A
:104DB00013461A785F1CD523DD01531EDBB20A2B84
:104DC00000D3A9E0022800D3A2E0012900D99FE086
:104DD000299B0293289B039311AB14463D782D0623
:104DE0007E7836042E43BD782D023543FE782E435F
:104DF00040C33F1D641EF1D100260129344600D175
:104E00000C460690A8234C4DEC54284688300129C6
:104E100000D03046694608600596212611A91BAFCF
:104E200030463B4602F0F0FA2022049207AC3046AE
:104E30003946234602F080FA0123304629462246AD
:104E400002F092FA28222046059C214600F0ACFE92
:104E500038462146049A00F0A7FE284608304C3513
:104E600041213C232A46FFF751F9069800285AD0E1
:104E7000324800250560324802210160314C334838
:104E800078442060072060603148784420613148D0
:104E90007844E06003202076E5612046183002F077
:104EA000E1FAE06101F0A4FD01F0A0F801F0A4F83E
:104EB000A5602068002824D0E069234988421ED1DB
:104EC0001FE0606885421CD202F0F8FA002818D171
:104ED000A068E1683825684322681018002902D0CC
:104EE0008847002807D0012803D1A06845432068DF
:104EF000401901F0CFF9A068451CA5602068002882
:104F0000DFD1039A106810210143116023B0F0BD76
:104F10008035284600F005FF0F48784401F06AFD0F
:104F2000284600F0FEFEFFF7BFFC0299086009204A
:104F3000000300F0F6FEC04600180020AC18002068
:104F4000B01C0020B0180020445010B08C4F00005E
:104F50007BFAFFFFADF8FFFF5C4D000080B50C4809
:104F6000784402F0FDF8017801200029024600D1C2
:104F70000A4606490A70487000228A70C870039871
:104F8000042101600920000300F0CBFE181E002060
:104F90001C580000F0B585B01E461546D522D70135
:104FA0006B221302802834D0002800D0FCE003914B
:104FB000049728788E490870421ED2B20A2A00D37C
:104FC000FFE00293761E6D1C00229300CB182F7811
:104FD0003F066C7824043C43AF783F022743EC78CB
:104FE0003C435C60B3B2834C1E192D1D521C82429F
:104FF000EBD39F48784402F0B3F800786946086024
:105000007D487E497E4A7F4BFEF7F2FA049F029B61
:105010000399002900D0C7E077480078002800D124
:10502000C5E0B2B2744E30462946FEF727FC09218E
:105030000C03022813DC00D0BEE073480025056095
:1050400070484778714C2760B06902285AD3736959
:105050006F4820216FA201F073FE276858E00328F3
:1050600000D0B5E0B3697048202170A201F068FE5D
:10507000654800250560654802210160684C7D484F
:1050800078442060072060607B48784420617B483A
:105090007844E06003202076E5612046183002F075
:1050A000E1F9E06101F0A4FC00F0A0FF00F0A4FF32
:1050B000A5602068002870D0E0695A4988421ED156
:1050C0006BE06068854268D202F0F8F9002864D18C
:1050D000A068E1683825684322681018002902D0CA
:1050E0008847002807D0012803D1A06845432068DD
:1050F000401901F0CFF8A068451CA5602068002881
:10510000DFD14AE042485E4979440C2204F0C0F9FC
:10511000B81C2060424C5B487844206009206060E5
:1051200059487844206159487844E060032020764B
:10513000E5612046183002F095F9E06101F058FC75
:1051400000F054FF00F058FFA5602068002824D02C
:10515000E069344988421ED11FE0606885421CD254
:1051600002F0ACF9002818D1A068E168382568433E
:1051700022681018002902D08847002807D001288B
:1051800003D1A06845432068401901F083F8A06866
:10519000451CA56020680028DFD10A98016810220C
:1051A0000A43026005B0F0BD184600F0BAFD2AA01F
:1051B00001F020FCFB3F17E0002815D001280DD09E
:1051C0000FE03348784401F015FC049800F0A9FD85
:1051D000042806D10B9DFFF7D5FB2860204600F080
:1051E000A0FD16A001F006FC384600F09AFDC0466E
:1051F00000180020FCFF0000441A0020B41C00200E
:10520000201D002080190020AC180020B01C0020B8
:1052100060190020416374696F6E202325640000CB
:10522000B0180020445010B0901C00202564206F5E
:105230007065726174696F6E73000000556E6578F9
:105240007065637465642070617273657220737435
:10525000617475730A000000506172736572206E8C
:105260006F7420696E697469616C697A65640A009B
:105270008857000018510000CFFBFFFF99F7FFFF90
:10528000845000007C4E000087F9FFFF71F6FFFF9D
:10529000B24A000070B58EB00C46054603AE3046EB
:1052A00004F086F9308581B2002923D010294FD02F
:1052B00003A900220A850F210A030240FF210902E7
:1052C0000140090A03235B039A4209D009231B0307
:1052D0009A4205D02B4908400D21C9020843010A12
:1052E0002268274B99542168591848702068801CFF
:1052F00020601EE003A800F0ACFB214A1078D428FF
:105300002CD1507802280BD004282BD11379D178D6
:1053100090786E4635607460521DFFF73BFE08E0E2
:10532000D17890786B461D605C60521D0023FFF7BA
:105330003DFD00F0FBFC03A9884203D100F0F8FC1E
:1053400000F087FB03A8008D002809D10EB070BDC6
:1053500003A800210185102000F0E3FC3720400263
:1053600000F0DFFC062806D16846446000200146B4
:105370000346FFF7F3FD6D20000200F0D2FCC046AB
:10538000181E0020FF07000070B590B000250F9593
:105390000E950D95304E0CA8058001AC204604F00A
:1053A00007F9208581B2002911D0102947D001A921
:1053B0000D850F210903014009221203914203D0F8
:1053C00003225203914219D10CA908801DE001A8C3
:1053D00000F03FFB0E980F9000240E940D980F994B
:1053E000C0B289B201F00CF80F900D940F9800280C
:1053F0002AD00DA80EA9FFF74DFF11E0154908406E
:105400000D21C90201430CA801800C98000A0E99D5
:1054100070540C980E99711848700E98801C0E905C
:1054200000F084FC01A9884203D100F081FC00F067
:1054300010FB01A8008D0028ADD000F072FC01A87F
:105440000585102000F06DFC014800F06AFCC046A4
:1054500082690000FF070000181E0020F0B585B02B
:10546000E04D2878E04F0C2810DD0D287BD00E2869
:1054700000D1B8E0152835D1DC480078012831D1B9
:10548000A87900072ED4102000F04BFC052800D18D
:10549000EBE00C2826D1D64C012020760026E661D0
:1054A0002046183001F0DEFFE06101F0A1FAE0696A
:1054B000D049884200D191E2002800D18EE2FD4916
:1054C000884200D01FE200F091FD00F095FDA6603B
:1054D0002068002800D181E2E069F849884200D0C4
:1054E00031E17BE2F44C012020760025E561204685
:1054F000183001F0B7FFE06101F07AFAE069B842D4
:1055000000D0D8E000F072FD00F076FDA5602068C4
:10551000002800D162E2E069E849884220D15DE2DA
:105520006068854200D359E201F0C8FF002800D02E
:1055300054E2A068E1683825684322681018002901
:1055400002D08847002807D0012803D1A06845432E
:105550002068401900F09EFEA068451CA5602068E8
:105560000028DDD13AE2D44C012020760025E56107
:105570002046183001F076FFE06101F039FAE06969
:10558000CE49884200D129E2CA49884200D182E14D
:10559000002800D122E22068002800D118E2A0688B
:1055A0006168884200D313E201F088FF002800D030
:1055B0000EE2A068E16838256843226810180029C7
:1055C00002D08847002807D0012803D1A0684543AE
:1055D0002068401900F05EFEA068401CA0602168B1
:1055E0000029DDD1F4E1B44C012020760026E661EB
:1055F0002046183001F036FFE06101F0F9F9E56965
:10560000BD4200D0C5E000F0F1FC00F0F5FC002048
:10561000A0602168002900D1E0E1E169F84A9142E7
:1056200020D1DBE16168884200D3D7E101F046FF79
:10563000002800D0D2E1A068E168382568432268DC
:105640001018002902D08847002807D0012803D16C
:10565000A06845432068401900F01CFEA068401C6B
:10566000A06021680029DDD1B8E1E24C012020765C
:105670000026E6612046183001F0F4FEE06101F0FA
:10568000B7F9E069DE49884200D1A7E1002800D1DE
:10569000A4E1D749884200D06FE100F0A7FC00F0F8
:1056A000ABFCA6602068002800D197E1E069D449EE
:1056B00088426BD192E12068002800D188E1A0687F
:1056C0006168884200D383E101F0F8FE002800D031
:1056D0007EE1A068E1683825684322681018002937
:1056E00002D08847002807D0012803D1A06845438D
:1056F0002068401900F0CEFDA068401CA060216821
:105700000029DDD164E16068864200D366E101F0E2
:10571000D5FE002800D061E1A068E1683825684323
:1057200022681018002902D08847002807D00128D5
:1057300003D1A06845432068401900F0ABFDA06884
:10574000461CA66020680028DDD147E160688642DB
:1057500000D343E101F0B2FE002800D03EE1A06892
:10576000E1683825684322681018002902D088476C
:10577000002807D0012803D1A068454320684019BC
:1057800000F088FDA068461CA66020680028DDD1D6
:1057900024E1606900284FD064216428024600D3C8
:1057A0000A46801A6061113FBD4245D0002D43D0AA
:1057B000002841D19048016800293DD08F4F3868BA
:1057C000401C03F0FBFB396000F010FC00F014FCFF
:1057D000A660206800282FD0E0698949884229D135
:1057E0002AE0C0468C1D0020555010B0741F0020C8
:1057F000B0180020445010B0606886421CD201F0FE
:105800005DFE002818D1A068E16838267043226840
:105810001018002902D08847002807D0012803D19A
:10582000A06846432068801900F034FDA068461C3B
:10583000A66020680028DFD17148854200D1CDE004
:10584000002D00D1CAE02068002800D1C0E0A06887
:105850006168884200D3BBE001F030FE002800D030
:10586000B6E0A068E168382568432268101800296E
:1058700002D08847002807D0012803D1A0684543FB
:105880002068401900F006FDA068401CA060216857
:105890000029DDD19CE000F0A9FB00F0ADFBA56084
:1058A0002068002800D199E0E0695549884227D155
:1058B00094E0C046555010B0B0180020445010B0CD
:1058C0006068854200D389E001F0F8FD002800D02F
:1058D00084E0A068E1683825684322681018002930
:1058E00002D08847002807D0012803D1A06845438B
:1058F0002068401900F0CEFCA068451CA560206817
:105900000028DDD16AE0A088049020680390EE7939
:10591000AB796F792A79ED78E16868460560416076
:1059200012023A431B0233430398049900F0E4FB4C
:10593000206800284CD0A0686168884248D201F0F5
:10594000BDFD002844D1A068E1683825684322687D
:105950001018002902D08847002807D0012803D159
:10596000A06845432068401900F094FCA068401CE2
:10597000A06021680029DFD12AE02069002803D037
:10598000E978490800F002FD2068002820D0A068CE
:10599000616888421CD201F091FD002818D1A068EE
:1059A000E1683825684322681018002902D088472A
:1059B000002807D0012803D1A0684543206840197A
:1059C00000F068FCA068401CA06021680029DFD1BD
:1059D0006068A168814201D301F070FD01F06EFDA5
:1059E000002801D100F0AAF9012005B0F0BDC046A1
:1059F000555010B0B0180020B01C0020AC1800208A
:105A0000445010B010B58CB001AC204603F0D0FD6E
:105A100020850D49084206D101A800F01AF800209F
:105A2000C04301F009FD00F081F901A9884203D1CA
:105A300000F07EF900F00DF801A8008D002801D1DA
:105A40000CB010BD00F06DF9FFFF00000020814692
:105A50007047814670470000F0B581B000920F4654
:105A60000546484B9F420FD0464C402620463146C3
:105A700003F008FD00984028024600D33246204635
:105A8000394600F09AF83F4B987801280BDC002843
:105A90002BD0012869D1D81C04211C4601F0B8FB89
:105AA000402120462CE0022828D005285DD1187915
:105AB000D97809020143344A1068002481425AD13E
:105AC000324E00988019071F106800281BD014461A
:105AD000394631402E480268914200D907683A465B
