:02000004C0D06A
:1000000070B58CB062B61D4D0024B0222846214642
:1000100005F0BAFD05F00AFD01AE304609F042FBDD
:10002000308580B2002806D01028EDD005F0DAFC2B
:1000300000200CB070BD01A805F0FBFC05F09EFF90
:100040000F48784407F0D8F8407801280BD06D4667
:100050002C70012068700B48784407F0CDF802221C
:10006000294607F00BF9002008F0FEFE012008F0F9
:10007000FBFE04F0E5FB05F077F9C046B018002060
:100080003AA8000024A80000F0B583B017460E4639
:10009000029009F051FB0190304609F04DFB0090B1
:1000A000002520223846294605F06EFD3C462034C6
:1000B00080222046294605F067FD38463146009AE1
:1000C00005F06BFD20460299019A05F066FD03B02C
:1000D000F0BD0000F0B585B01E4620292AD9049055
:1000E0000392104609F028FB0746212F25D20B98D2
:1000F00002900A980190002520223046294605F0FA
:1001000043FD3446203480222046294605F03CFD3C
:10011000304603993A4605F040FD21257F23049897
:100120002946224604F008F801990D6002990860FA
:1001300005B0F0BD0448784401E00448784406F076
:10014000A5FC012005F0DDFD86970000A5970000C5
:10015000F0B585B01E46012933D9039002921046AE
:1001600009F0EAFA0446212C2ED20B9801900A9845
:100170000090002520223046294605F005FD37462F
:10018000203780223846294605F0FEFC3046029989
:10019000224605F002FD04AC0225204603992A46BA
:1001A00005F0FBFC23887F210BA2384606F014FEE5
:1001B00000980560384609F0BFFA0199086005B05B
:1001C000F0BD0648784401E00548784406F05EFC3E
:1001D000012005F096FDC04625640000F896000059
:1001E00017970000F0B585B01E46032932D9039059
:1001F0000292104609F0A0FA0446212C2DD20B9849
:1002000001900A980090002520223046294605F0EA
:10021000BBFC3746203780223846294605F0B4FC1F
:1002200030460299224605F0B8FC04A8042403993C
:10023000224605F0B2FC049B7F210BA2384606F053
:10024000CBFD00980460384609F076FA0199086001
:1002500005B0F0BD0548784401E00548784406F053
:1002600015FC012005F04DFD256400006696000098
:1002700085960000F0B587B01E46072931D9039056
:100280000292104609F058FA0446212C2CD20D98FF
:1002900001900C980090002520223046294605F058
:1002A00073FC3746203780223846294605F06CFC1F
:1002B00030460299224605F070FC04A808240399F0
:1002C000224605F06AFC059904983A4604F020F8A5
:1002D00000980460384609F02FFA0199086007B0C9
:1002E000F0BD0548784401E00448784406F0CEFBB0
:1002F000012005F006FDC046D8950000F7950000E6
:10030000F0B589B01E460F292FD9039002921046EE
:1003100009F012FA0746212F2AD20F9801900E9861
:100320000090002520223046294605F02DFC344659
:10033000203480222046294605F026FC30460299CA
:100340003A4605F02AFC04AD1026284603993246A9
:1003500005F023FC7F222846214603F05FFE00992A
:100360000E600199086009B0F0BD0548784401E0CD
:100370000448784406F08AFB012005F0C2FCC04620
:10038000509500006F950000F0B585B01C460391B4
:1003900002900192104609F0CFF90546212D2CD28A
:1003A000002720222046394605F0EEFB264620365F
:1003B00080223046394605F0E7FB204601992A465F
:1003C00005F0EBFB049704AA029F3846039D2946DB
:1003D00003F070FE0446049A802A11D23846AA42DD
:1003E00010D80B9D0A9F0119304605F0D6FB0498E2
:1003F00001193960286005B0F0BD1048784403E069
:1004000004A001E00E48784406F040FB012005F00E
:1004100078FCC0467061727365416374696F6E44A5
:1004200061746120496E73756666696369656E748F
:1004300020627566666572670A000000E594000038
:10044000B6940000F0B585B01C4615460E46002156
:100450000491039103A96A46516004A91160471CE5
:100460001D4A7A4438463146FFF78EFF002D2DD0C5
:10047000049803A96A46516004A911603F18361A0E
:10048000164A7A44384631462346FFF77DFF012D50
:100490001CD0049803A96A46516004A911603F1852
:1004A000361A0F4A7A44384631462346FFF76CFF26
:1004B000022D0BD0049903A86A46506004A810606E
:1004C0007818711A02A22346FFF742FE05B0F0BD6C
:1004D00057656967687400009F9400008594000068
:1004E0006A940000F0B585B01C4615460E46002102
:1004F0000491039103A96A46516004A91160471C45
:1005000033A238463146FFF73FFF002D5ED00498F6
:1005100003A96A46516004A911603F18361A30A237
:10052000384631462346FFF72FFF012D4ED0049861
:1005300003A96A46516004A911603F18361A304A6F
:100540007A44384631462346FFF71EFF022D3DD040
:10055000049803A96A46516004A911603F18361A2D
:10056000284A7A44384631462346FFF70DFF032DCB
:100570002CD0049803A96A46516004A911603F1861
:10058000361A1BA2384631462346FFF7FDFE042DDE
:100590001CD0049803A96A46516004A911603F1851
:1005A000361A15A2384631462346FFF7EDFE052DD3
:1005B0000CD0049903A86A46506004A8106078180B
:1005C000711A114A7A442346FFF7DEFE05B0F0BDEA
:1005D000506172656E7420417574686F720000001E
:1005E000506172656E74205065726D6C696E6B003F
:1005F0005469746C65000000426F6479000000006B
:10060000C7930000AC93000053930000F0B585B091
:100610001C4615460E4600210491039103A96A4623
:10062000516004A91160471C1D4A7A44384631467E
:10063000FFF7AAFE002D2FD0049803A96A46516047
:1006400004A911603F18361A14A2384631462346D1
:10065000FFF79AFE012D1FD0049A03A8694648604F
:1006600004A808600292BF1810210E4A7A44384646
:100670002346FFF745FE022D0ED0049903A86A46D3
:10068000506004A810607818029AB21A511A064AEB
:100690007A442346FFF778FE05B0F0BD546F0000A2
:1006A000FB920000BE920000A1920000F0B585B060
:1006B0001C4615460E4600210491039103A96A4683
:1006C000516004A91160471C134A7A4438463146E8
:1006D000FFF75AFE002D1BD0049803A96A4651600B
:1006E00004A911603F18311A0AA238462346FFF7C1
:1006F0004BFE012D0CD0049803A96A46516004A951
:10070000116038181021054A7A442346FFF7F8FD96
:1007100005B0F0BD546F00005B9200002292000013
:1007200070B584B01C46154600220392029202AABC
:100730006B465A6003AA1A60461C0B4A7A4430463C
:100740002346FFF721FE002D0CD0039802A96A462C
:10075000516003A9116030181021044A7A442346DD
:10076000FFF7CEFD04B070BDFA910000E2910000E9
:10077000F0B587B01C4615460E460021069105913E
:1007800005A96A46516006A91160471C3C4A7A4493
:1007900038463146FFF7F8FD002D51D0069805A9DF
:1007A0006A46516006A911603F18361A354A7A44E4
:1007B000384631462346FFF715FD012D40D005A8E8
:1007C0006946486006A808603F1D10211DA23846F2
:1007D0002346FFF795FD022D32D0069A05A86946FB
:1007E000486006A808600492BF18102119A2384674
:1007F0002346FFF785FD032D22D006980390385C31
:10080000012802D02148784401E01F48784415A10E
:100810002246FFF739FC039978180F46042D0FD0B4
:10082000069905AA6B465A6006AA1A604018321F3C
:10083000049BD21AD21B511A0EA22346FFF7D2FCF8
:1008400007B0F0BD416D6F756E7420546F20536515
:100850006C6C00004D696E20546F205265636569B1
:100860007665000046696C6C206F72204B696C6C79
:100870000000000045787069726174696F6E000055
:10088000BF910000A5910000509100005B91000015
:10089000F0B585B01C4616460D4600210491039123
:1008A00003A96A46516004A91160471C0B4A7A44A7
:1008B00038462946FFF768FD002E0CD0049903A89E
:1008C0006A46506004A810607818691A044A7A448D
:1008D0002346FFF787FC05B0F0BDC0469F9000009F
:1008E00085900000F0B585B01C4615460E460021E7
:1008F0000491039103A96A46516004A91160471C41
:1009000012A238463146FFF73FFD002D1BD0049858
:1009100003A96A46516004A911603F18361A0EA255
:10092000384631462346FFF7EBFC012D0BD00499E6
:1009300003A86A46506004A810607818711A08A2CB
:100940002346FFF7DDFC05B0F0BDC0465075626C74
:100950006973686572000000426173650000000001
:1009600051756F7465000000F0B585B01C461546E2
:100970000E4600210491039103A96A46516004A91F
:100980001160471C134A7A4438463146FFF7FCFC95
:10099000002D1CD0049803A96A46516004A9116077
:1009A0003F18311A0C4A7A4438462346FFF71AFC9E
:1009B000012D0CD0049803A96A46516004A9116066
:1009C00038181021054A7A442346FFF799FC05B0F0
:1009D000F0BDC046C78F0000C18F0000648F0000CB
:1009E000F0B5B5B01E4614460B9100213491099123
:1009F000339133A96A46516034A91160451C102116
:100A0000F54A7A442846FFF77BFC002C00D109E325
:100A1000349F33A86946486034A80860ED19102156
:100A2000EE4A7A4428463346FFF7AEFC012C00D14B
:100A3000F8E20C96349E33A86946486034A80860F2
:100A4000A8191021E64A7A4408900C9BFFF79CFCF9
:100A50000B98C01B811B0C9D022C00D1E2E2039479
:100A600033A86A46506034A81060DE4A7A44089F72
:100A7000384607912B46FFF7B5FB34980690203592
:100A800013A88026D84A7A4431462B4606F0A4F9AA
:100A90000B952846099C21460A96324605F074F8C3
:100AA00012AD2C70069C3E1901222846314605F0F5
:100AB00074F80798401E041B731C2878002848D03F
:100AC000099E0594069333A909916846416034A9AB
:100AD00007910160C54A7A440892184621460C9B4A
:100AE000FFF752FC349D13AF384608F025FE6946E7
:100AF0000B9A0A603C180A99091AF0B2431CBC4AC6
:100B00007A44204606F068F9684607990160099919
:100B1000416006984019099005994C1B2146089A96
:100B20000C9BFFF715FB349D384608F005FE3B187B
:100B30000A99091AAF4A7A4418460B9B06F04CF9F9
:100B4000641B09984319761CF0B212A909788842EF
:100B5000B7D311AF00253D700122384619461E4615
:100B600005F01BF8641E721C387800284BD0A24890
:100B700078440790A14878440590A14878440490AF
:100B80000894099233A906916846416034AE066024
:100B900010462146079A0C9BFFF79CFA349C13AF32
:100BA000384608F0C9FD69460B9A0A603A180A9956
:100BB000091AE8B2431C1046059A06F00DF968467A
:100BC0000660069941600998011909910898041B6B
:100BD00008462146079A0C9BFFF7BAFA349E38461E
:100BE00008F0AAFD3A180A99091A1046049A0B9BB4
:100BF00006F0F2F8A41B099882196D1CE8B211A93D
:100C000009788842BCD3089413A80A90002680254E
:100C10003146174609972A4604F0B6FF33A86946BD
:100C2000486034A80860774A7A44384621460C9BCD
:100C3000FFF7D8FA349CFC4A7A440A9829460B9F5D
:100C40003B4606F0C9F8384631460A952A463546ED
:100C500004F09AFF10AF3D7009980619012238463A
:100C6000314604F09AFF0898401E041B731C387824
:100C7000002847D005940693099533A90891684642
:100C8000416034AE0660F64A7A440792184621461F
:100C90000C9BFFF779FB349D13AF384608F04CFDF1
:100CA00069460B9A0A603C180A99091A0998C0B259
:100CB000431CEC4A7A44204606F08EF868460660EB
:100CC00008994160069846190598441B304621460C
:100CD000079A0C9BFFF73CFA349D384608F02CFD30
:100CE0003B180A99091AE04A7A4418460B9B06F009
:100CF00073F8641B7319099D6D1CE8B210A909787B
:100D00008842B7D30FAF00253D70012238461946FF
:100D10001E4604F042FF641E721C387800284BD037
:100D2000C24878440790C24878440590C148784446
:100D300004900894099233A906916846416034AE44
:100D4000066010462146079A0C9BFFF7C3F9349CB6
:100D500013AF384608F0F0FC69460B9A0A603A185F
:100D60000A99091AE8B2431C1046059A06F034F8AD
:100D7000684606600699416009980119099108982A
:100D8000041B08462146079A0C9BFFF7E1F9349EA5
:100D9000384608F0D1FC3A180A99091A1046049A04
:100DA0000B9B06F019F8A41B099882196D1CE8B278
:100DB0000FA909788842BCD30398032824D10021C5
:100DC00080240B9D2846224604F0DEFE13A9284607
:100DD000224604F0E2FE25E1288F0000508F00003B
:100DE000348F00008E8F0000058F0000248F0000DC
:100DF000998E00006D8E00008A8E0000348E0000F7
:100E0000278E00008C8D000013A80A9000278026F2
:100E100039460992324604F0B7FE0B9D2846394602
:100E2000324604F0B1FE33A86946486034A8086031
:100E3000814A7A44099821460C9BFFF7D3F908941C
:100E4000349C7E4A7A440A9831462B4605F0C4FF0A
:100E500028463D4629460A96324604F095FE0EAFD6
:100E60003D700998061901223846314604F095FE76
:100E70000898401E041B731C3878002847D005943E
:100E80000693099533A908916846416034AE06601F
:100E9000704A7A440792184621460C9BFFF774FA71
:100EA000349D13AF384608F047FC69460B9A0A6038
:100EB0003C180A99091A0998C0B2431C664A7A4438
:100EC000204605F089FF684606600899416006984B
:100ED00046190598441B30462146079A0C9BFFF79C
:100EE00037F9349D384608F027FC3B180A99091A4F
:100EF0005A4A7A4418460B9B05F06EFF641B73191F
:100F0000099D6D1CE8B20EA909788842B7D30DAFD0
:100F100000263E700122384619461D4604F03DFE6B
:100F2000611E681C3A78002A4BD0454A7A440992DF
:100F3000444A7A440592444A7A4404920F460697FA
:100F4000079033AA089269464A6034AD0D6039466D
:100F5000099A0C9BFFF7BEF8349C13AF384608F093
:100F6000EBFB69460B9A0A603A180A99091AF0B223
:100F7000431C1046059A05F02FFF68460560089946
:100F8000416007980019089006990C1B2146099AA0
:100F90000C9BFFF7DDF8349D384608F0CDFB3A187E
:100FA0000A99091A1046049A0B9B05F015FF671B56
:100FB00008984019761CF2B20DA909788A42BED36E
:100FC00000E00F460546002180220B9E304604F0CB
:100FD000DBFD039C042C05D113A98022304604F0CC
:100FE000DCFD1FE033A86946486034A80860174A52
:100FF0007A44284639460C9BFFF76CF8052C11D033
:10100000349C00218022304604F0BEFD33A869469E
:10101000486034A808602819391B0D4A7A440C9B93
:10102000FFF7B2F935B0F0BD538D0000928C00008F
:10103000828C0000758C00008E8B0000478B0000B6
:10104000948A0000788A00006B8A0000DD89000025
:10105000FB8800002E8B0000DB8A0000B18A0000B4
:101060002C8D0000F68C0000BB8C0000F0B5B5B0F4
:101070001D461746099100243494339433A96A46D7
:10108000516034A91160461C1021E24A7A4430466E
:10109000FFF77AF9022F00D1DCE2039733A8694603
:1010A000486034A80860DC4A7A44304609992B46E7
:1010B000FFF798F8349808900B95203513A8274629
:1010C0008024D64A7A4421462B4605F085FE0C95AD
:1010D000284639460A9422463C4604F055FD12AD96
:1010E0002C70089FF61901222846314604F055FD60
:1010F0000998401EC11B731C2878002846D0059310
:101100000691099433AA08926846426034AE06609C
:10111000C34A7A44079218460B9BFFF735F9349D72
:1011200013AF384608F008FB69460C9A0A603C1871
:101130000A99091A0998C0B2431CBA4A7A4420464F
:1011400005F04AFE68460660089941600598461910
:101150000698441B30462146079A0B9BFEF7F8FF82
:10116000349D384608F0E8FA3B180A99091AAE4A45
:101170007A4418460C9B05F02FFE611B099C7319DD
:10118000641CE0B212AA12789042B8D311AF0025C5
:101190003D700C460122384619461E4604F0FDFCFF
:1011A000641E721C387800284BD0A0487844079001
:1011B0009F48784405909F48784404900894099289
:1011C00033A906916846416034AE06601046214658
:1011D000079A0B9BFEF77EFF349C13AF384608F04E
:1011E000ABFA69460C9A0A603A180A99091AE8B2E9
:1011F000431C1046059A05F0EFFD68460660069907
:1012000041600998011909910898041B0846214674
:10121000079A0B9BFEF79CFF349E384608F08CFA29
:101220003A180A99091A1046049A0C9B05F0D4FD45
:10123000A41B099882196D1CE8B211A9097888428B
:10124000BCD3089413A80A9000268025314617467F
:1012500009972A4604F098FC33A86946486034A8E8
:101260000860FD4A7A44384621460B9BFEF7BAFFD8
:10127000349CFA4A7A440A9829460C9F3B4605F06A
:10128000ABFD384631460A952A46354604F07CFCCB
:1012900010AF3D700998061901223846314604F016
:1012A0007CFC0898401E041B731C3878002847D02B
:1012B00005940693099533A908916846416034AEB8
:1012C0000660F44A7A440792184621460B9BFFF7C2
:1012D0005BF8349D13AF384608F02EFA69460C9A35
:1012E0000A603C180A99091A0998C0B2431CEA4AD4
:1012F0007A44204605F070FD684606600899416012
:10130000069846190598441B30462146079A0B9BC0
:10131000FEF71EFF349D384608F00EFA3B180A9976
:10132000091ADE4A7A4418460C9B05F055FD641BE9
:101330007319099D6D1CE8B210A909788842B7D3CA
:101340000FAF00253D700122384619461E4604F0B5
:1013500024FC641E721C387800284BD0C0487844A6
:101360000790C04878440590BF487844049008949A
:10137000099233A906916846416034AE0660104672
:101380002146079A0B9BFEF7A5FE349C13AF384607
:1013900008F0D2F969460C9A0A603A180A99091AB3
:1013A000E8B2431C1046059A05F016FD6846066033
:1013B000069941600998011909910898041B08468B
:1013C0002146079A0B9BFEF7C3FE349E384608F071
:1013D000B3F93A180A99091A1046049A0C9B05F0B9
:1013E000FBFCA41B099882196D1CE8B20FA90978AF
:1013F0008842BCD3039803281ED1002180240C9D71
:101400002846224604F0C0FB13A92846224604F0D1
:10141000C4FB1FE1AA88000052890000C7880000B1
:10142000E88800005D880000338800004E880000D6
:10143000F8870000EB87000013A80A900027802699
:1014400039460992324604F09FFB0C9D28463946E6
:10145000324604F099FB33A86946486034A8086016
:10146000824A7A44099821460B9BFEF7BBFE0894FA
:10147000349C7F4A7A440A9831462B4605F0ACFCEE
:1014800028463D4629460A96324604F07DFB0EAFBB
:101490003D700998061901223846314604F07DFB5B
:1014A0000898401E041B731C3878002847D0059408
:1014B0000693099533A908916846416034AE0660E9
:1014C000714A7A440792184621460B9BFEF75CFF4F
:1014D000349D13AF384608F02FF969460C9A0A601C
:1014E0003C180A99091A0998C0B2431C674A7A4401
:1014F000204605F071FC6846066008994160069830
:1015000046190598441B30462146079A0B9BFEF767
:101510001FFE349D384608F00FF93B180A99091A46
:101520005B4A7A4418460C9B05F056FC641B731901
:10153000099D6D1CE8B20EA909788842B7D30DAF9A
:1015400000263E700122384619461D4604F025FB50
:10155000611E681C3A78002A4BD0464A7A440992A8
:10156000454A7A440592454A7A4404920F460697C2
:10157000079033AA089269464A6034AD0D60394637
:10158000099A0B9BFEF7A6FD349C13AF384608F072
:10159000D3F869460C9A0A603A180A99091AF0B207
:1015A000431C1046059A05F017FC6846056008992B
:1015B000416007980019089006990C1B2146099A6A
:1015C0000B9BFEF7C5FD349D384608F0B5F83A1878
:1015D0000A99091A1046049A0C9B05F0FDFB671B3B
:1015E00008984019761CF2B20DA909788A42BED338
:1015F00000E00F460546002180220C9E304604F094
:10160000C3FA039C042C05D113A98022304604F0B0
:10161000C4FA1FE033A86946486034A80860184A35
:101620007A44284639460B9BFEF754FD052C11D011
:10163000349C00218022304604F0A6FA33A8694683
:10164000486034A808602819391B0E4A7A440B9B5D
:10165000FEF79AFE35B0F0BD5087000017870000F6
:101660005686000046860000398600005E85000030
:101670001785000064840000488400003B8400005B
:10168000AD830000CB820000FE840000AB8400002C
:1016900081840000F0860000BA8600007F8600008A
:1016A000F0B5A9B01C4615460E4600212891279199
:1016B00027A96A46516028A91160471C694A7A44E3
:1016C00038463146FEF760FE002D00D193E02898A1
:1016D00027A96A46516028A911603F18361A47A207
:1016E000384631462346FEF74FFE012D00D182E0F9
:1016F000289827A96A46516028A911603F18311A15
:101700003FA238462346FEF7E5FC022D73D0289809
:10171000049007AD80263DA22846314605F05CFBCB
:1017200027A906916846416028A90591016004989F
:1017300038180390102104913AA22346FEF7E0FDE9
:1017400028980290284607F0F7FF2B18311A2746F1
:10175000203738A218463B4605F03EFB284607F0E6
:10176000EBFF2B18311A34A2184605F035FB6846FA
:101770000599016006994160039802994018039009
:10178000049928A22346FEF72DFD289802902846AA
:1017900007F0D2FF2A18311A104626A23B4605F060
:1017A0001BFB284607F0C8FF2B18311A27A2184642
:1017B00005F012FB6846059901600699416003989F
:1017C00002994018049917A22346FEF7C1FC284647
:1017D00007F0B2FF2A18311A104616A23B4605F050
:1017E000FBFA00213846324604F0CEF93846294645
:1017F000324604F0D2F929B0F0BDC04655524C0033
:101800005369676E696E67204B6579004163636F4A
:10181000756E74204372656174696F6E20466565EC
:101820003A2000005769746E6573732050726F70B0
:101830007300000025730000202D204D61782042A8
:101840006C6F636B2053697A653A2000202D204825
:10185000424420496E7465726573742052617465E8
:101860003A2000008F820000F0B585B01C46154676
:101870000E4600210491039103A96A46516004A910
:101880001160471C154A7A4438463146FEF77CFD04
:10189000002D1CD0049803A96A46516004A9116068
:1018A0003F18311A0BA238462346FEF76DFD012D75
:1018B0000DD00498385C012802D00A48784401E031
:1018C00007487844084979442246FEF7DDFB05B015
:1018D000F0BDC0465769746E65737300B080000038
:1018E0009A800000A580000010810000F0B585B04E
:1018F0001C4616460D4600210491039103A96A4631
:10190000516004A91160471C0C4A7A4438462946A4
:10191000FEF73AFD002E0BD0049903A86A465060EA
:1019200004A810607818691A02A22346FEF72CFD5D
:1019300005B0F0BD50726F78790000002C80000077
:10194000F0B585B01C4616460D4600210491039162
:1019500003A96A46516004A91160471C0B4A7A44E6
:1019600038462946FEF710FD002E0CD0049903A836
:101970006A46506004A810607818691A044A7A44CC
:101980002346FEF701FD05B0F0BDC046A97F00006B
:10199000907F0000F0B5ABB0069302920E46002493
:1019A00029940894471C042108AA384602F082FBB7
:1019B00005462A9509A880215DA2059105F00CFA3B
:1019C0000699761B7F19089800282AD008462030EF
:1019D00004900D4629A8694648602AA80860384640
:1019E000314654A22B46FEF7CFFC09AD284607F03E
:1019F000A3FE0899491E8C4202D0574A7A4400E05F
:101A000050A22B180599091A1846049B05F0E4F911
:101A10002A98361A3F18641C08988442069DD9D328
:101A200000E00D4609AC204607F086FE2318059914
:101A3000091A45A2184605F0CFF9029800284FD0A0
:101A400000240794042107AA384602F033FB054618
:101A50002A9509A8802136A2059105F0BDF9761BCB
:101A60007F19079800282CD0069D28462030049026
:101A70003A487844039029A8694648602AA8086033
:101A8000384631462BA22B46FEF77EFC09AD284690
:101A900007F052FE0799491E8C4201D0039A00E0DC
:101AA00028A22B180599091A1846049B05F094F9E9
:101AB0002A98361A3F18641C07988442069DDAD388
:101AC00000E0069D09AC204607F036FE2318059974
:101AD000091A1DA2184605F07FF9029C012C0DD1B0
:101AE0002035002180242846224604F04DF809A91B
:101AF0002846224604F051F82BB0F0BD29A86946CB
:101B000048602AA8086011A2384631462B46FEF7E5
:101B10003BFC022CF0D02A9929A86A4650602AA8DA
:101B200010607818711A0AA22B46FEF72DFCE3E725
:101B30005B2000005265717569726564204175749F
:101B40006873000025730000205D00004944000018
:101B50004A534F4E00000000E27F00006C7F0000FF
:101B6000F0B5AFB01C4615460E4600212E910A91E5
:101B70002D912DA96A4651602EA91160471C974AE4
:101B80007A4438463146FEF7FFFB002D00D1EDE0E8
:101B90002E982DA96A4651602EA911603F18361A59
:101BA0008F4A7A44384631462346FEF7EDFB012D35
:101BB00000D1DBE02E982DA96A4651602EA9116054
:101BC0003F18361A6CA2384631462346FEF798FB7A
:101BD000022D00D1CAE02E982DA96A4651602EA987
:101BE00011603F18361A67A2384631462346FEF781
:101BF000AFFA032D00D1B9E009942E9C385D01287D
:101C000002D07948784401E07648784460A1099A86
:101C1000FEF73AFA3F19042D00D1A7E078780128A1
:101C200002D07348784401E0704878445BA1099A77
:101C3000FEF72AFA781C052D00D197E008942CAF06
:101C40000A9C3C70451C01223846294603F0A5FF3A
:101C50003878012808D0002800D089E05EA056A17D
:101C6000099AFEF711FA81E0681C697800297FD192
:101C70000BAF3C70451C01223846294603F08DFF0E
:101C80000CA880214BA2049105F0A6F83878002812
:101C900055D0701F0899411A099E20366D1C049F6B
:101CA000039607910A942DAA0892684642602EAACC
:101CB00006920260284640A2099BFEF765FB2E981B
:101CC000059034460CAE304607F036FD3218391A0E
:101CD00010463DA2234605F07FF86846069901604C
:101CE00008994160059AA8180799891A08900791E0
:101CF00031A2099B0A9CFEF72BFA2E9DE7B23046D3
:101D000007F01AFD0BAA1178491E8F42069202D0E5
:101D1000384A7A4400E02EA23318049F391A184634
:101D2000039E334605F058F80798411B089845195B
:101D3000641CE0B2069A12789042B2D302E0099E87
:101D40002036049F0CAD284607F0F6FC2B18391AF4
:101D500020A2184605F040F8002130463A4603F02C
:101D600013FF304629463A4603F017FF2FB0F0BD67
:101D7000012003F0C6FFC0464D6178205061796FA5
:101D80007574000050657263656E742048424400AB
:101D9000416C6C6F7720566F74657300416C6C6F8B
:101DA00077204375726174696F6E20526577617236
:101DB000647300005B20000042656E6566696369BC
:101DC00061726965730000002573202D20000000FA
:101DD00025730000205D00005B5D0000877D000032
:101DE0006C7D0000527D00005D7D0000327D0000B2
:101DF0003D7D0000CC7C0000F0B585B01C4615464A
:101E00000E4600210491039103A96A46516004A97A
:101E10001160471C1AA238463146FEF7B5FA002D6C
:101E20002BD0049803A96A46516004A911603F1899
:101E3000361A17A2384631462346FEF7A5FA012D79
:101E40001BD0049803A96A46516004A911603F1889
:101E5000311A12A238462346FEF7C4F9022D0CD0DF
:101E60000498385C012802D01248784401E01048F8
:101E700078440CA12246FEF707F905B0F0BDC04634
:101E800046726F6D204163636F756E7400000000D1
:101E9000546F204163636F756E7400005065726308
:101EA000656E74004175746F766573740000000090
:101EB000EC7A0000F77A000070B584B01C46154635
:101EC00000220392029202AA6B465A6003AA1A6089
:101ED000461C0C4A7A4430462346FEF755FA012D3B
:101EE0000BD0039802A96A46516003A9116030180B
:101EF000102103A22346FEF703FA04B070BDC046CA
:101F0000466565009E7A0000F0B5B5B01F461646DE
:101F10000C46002134910991339133A96A465160EE
:101F200034A91160451CF04A7A4428462146FEF740
:101F30002BFA3498241A2D18002E00D1D2E133A8A0
:101F40006946486034A80860E84A7A442846214631
:101F50003B46FEF719FA3498211A2818012E00D1B1
:101F6000C0E1039633AB6A46536034AB1360E04A7A
:101F70007A44089107903B46FEF734F9349C0B975E
:101F80003D46203513A88027DA4A7A4439462B4645
:101F900004F022FF0C952846099E31463A4603F08C
:101FA000F3FD12AD2E70079806190122284631461E
:101FB00003F0F3FD0898401E011B741C28780028CC
:101FC0000A9748D0099E0594079133AA099268465A
:101FD000426034AA06920260C74A7A4408922046B8
:101FE0000B9BFEF7D1F9349D13AF384607F0A4FBE5
:101FF00069460C9A0A603C180A99091AF0B2431C07
:10200000BE4A7A44204604F0E7FE6846069901601D
:10201000099941600598411909910798441B0846A0
:102020002146089A0B9BFEF793F8349D384607F03B
:1020300083FB3B180A99091AB14A7A4418460C9B4B
:1020400004F0CAFE611B09984419761CF0B212AA6A
:1020500012789042B7D311AF00253D700E46012291
:102060003846214603F099FD721E631C387800281B
:102070004BD0A44878440790A34878440590A348DF
:10208000784404900893099233A906916846416008
:1020900034AE066018461146079A0B9BFEF71AF8F5
:1020A000349C13AF384607F047FB69460C9A0A6028
:1020B0003A180A99091AE8B2431C1046059A04F026
:1020C0008BFE6846066006994160089801190891E0
:1020D0000998041B08462146079A0B9BFEF738F81F
:1020E000349E384607F028FB3A180A99091A104618
:1020F000049A0C9B04F070FEA21B089883196D1CB7
:10210000E8B211A909788842BCD30398022800D10B
:10211000DCE013AF0021079180263846144609946D
:1021200032461D46089503F02FFD33A869464860E6
:1021300034A80860764A7A44284621460B9BFEF76D
:1021400051F8349CFB4A7A44384631460C9D2B4664
:1021500004F042FE2846079D29460A96324603F0BF
:1021600013FD10AF3D70089806190122384631461C
:1021700003F013FD0998401E041B731C38780028D7
:1021800047D005940693079533A9099168464160A5
:1021900034AE0660F54A7A440892184621460B9BF5
:1021A000FEF7F2F8349D13AF384607F0C5FA6946DA
:1021B0000C9A0A603C180A99091A0798C0B2431C85
:1021C000EB4A7A44204604F007FE68460660099907
:1021D0004160069846190598441B30462146089AE6
:1021E0000B9BFDF7B5FF349D384607F0A5FA3B1869
:1021F0000A99091ADF4A7A4418460C9B04F0ECFD50
:10220000641B7319079D6D1CE8B210A909788842F8
:10221000B7D30FAF00253D700122384619461E4640
:1022200003F0BBFC621E731C387800284BD0C248F8
:1022300078440790C14878440590C1487844049098
:102240000893099233A906916846416034AC046052
:1022500018461146079A0B9BFDF73CFF349F13AEBF
:10226000304607F069FA69460C9A0A6032180A99F2
:10227000091AE8B2431C1046059A04F0ADFD684601
:102280000460069941600898C11908910998C71B14
:1022900008463946079A0B9BFDF75AFF349C304697
:1022A00007F04AFA32180A99091A1046049A0C9B48
:1022B00004F092FD3A1B089803196D1CE8B20FA9AF
:1022C00009788842BCD30398032823D100218024B5
:1022D0000C9D2846224603F057FC13A928462246A7
:1022E00003F05BFC35B0F0BD4A7A0000307A0000A4
:1022F0008A7A0000017A0000207A000097790000B5
:1023000069790000867900003079000023790000A7
:102310007E78000013A80790002680243146099299
:1023200022461F46089703F02FFC0C9D2846314695
:10233000224603F029FC33A86946486034A80860A7
:10234000804A7A44384609990B9BFDF74BFF349F2E
:102350007D4A7A44079821462B4604F03DFD2846E5
:1023600031460A94224603F00FFC0EAD2E700898F9
:10237000C41901222846214603F00FFC0998401E8B
:10238000C11B641C2878002846D005940691099644
:1023900033AA08926846426034AE0660704A7A44B6
:1023A000079220460B9BFDF7EFFF349D13AF384695
:1023B00007F0C2F969460C9A0A603C180A99091A92
:1023C0000998C0B2431C674A7A44204604F004FDD1
:1023D0006846066008994160059846190698441BAE
:1023E00030462146079A0B9BFDF7B2FE349D3846D6
:1023F00007F0A2F93B180A99091A5B4A7A44184671
:102400000C9B04F0E9FC611B7419099E761CF0B268
:102410000EAA12789042B8D30DAF00263E700D463A
:1024200001223846214603F0B8FB691E601C3A7849
:10243000002A4BD0454A7A440992454A7A4405928B
:10244000444A7A4404920F460697079033AA0892AA
:1024500069464A6034AD0D603946099A0B9BFDF719
:1024600039FE349C13AF384607F066F969460C9A7A
:102470000A603A180A99091AF0B2431C1046059AE4
:1024800004F0AAFC684605600899416007980019A5
:10249000089006990C1B2146099A0B9BFDF758FEE4
:1024A000349D384607F048F93A180A99091A104637
:1024B000049A0C9B04F090FC671B08984019761C4A
:1024C000F2B20DA909788A42BED300E00F46054654
:1024D000002180220C9E304603F056FB039C042C06
:1024E00003D113A980223046FAE633A86946486032
:1024F00034A80860184A7A442E46304639460B9D67
:102500002B46FDF7E7FD052C00D1EBE6349C0021BE
:1025100080220C9803F038FB33A86946486034A841
:1025200008603019391B0D4A7A442B46FDF72CFF01
:10253000D8E6C04645780000847700007477000034
:10254000677700007E760000397600008A7500000B
:102550006E75000061750000D7740000EF73000015
:1025600022760000D1750000A77500001E780000DB
:10257000E8770000AD770000F0B5AFB01D460A92D5
:102580000C4600212E9107912D912DA96A4651608C
:102590002EA91160471C7FA238462146FDF7F4FEA4
:1025A0002E98261A3C182F460A9D002D00D1EEE0E9
:1025B0002DA8694648602EA808607B4A7A442046C8
:1025C00031463B46FDF7E0FE2E98311A2418012DC6
:1025D00000D1DCE02DA86A4650602EA81060734A36
:1025E0007A44204606913B46FDF7FCFD3D462E9F72
:1025F000099520350DA880266D4A7A4431462B4630
:1026000004F0EAFB0A952846079D294608963246BB
:1026100003F0BAFA0CAE3570E519012230462946AE
:1026200003F0BBFA0698401EC11B6F1C30780028CF
:1026300048D0079D039705912DAA079268464260EE
:102640002EAA049202605B4A7A4406923846099B9D
:10265000FDF79AFE2E9F0DAE304607F06DF86946E5
:102660000A9A0A6034180899091AE8B2431C524AB7
:102670007A44204604F0B0FB68460499016007994B
:1026800041600398C11907910598C41B084621466B
:10269000069A099BFDF75CFD2E9F304607F04CF82B
:1026A00033180899091A454A7A4418460A9B04F0D7
:1026B00093FBE11B0798C7196D1CE8B20CAA1278AE
:1026C0009042B7D30D460BAE002434700122304641
:1026D000394603F062FA307800284CD07F1C691E1E
:1026E0003748784407903748784403903648784410
:1026F000029005912DAA0692684642602EAA049285
:1027000002603846079A099BFDF7E4FC2E9D0DAE4A
:10271000304607F011F869460A9A0A60321808999B
:10272000091AE0B2431C1046039A04F055FB6846B0
:102730000499016006994160791906910598451B35
:1027400008462946079A099BFDF702FD2E9F304651
:1027500006F0F2FF32180899091A1046029A0A9BED
:1027600004F03AFBE91B0698C719641CE0B20BAAF7
:1027700012789042BDD3002180240A9D284622462B
:1027800003F002FA0DA92846224603F006FA2FB0FC
:10279000F0BDC0465265636F766572792041636310
:1027A0006F756E740000000027740000167400003E
:1027B00091730000AE73000029730000FB720000EB
:1027C00014730000C2720000B5720000F0B5B3B01F
:1027D0001E4617460C46002132910991319131A9CC
:1027E0006A46516032A91160451CEB4A7A4428467A
:1027F0002146FDF7C9FD3298211A2D18002F00D16E
:10280000BDE1039731A86A46506032A81060E34AE0
:102810007A44284608913346FDF7E4FC3298079045
:102820000B96203611A88024DD4A7A44214633468F
:1028300004F0D2FA0C963046099F39460A94224693
:1028400003F0A2F910AE3770079C2D190122304613
:10285000294603F0A2F90898401E041B6B1C30782F
:1028600000284AD00B9E05940893099731A9079137
:102870006846416032AD0560CA4A7A4406921846FD
:1028800021463346FDF780FD329E11AF384606F0F3
:1028900053FF69460C9A0A603C180A99091A09986C
:1028A000C0B2431CC04A7A44204604F095FA6846F8
:1028B000056007994160089885190598841B28468A
:1028C0002146069A0B9BFDF743FC329E384606F0E4
:1028D00033FF3B180A99091AB44A7A4418460C9BEC
:1028E00004F07AFAA41B099FAB190B9E7F1CF8B267
:1028F00010A909788842B6D300E00B9E08930FAF69
:1029000000253D7001223846194603F046F9611E44
:102910000898431C387800284DD0A5487844079083
:10292000A44878440590A4487844049008930991F9
:1029300031AA06926846426032AC04601846079A93
:102940003346FDF7C7FB329E11AF384606F0F4FE62
:1029500069460C9A0A603A180A99091AE8B2431CA7
:102960001046059A04F038FA6846046006994160FA
:102970000898811908910998861B08463146079ADC
:102980000B9BFDF7E5FB329C384606F0D5FE3A1866
:102990000C9F0A99091A1046049A3B4604F01CFA47
:1029A000311B0B9E089803196D1CE8B20FAA127810
:1029B0009042BBD300E00C9F0398012808D100216E
:1029C00080243846224603F0DFF811A93846D3E0C8
:1029D00031A86A46506032A810606AA21846099170
:1029E00008933346FDF7FEFB329C11A88025734AFD
:1029F0007A4429463B4604F0EFF900263846314632
:102A00000A952A4603F0C0F80EAF3E7008980519E3
:102A100001223846294603F0C0F80998401E011BE0
:102A20006B1C3878002846D00C9C0793099131AA7A
:102A300008926846426032AF0760184651A20B9B6D
:102A4000FDF7A2FC3298069011AD284606F074FE00
:102A500069460C602C180A99091AF0B2431C584AAE
:102A60007A44204604F0B8F9684607600899416046
:102A700007980699421808920998441A1046214668
:102A800040A20B9BFDF764FB329F284606F054FEE4
:102A90002B180A99091A4B4A7A4418460C9B04F0E1
:102AA0009BF9E11B0C9C0898C319761CF0B20EAA86
:102AB00012789042B9D309910DAF00263E700122E1
:102AC000384619461C4603F068F8387800284AD082
:102AD000651C0998411E3C48784406903B48784460
:102AE0000590089131AA09926846426032AA07927D
:102AF0000260284623A20B9BFDF7ECFA329F11AC33
:102B0000204606F019FE69460C9A0A6022180A99B6
:102B1000091AF0B2431C1046069A04F05DF96846A3
:102B20000799016009994160E91909910898C71B43
:102B30000846394613A20B9BFDF70AFB329D20463F
:102B400006F0FAFD22180A99091A1046059A0C9BFC
:102B500004F042F9791B09984519761CF0B20DAAC8
:102B600012789042BDD3002180240C9D2846224635
:102B700003F00AF811A92846224603F00EF833B0F4
:102B8000F0BDC046526563656E74204F776E657206
:102B90002041757468000000F7710000E6710000C4
:102BA000617100007C710000F3700000C9700000CA
:102BB000DA700000887000007B7000009B6F0000DE
:102BC000396F00000B6F0000D26E0000C56E000070
:102BD000F0B585B01C4616460D46002104910391C0
:102BE00003A96A46516004A91160471C104A7A443F
:102BF00038462946FDF7C8FB002E0BD0049903A8E0
:102C00006A46506004A810607818691A02A2234628
:102C1000FDF7BAFB05B0F0BD4E6577205265636FD6
:102C200076657279204163636F756E7400000000F1
:102C3000F56D0000F0B585B01C4615460E46002126
:102C40000491039103A96A46516004A91160471CCD
:102C50001C4A7A4438463146FDF796FB002D2DD0AC
:102C6000049803A96A46516004A911603F18361AF6
:102C700013A2384631462346FDF786FB012D1DD0B1
:102C8000049803A96A46516004A911603F18361AD6
:102C90000D4A7A44384631462346FDF731FB022D72
:102CA0000CD0049903A86A46506004A810607818F4
:102CB000711A064A7A442346FDF766FB05B0F0BD5B
:102CC000546F0000D36C0000986C00007D6C000015
:102CD000F0B585B01C4615460E46002104910391BF
:102CE00003A96A46516004A91160471C254A7A4429
:102CF00038463146FDF748FB002D3ED0049803A925
:102D00006A46516004A911603F18361A1E4A7A4477
:102D1000384631462346FDF765FA012D2DD004983B
:102D200003A96A46516004A911603F18361A14A21B
:102D3000384631462346FDF727FB022D1DD0049867
:102D400003A96A46516004A911603F18361A0F4A58
:102D50007A44384631462346FDF7D2FA032D0CD08B
:102D6000049903A86A46506004A810607818711A84
:102D7000074A7A442346FDF707FB05B0F0BDC0467D
:102D8000546F0000376C0000596C0000DA6B0000D3
:102D9000BF6B0000F0B585B01C4616460D460021FD
:102DA0000491039103A96A46516004A91160471C6C
:102DB0000B4A7A4438462946FDF7E6FA002E0CD035
:102DC000049903A86A46506004A810607818691A2C
:102DD000044A7A442346FDF705FA05B0F0BDC04623
:102DE000736B0000956B000070B584B01C461546EF
:102DF00000220392029202AA6B465A6003AA1A604A
:102E0000461C0D4A7A4430462346FDF7BDFA002D94
:102E10000CD00398305C012802D00948784401E0C6
:102E20000648784402A12246FDF72EF904B070BD91
:102E30004465636C696E6500326B00003A6B00009C
:102E4000456B0000F0B5AFB01F4614460D4600219B
:102E50002E9107912D912DA96A4651602EA91160DE
:102E6000461C7EA230462946FDF78EFA002C00D182
:102E7000F2E02E982DA96A4651602EA911603618ED
:102E80002D1A7AA2304629463B46FDF77DFA012CE1
:102E900000D1E1E02E982DA96A4651602EA911605B
:102EA0003418291A0691764A7A4420463B46FDF7A3
:102EB00099F92E980590099720370DA88026714A18
:102EC0007A4431463B4603F087FF0A973846079D10
:102ED00029460896324602F057FE0CAE3570059F23
:102EE000E51901223046294602F057FE0698401E99
:102EF000C11B6B1C3078002848D0079D03930591B7
:102F00002DAA0792684642602EAA049202605E4A89
:102F10007A4406921846099BFDF736FA2E9F0DAEAD
:102F2000304606F009FC69460A9A0A603418089986
:102F3000091AE8B2431C554A7A44204603F04CFF74
:102F4000684604990160079941600398C119079187
:102F50000598C41B08462146069A099BFDF7F8F818
:102F60002E9F304606F0E8FB33180899091A484AA4
:102F70007A4418460A9B03F02FFFE11B0798C319F8
:102F80006D1CE8B20CAA12789042B7D30D460BAE76
:102F9000002434700122304619461F4602F0FDFD20
:102FA000307800284CD07F1C691E3A48784407903E
:102FB00039487844039039487844029005912DAA05
:102FC0000692684642602EAA049202603846079A2A
:102FD000099BFDF77FF82E9D0DAE304606F0ACFB49
:102FE00069460A9A0A6032180899091AE0B2431C25
:102FF0001046039A03F0F0FE6846049901600699B2
:103000004160791906910598451B08462946079A9B
:10301000099BFDF79DF82E9F304606F08DFB321878
:103020000899091A1046029A0A9B03F0D5FEE91B7B
:103030000698C719641CE0B20BAA12789042BDD35F
:10304000002180240A9D2846224602F09DFD0DA9FC
:103050002846224602F0A1FD2FB0F0BD52657365EF
:1030600074204163636F756E740000004163636F89
:10307000756E7420546F20526573657400000000F3
:103080004E6B0000CB6A0000E66A0000616A000037
:10309000336A00004A6A0000F8690000EB6900002A
:1030A000F0B585B01C4615460E46002104910391EB
:1030B00003A96A46516004A91160471C1C4A7A445E
:1030C00038463146FDF760F9002D1BD0049803A95E
:1030D0006A46516004A911603F18361A0AA23846A0
:1030E00031462346FDF750F9012D0BD0049903A872
:1030F0006A46506004A810607818711A07A2234627
:10310000FDF742F905B0F0BD437572205265736555
:1031100074204163636F756E740000004E65772004
:103120005265736574204163636F756E74000000AF
:1031300078680000F0B585B01C4615460E460021A3
:103140000491039103A96A46516004A91160471CC8
:10315000244A7A4438463146FDF716F9002D2BD023
:10316000049803A96A46516004A911603F18361AF1
:1031700012A2384631462346FDF7C2F8012D1BD076
:10318000049803A96A46516004A911603F18361AD1
:103190000DA2384631462346FDF7B2F8022D0BD07A
:1031A000049903A86A46506004A810607818711A40
:1031B00008A22346FDF7A4F805B0F0BD526577617B
:1031C00072642048697665005265776172642048B0
:1031D000424400005265776172642056455354534F
:1031E00000000000E4670000F0B585B01C461546FD
:1031F0000E4600210491039103A96A46516004A977
:103200001160471C12A238463146FDF7BDF8002D6B
:103210001CD0049803A96A46516004A911603F18A4
:10322000361A0EA2384631462346FDF7ADF8012D79
:103230000CD0049903A86A46506004A8106078185E
:10324000711A094A7A442346FDF75AF805B0F0BDD1
:1032500044656C656761746F7200000044656C655D
:103260006761746565000000FA660000F0B585B01E
:103270001C4615460E4600210491039103A96A4697
:10328000516004A91160471C414A7A4438463146CE
:10329000FDF77AF8002D5CD0049803A96A465160C6
:1032A00004A911603F18361A2BA23846314623462E
:1032B000FDF76AF8012D4CD0049803A96A465160C5
:1032C00004A911603F18361A26A238463146234613
:1032D000FCF788FF022D3CD0049803A96A46516090
:1032E00004A911603F18361A21A2384631462346F8
:1032F000FCF778FF032D2CD0049803A96A4651608F
:1033000004A911603F18361A1CA2384631462346DC
:10331000FCF7F6FF042D1CD0049803A96A465160FF
:1033200004A911603F18361A17A2384631462346C1
:10333000FDF72AF8052D0CD0049903A86A465060C1
:1033400004A810607818711A124A7A442346FDF7CF
:103350001BF805B0F0BDC0465265636569766572BD
:1033600000000000537461727420446174650000B1
:10337000456E642044617465000000004461696C1E
:1033800079205061790000005375626A65637400AA
:10339000E8660000C4650000F0B5ABB016460F4605
:1033A00000242A942994289429A96A4651602AA9BC
:1033B0001160451C3E4A7A44284639460793FCF77B
:1033C000E3FF002E6BD0059704962A9803902D18E2
:1033D000042128AA284600F06DFE07462A9708A86F
:1033E000802130A2069103F0F7FCEE1928980028FE
:1033F0002CD005980399401AC51B079820300590DA
:1034000029A8694648602AA808602A4A7A443046B2
:103410002946079BFCF72EFF08AF384606F08CF9CB
:103420002899491E8C4202D0234A7A4400E01EA209
:103430003B180699091A1846059B03F0CDFC2A98FB
:103440002D1A3618641C28988442D9D308AC20461B
:1034500006F072F923180699091A14A2184603F007
:10346000BBFC049801280DD1079D20350021802444
:103470002846224602F088FB08A92846224602F088
:103480008CFB0CE03078012802D00D48784401E034
:103490000A4878440B497944079AFCF7F5FD2BB0AC
:1034A000F0BDC0465B20000025730000205D0000D9
:1034B0004B650000F9650000B4650000CA640000B7
:1034C000D564000040650000F0B5A9B015460C4673
:1034D000002728972797269727A96A46516028A989
:1034E0001160461C31A2304621460593FCF74CFF83
:1034F000002D59D0289803903618042126AA30466A
:1035000000F0D8FD0546289506A880212BA204913D
:1035100003F062FC269800282FD076190398201A11
:10352000441B059B18462030039027A86946486035
:1035300028A80860244A7A4430462146FCF79AFEBF
:1035400006AD284606F0F8F82699491E8F4202D0AB
:103550001E4A7A4400E01AA22B180499091A184648
:10356000039B03F039FC2898241A36187F1C2698F0
:103570008742059BD9D3039D01E0059D203506AC0C
:10358000204606F0D9F82318049E311A0DA21846D9
:1035900003F022FC00212846324602F0F5FA2846C4
:1035A0002146324602F0F9FA29B0F0BD50726F7030
:1035B0006F73616C204F776E657200005B200000B6
:1035C00025730000205D0000CF6400008C640000C3
:1035D000F0B581B01E4617460D4604469320820082
:1035E0000021204602F0D0FA6560A7604920C000A3
:1035F00026500120207091208000069921542846F1
:1036000003F09CFEA06803F099FE01B0F0BD00003D
:1036100080B5426B002A07D0036B19785B1C521EE1
:1036200003634263084680BD02A003F02FFA012025
:1036300002F067FB726561645478427974652055C5
:103640006E646572666C6F770A00000010B50C46F8
:1036500002464920C000235818782233216A443496
:10366000132812DC072823DD0B283DDD102868DD38
:10367000112800D1A6E0122800D1A7E0132800D01D
:10368000E8E02046FEF76CFA10BD21281EDD262852
:1036900036DD2B285EDD2C2800D19BE02D2800D1C3
:1036A0009CE02E2800D0D5E02046FFF70DFF10BD8E
:1036B000032830DC012855DC002800D192E00128E5
:1036C00000D0C7E02046FCF70DFF10BD18282DDC08
:1036D00016284FDC142800D188E0162800D0B9E065
:1036E0002046FEF7E9FB10BD09284BDC082800D175
:1036F00080E0092800D0ADE02046FDF771F910BD4B
:10370000242847DC222879D0242800D0A2E02046B3
:10371000FFF76AFB10BD052844DC042872D0052899
:1037200000D097E02046FDF723F810BD1F2841DCAC
:1037300019286BD01A2800D08CE02046FFF748FAF1
:1037400010BD0C2866D00D2800D083E02046FEF77F
:10375000CDF810BD272861D028287BD12046FFF75F
:1037600043FD10BD02285DD0032873D12046FCF72D
:103770009DFF10BD172859D018286BD12046FEF7A1
:10378000FBFE10BD0A2855D00B2863D12046FDF75B
:1037900087FF10BD252851D026285BD12046FFF792
:1037A0007FFC10BD06284DD0072853D12046FDF7D9
:1037B00099F810BD202849D021284BD12046FFF789
:1037C00087FA10BD2046FEF7BBF810BD2046FEF775
:1037D000E1F810BD2046FFF749FD10BD2046FFF778
:1037E000DBFD10BD2046FCF72DFE10BD2046FEF788
:1037F00003FB10BD2046FDF7B7F810BD2046FFF7CC
:10380000C9FA10BD2046FCF78BFF10BD2046FEF71D
:10381000DDFF10BD2046FEF727F810BD2046FFF75C
:1038200089FC10BD2046FCF7F1FE10BD2046FEF7D6
:103830006BFB10BD2046FDF719FC10BD2046FFF7BD
:1038400001FB10BD2046FDF723F810BD2046FFF711
:10385000F1F910BD012002F054FA0000F0B595B066
:1038600015460E46044609AF384605F01BFF38855D
:10387000FC49084203D009A8002606850DE009A8E6
:1038800002F0D7F8606B002801D126636563A07849
:10389000002813D00020A070032602F037FA09A9EF
:1038A000884203D102F034FA02F0C3F809A8008D6F
:1038B000002800D00DE3F0B215B0F0BD4920C000E3
:1038C0002018089020462530079020461830069092
:1038D0002646383620460C30049027462437039776
:1038E0000596E8E2207804260828D6D0606B0126E9
:1038F0000028D2D03878002837D12046FFF788FE3C
:10390000E16A4A1CE262611825228854E16A14AD1A
:103910000798049A2B4600F053FD074628780028A4
:1039200008D00520002F09D1E16A0020052905D122
:10393000E1A000E0E7A003F0A9F801200721014081
:10394000002903D1606B0028D7D101E0052908D1F7
:10395000012F039FA1D100202061E0620120387077
:1039600003E000260028039F97D1207804282CDC50
:10397000401E042800D3A6E2E56823699D4218D9B9
:103980006068226B676B00216E4631607160EB1AD4
:103990009F4200D31F463B4603F09EFC206BC0199C
:1039A0002063606BC01B60632069C3192361E568F5
:1039B000039FAB4204D12078401C20700020387057
:1039C000A078002800D176E264E705282BD00628ED
:1039D00050D0072800D076E2E3682569AB4200D8D2
:1039E000A3E06068226B676B00216E4631607160F6
:1039F0005B1B9F4200D31F463B4603F06DFC2069D2
:103A000020183830216B3A4602F0C7F8206BC019F5
:103A10002063606BC01B60632069C5192561E36882
:103A2000059E039F82E0E3682569AB4200D897E0DA
:103A30006068226B676B00216E46316071605B1BB2
:103A40009F4200D31F463B4603F046FC20692018E6
:103A50003830216B3A4602F0A0F8206BC019206381
:103A6000606BC01B60632069C5192561E368059E12
:103A7000039F76E004980168480A00D02BE223698E
:103A8000994232D96068226B676B00256E463560BB
:103A90007560C91A8F4200D30F4629463B4603F092
:103AA0001BFCA068226B69460D604D6029463B46B1
:103AB00003F012FC206920184430216B3A4602F0D2
:103AC0006CF82069002806D1216B08980068012253
:103AD00002F063F82069216BC9192163616BC91B6E
:103AE0006163C3192361E168039F8B4200D067E7DC
:103AF0002162089800680178132946DC07295ADDFD
:103B00000B2900DC80E0102900DCBBE0112900D18A
:103B100037E1122900D13AE1132900D0E0E1072171
:103B20004170801C704979447EE1059E9D4200D021
:103B300046E700271497591C14AA304600F0BAFA39
:103B40001498002800D0C9E10C223046394602F012
:103B50001BF82078401C20700398077007462FE759
:103B6000059E9D4200D02BE7591C3046069A00F076
:103B7000A1FA002565610C223046294602F004F8BE
:103B80002078401C20703D701AE721292BDD262962
:103B900049DD2B2900DC81E02C2900D1FEE02D2914
:103BA00000D101E12E2900D09AE102214170801C50
:103BB0001022D6A170E1032944DC012900DD95E043
:103BC000002900D1F6E0012900D089E107214170E8
:103BD00000214172742101726E21C17165218171D0
:103BE0006D21417107E118293EDC162900DD89E0CD
:103BF000142900D1EBE0162900D071E102214170B7
:103C0000801CDC49794438E1092900DD87E0082976
:103C100000D1E3E0092900D062E108214170801C55
:103C2000D149794422E1242900DD84E0222900D110
:103C3000E7E0242900D053E102214170801CD149E2
:103C400079449CE0052900DD81E0042900D1DFE012
:103C5000052900D044E106214170801CC049794407
:103C600012E1C046FFFF00001F297DDC192900D1A9
:103C7000D5E01A2900D033E102214170801CBF49F0
:103C8000794416E00C2900D1D0E00D2900D027E1BD
:103C900002214170801CB649794470E0272900D187
:103CA000CAE0282900D01BE103214170801CB649DD
:103CB00079441822F0E0C046544C56207072652DAD
:103CC0006465636F6465206C6F67696320657272F9
:103CD0006F720A00544C56206465636F64696E67A6
:103CE000206572726F720A0026600000022900D1FE
:103CF000A9E0032900D0F3E003214170801C97491B
:103D00007944C8E0172900D1A4E0182900D0E7E0E1
:103D100003214170801C984979441922BCE00A298A
:103D200000D19EE00B2900D0DAE004214170801C14
:103D30008E4979449AE0252900D199E0262900D0BE
:103D4000CEE003214170801C12227EA1A4E006294E
:103D500000D194E0072900D0C2E003214170801C0B
:103D6000804979440D2297E0202900D18EE0212955
:103D700000D0B5E005214170801C814979441622AC
:103D80008AE002214170801C854979446EE004215B
:103D90004170801C834979440C227DE007214170E9
:103DA000801C102263A177E003214170801C162241
:103DB0005AA171E0042141706521417174210171A2
:103DC0006F21C170762181700021817166E003212D
:103DD0004170801C744979441B225DE003214170CD
:103DE00000214172742101727221C17165218171BA
:103DF000762141716E2101716F21C1706321817043
:103E00004CE002214170801C6B4979441D2243E043
:103E100002214170801C5E49794411223CE003215B
:103E20004170801C62497944102235E003214170C1
:103E3000801C5A49794404E004214170801C604987
:103E40007944152228E004214170801C4F497944AF
:103E5000092221E007214170801C5449794417222E
:103E60001AE007214170801C4B4979440F2213E06E
:103E700003214170801C514979440E220CE002213B
:103E80004170801C43497944132205E004214170AC
:103E9000801C48497944142205F074FB6069401C79
:103EA0006061A169884201D307202070002038702A
:103EB0000120607084E56078002800D112E50020C0
:103EC00060700226E9E44048784402F0DFFD0026F5
:103ED000E3E401F016FF2048784403E004A001E089
:103EE0003848784402F0D2FD012001F00AFFC046B4
:103EF0007A65726F53697A654669656C64206D7581
:103F0000737420626520300A0000000072656D6FD6
:103F100076655F70726F706F73616C00757064614D
:103F200074655F70726F706F73616C5F766F7465CC
:103F3000730000006372656174655F70726F706F0B
:103F400073616C007365745F72657365745F616340
:103F5000636F756E74000000575B0000705D0000B9
:103F60003A5E00005E5D0000AE5E0000BE5D0000D7
:103F7000805E0000745F0000885E00004C5F0000FF
:103F80007C5E0000F05F0000C05F0000165C000077
:103F90006C5C0000265C0000765C0000CC5C0000DD
:103FA000A65D0000AA5D0000865D00002C5D00009B
:103FB000965D0000505D0000065E0000D05D0000D0
:103FC000185E00006E5B00004A5B0000F0B59BB01D
:103FD000164601960F46044602AD6421284605F0B8
:103FE000CBFA28462146324605F0DAFB284605F092
:103FF000A3FB0646A819394605F096FB384605F09E
:104000009BFB019961188019281805F08DFB20464B
:10401000294605F089FB1BB0F0BD0000F0B585B066
:104020000C460546002D3DD001AF00261022384633
:10403000314601F0A9FD03CD3A46083D00F068F98C
:10404000384605F079FB297A88420ED8009417A7E4
:1040500001AC002220463946FFF7B8FF204605F0A4
:104060006BFB297A8842F3D9009C421A01AF10A158
:104070003846FFF7ABFF384605F05EFB2021395488
:104080003818467009353846294605F025FB1022B8
:104090002046394601F081FD384605F04DFBC0B29F
:1040A00005B0F0BD022001F02CFEC046300000003B
:1040B0002E000000F0B581B00092002529462C4664
:1040C0002B46C25C7F251540E6B2B54029435D1CF6
:1040D00080273A4205D0E21DE0271740F41D202F2B
:1040E000EED300980160581C01B0F0BD70B58AB0E5
:1040F0001C461546002819D0202917D9272C18D975
:104100004021415C01220A400221114301AE31707D
:10411000731C411C2022184601F03FFD212130462E
:104120002A46234600F008F80AB070BD022001F0CC
:10413000E8FD032001F0E5FDF0B5AFB0044620290D
:1041400044D905920693272B3DD925AE0021039132
:1041500025220492304601F017FD212730462146E2
:104160003A4601F01AFD08AC204603F0D1F81420BD
:104170006946486020AD0D600121204632463B462D
:1041800003F0AAF8304621300422294601F005FD4B
:10419000059D28460399069C224601F0F5FC532014
:1041A0002870542068704D20A870E01E0790EA1C0B
:1041B00007AB3046049900F00DF80798C01CA042E8
:1041C00001D22FB0F0BD032001F09BFD022001F0D1
:1041D00098FD0000F0B503AF8BB06E4632607061A1
:1041E0000024B161002908D000247069005D002816
:1041F00003D1641CB0698442F7D37360B569291B8D
:104200008A204843642104F0CDFE024608323E492C
:1042100011406A46531A3062421C9D460021B36227
:1042200018463161B26001F0AFFCF460AC422BD2B1
:10423000316AF2680B467069F261805C316A7362C0
:10424000994202D80028316A19D0356AB16A495DAD
:1042500009020C183A21204605F014F8B06A4155BD
:104260000021002D0BD03A21204604F025FF3934DF
:104270006D1E716A8D42E9D8722C2946E6D8F26922
:10428000521CB0698242D5D17468F5683369B1684F
:10429000B06AC05C002802D15B1C8B42F8D348197D
:1042A000C11A226800208A4227D90021002D3361DB
:1042B00006D0312130682A4601F066FC3369294670
:1042C000B268934215D2306840181446B26AD218C8
:1042D000E31A346A0919491C0C4D7D4414782C5D8D
:1042E0000470401C5B1E521C002BF7D13069091A68
:1042F00074680020326850540120491C2160FC1F62
:10430000053CA546F0BDC046F8FFFF07AE590000CA
:10431000F0B585B00D46034600200490C0430390DD
:10432000002D01DB104606E02D2010700021CB1A75
:10433000A941501C0D460292039944180193184656
:104340002946049E074609370B4673410122122F66
:10435000174600D8049F002B00D11A46002B00D02E
:1043600017460A22049E334604F092FF641C002F75
:10437000E8D100276770114878440490019E0A2212
:10438000304629463B4604F083FF049B9A5C22702A
:1043900009367D410123122E1A4600D83A46002DD7
:1043A00000D12B46002D00D01A46039BE418002AAA
:1043B00006460D46E3D1029805B0F0BD4A5900000B
:1043C00070B5044620781F2505400020042D11D12A
:1043D000012602290FD36578491E8020054204D1A9
:1043E000294611600126304605E07F200540002067
:1043F000042D02D906461E7070BD8D42FBD2A01C52
:104400000021002DEDD0002634463146865D09029C
:104410003143641CE6B2AE42F8D3E2E70146002025
:10442000C2430B785BB2002B0FDB0AD02023CB56A4
:1044300093420ADD0120002B07D12120085CC0092E
:1044400070470123CB56002BF0DB7047F0B581B0ED
:104450000C4605462A7905270420002A00D0074685
:104460000020C143002A00D00146EA785618202EC9
:1044700041D80020202E0ED0701C2023202800DCE4
:104480001846401A811A204605F076F80020401C94
:1044900031182029FBDB2018E919324601F07DFB99
:1044A000F219901C2B5CD71C002B00D00746002073
:1044B000C143002B00D00146AA1852785618202E6E
:1044C00019D80020202E0FD0701C2023202800DCBB
:1044D0001846401A811A2046203005F04DF8002079
:1044E000401C31182029FBDBE91920182030324606
:1044F00001F053FB012001B0F0BDF0B5BBB00C9250
:104500000591039020200D9043980A90429D419878
:104510000690409802900E950D9829180891401C1D
:1045200007900C9800286DD001210B9128460D9C16
:104530002246099301F028FB00270A9D28463946A8
:10454000224601F021FB089807703C460FAE202759
:10455000304629463A4602F007FF6846A0C030467A
:10456000049421460E9A079B02F016FF6846A0C0ED
:10457000304621460C9A099B02F00EFF6846A0C007
:1045800030460B99059A0D9C234602F005FF3046F4
:1045900029463A4602F0E8FE68460E9982C0304647
:1045A0000B990E9A234602F0F7FE08980B990170BA
:1045B000304629463A4602F0D7FE6846A0C030464B
:1045C000049C21460E9A079B02F0E6FE6846A0C0B6
:1045D000304621460C9A099B02F0DEFE6846A0C0D8
:1045E00030460B9C2146059A0D9B02F0D5FE3046C5
:1045F00029460E9D3A4602F0B7FE6846A0C03046F6
:1046000021461FE00020089908700FAC20252046A5
:104610000A9F39462A4602F0A7FE684607604560B1
:104620000126204631460E9A079B02F0B5FE204631
:1046300039462A4602F098FE68460E9922C00E9D21
:10464000204631462A460D9B02F0A6FE002306981E
:1046500000280C9300D164E70D9F069E0FAC202527
:1046600020460A992A4602F07FFE68460E9922C02B
:10467000BE42324600D33A460121204614460E9DE2
:104680002A46234602F088FE03982946224601F076
:1046900084FA361B2746E1D10D94002306980028A2
:1046A0000C9300D138E70020029B195C2A5C401C67
:1046B0008A4206D300210C9106998842F5D30C9BBF
:1046C0002AE73BB0F0BD000010B582B001AC20700D
:1046D0000748784402F090FD0122214602F0CEFD09
:1046E000044979440020024602F040F902B010BDAE
:1046F000AA610000EA56000080B50748784402F03D
:104700007BFD01780120002900D108460349794446
:10471000002202F02BF980BD806100006A56000083
:1047200070B505466878012400281FD0411E104A44
:104730001268012400238A4200D01C468A4215D107
:104740007D26310101280FD002280FD107212846EC
:1047500001F0D2FDF60080190649884204D30721F2
:10476000284601F0C9FD811903484161204670BD0A
:10477000AC180020B80B0000B0180020F0B581B0D4
:1047800004466178012500291DD01C4802687D205F
:10479000C6001B4F032919D1022A17D90721204629
:1047A00001F0AAFD8019B84204D30721204601F088
:1047B000A3FD87191348476110480068FE30C0B256
:1047C0001149FEF743FF284601B0F0BD4B1E002003
:1047D0009A42F9D1022B0ED20721204601F08CFD1E
:1047E0008019B84204D30721204601F085FD8719BE
:1047F00004484761E7E70329D0D0E4E7AC1800207C
:10480000B80B0000B0180020441A002041780120A5
:1048100000290FD0491E08480268012000238A425F
:1048200000D01846012905D88A4203D17D2109010B
:10483000024A51617047C046AC180020B0180020F1
:1048400080B5034979440020024602F08FF880BD0C
:104850003056000010B500F017F8094990220A54AC
:10486000091800244C70801C81B2202001F0DCFD6E
:10487000044979442046224602F078F8204610BDCB
:10488000181E002002560000F0B581B0144F4122DE
:104890003A70781C134C2146083101F07EF9264607
:1048A0004C36304604F048FF054642203D54384619
:1048B000433031462A4601F070F9A820215C284691
:1048C0004330002907D0381888342022214601F0CF
:1048D00064F9633500E00546284601B0F0BDC046E6
:1048E000181E00200018002080B50D49884212D003
:1048F0000C49884211D10C48692101708521417011
:104900002020022101F090FD084979440020024650
:1049100002F02CF801E0FFF79DFF002080BDC046AB
:104920000200008001000080181E00206A5500006F
:1049300010B500F017F8094990220A54091800240C
:104940004C70801C81B2202001F06EFD0449794436
:104950002046224602F00AF8204610BD181E00200C
:1049600026550000F0B5B5B0202768464760414C99
:1049700022462C3202604048012100260691059211
:10498000334602F0A9FC227868460660211D3446B1
:104990002120089025AD04952B4602F081FD1BAE29
:1049A000089829463D463A46334602F011FD40221A
:1049B0000498214601F0E8F8083604962F4F079531
:1049C000002C08940FD00AA86946C86012A8886015
:1049D0004D602D4878440860384664300022059CBC
:1049E000214613460EE01C9B0AA86946C86012A81F
:1049F00088604D6023487844086038466430059CE0
:104A00002146049AFFF779FD2946234609AD6846F9
:104A100064243E46643642C0046045601BA81849C1
:104A2000032202F005FD385D2978C9073A4602D114
:104A3000079D069903E0069908431055079D084015
:104A40001F3010701746541C30462146FFF7FEFCFD
:104A50002046FFF7E3FC089A541C002800D01446B7
:104A60000028ADD01BA80021282201F08DF841209C
:104A700035B0F0BD00180020B41C0020181E002026
:104A800041080000D7520000F9520000F0B581B093
:104A900080265A49884214D0594988420ED15C4830
:104AA00069210170711D41702020022101F0BCFCC0
:104AB0005F4979440020024601F058FF002001B010
:104AC000F0BD504F3868401C38604F4D296888420F
:104AD00033D2C0B24D49FEF7B9FD01F077FA01F0CB
:104AE0007BFA504C0020A06021680029E6D0E169E3
:104AF0004D4A91421ED1E1E761688842DED202F060
:104B000057FD0028DAD1A068E1683825684322689B
:104B10001018002902D08847002807D0012803D1A7
:104B2000A06845432068401901F0A4FBA068401C20
:104B3000A06021680029DFD1C0E734480024214665
:104B40002246FEF78BFE012841D004284DD00228D2
:104B50004ED13C602F484078801C28602B498869E2
:104B6000022805D34B692C4820212CA202F034F9ED
:104B700001F02CFA01F030FA2A4DAC6028680028C8
:104B80009CD0E869284988421ED197E7686884422A
:104B900094D202F00DFD002890D1A868E96838246D
:104BA00060432A681018002902D08847002807D0DF
:104BB000012803D1A86844432868001901F05AFB72
:104BC000A868441CAC6028680028DFD176E710365E
:104BD0000F480670002444702020022101F024FCBC
:104BE000124979442046224666E7FFF7A1FE65E7B1
:104BF00007486A210170467056E7C04602000080EF
:104C000001000080AC180020B01C0020441A0020D5
:104C1000181E002080190020601900204F5020230A
:104C200025640000B0180020445010B092520000DB
:104C3000C253000080B501F01DFB80BDB0B58025DA
:104C40003649884213D0364988420ED13648692108
:104C50000170691D41702020022101F0E5FB3949F6
:104C600079440020024601F081FE0020B0BD2D48AD
:104C7000002421462246FEF7F1FD012839D0042800
:104C800044D0022845D129480025056028484078AD
:104C90002849086001F09AF901F09EF9264CA560B8
:104CA00020680028E1D0E069244988421ED1DCE771
:104CB00060688542D9D202F07BFC0028D5D1A0687B
:104CC000E1683825684322681018002902D0884717
:104CD000002807D0012803D1A06845432068401967
:104CE00001F0C8FAA068451CA56020680028DFD143
:104CF000BBE710350C48057044702020022101F0FC
:104D000093FB0F49794420462246ACE7FFF710FE9B
:104D1000ABE705486A21017045709CE702000080FE
:104D200001000080441A0020181E0020AC1800204A
:104D300080190020B01C0020B0180020445010B092
:104D40007051000014520000B0B5054607202840FD
:104D50000024012813D0022813D1002908D00A48C2
:104D600002F010FC68B2002809DA02F073FA06E0DB
:104D7000FF2152310448002202F030FC0446204654
:104D8000B0BD022000F0BDFF181E0020F0B5A3B09A
:104D900013461A785F1CD523DD01531EDBB20A2BA4
:104DA00000D3A9E0022800D3A2E0012900D99FE0A6
:104DB000299B0293289B039311AB14463D782D0643
:104DC0007E7836042E43BD782D023543FE782E437F
:104DD00040C33F1D641EF1D100260129344600D195
:104DE0000C460690A8234C4DEC54284688300129E7
:104DF00000D03046694608600596212611A91BAFF0
:104E000030463B4602F04CFB2022049207AC304671
:104E10003946234602F0DCFA012330462946224671
:104E200002F0EEFA28222046059C214600F0ACFE56
:104E300038462146049A00F0A7FE284608304C3533
:104E400041213C232A46FFF751F9069800285AD001
:104E5000324800250560324802210160314C334858
:104E600078442060072060603148784420613148F0
:104E70007844E06003202076E5612046183002F097
:104E80003DFBE06101F000FE01F0A0F801F0A4F8A4
:104E9000A5602068002824D0E069234988421ED1FB
:104EA0001FE0606885421CD202F082FB002818D106
:104EB000A068E1683825684322681018002902D0EC
:104EC0008847002807D0012803D1A06845432068FF
:104ED000401901F0CFF9A068451CA56020680028A2
:104EE000DFD1039A106810210143116023B0F0BD97
:104EF0008035284600F005FF0F48784401F0C6FDD4
:104F0000284600F0FEFEFFF7BFFC0299086009206A
:104F1000000300F0F6FEC04600180020AC18002088
:104F2000B01C0020B0180020445010B0A050000069
:104F30007BFAFFFFADF8FFFF704E000080B50C4814
:104F4000784402F059F9017801200029024600D185
:104F50000A4606490A70487000208870C870039895
:104F6000042101600920000300F0CBFE181E002080
:104F70003C590000F0B585B01E461546D522D70134
:104F80006B221302802834D0002800D0FCE003916B
:104F9000049728788E490870421ED2B20A2A00D39C
:104FA000FFE00293761E6D1C00229300CB182F7831
:104FB0003F066C7824043C43AF783F022743EC78EB
:104FC0003C435C60B3B2834C1E192D1D521C8242BF
:104FD000EBD39F48784402F00FF9007869460860E7
:104FE0007D487E497E4A7F4BFEF7F2FA049F029B82
:104FF0000399002900D0C7E077480078002800D145
:10500000C5E0B2B2744E30462946FEF727FC0921AE
:105010000C03022813DC00D0BEE0734800250560B5
:1050200070484778714C2760B06902285AD3736979
:105030006F4820216FA201F0CFFE276858E00328B7
:1050400000D0B5E0B3697048202170A201F0C4FE21
:10505000654800250560654802210160684C7D486F
:1050600078442060072060607B48784420617B485A
:105070007844E06003202076E5612046183002F095
:105080003DFAE06101F000FD00F0A0FF00F0A4FF98
:10509000A5602068002870D0E0695A4988421ED176
:1050A0006BE06068854268D202F082FA002864D121
:1050B000A068E1683825684322681018002902D0EA
:1050C0008847002807D0012803D1A06845432068FD
:1050D000401901F0CFF8A068451CA56020680028A1
:1050E000DFD14AE042485E4979440C2204F04AFA92
:1050F000B81C2060424C5B48784420600920606006
:1051000059487844206159487844E060032020766B
:10511000E5612046183002F0F1F9E06101F0B4FCDD
:1051200000F054FF00F058FFA5602068002824D04C
:10513000E069344988421ED11FE0606885421CD274
:1051400002F036FA002818D1A068E16838256843D3
:1051500022681018002902D08847002807D00128AB
:1051600003D1A06845432068401901F083F8A06886
:10517000451CA56020680028DFD10A98016810222C
:105180000A43026005B0F0BD184600F0BAFD2AA03F
:1051900001F07CFCFB3F17E0002815D001280DD062
:1051A0000FE03348784401F071FC049800F0A9FD49
:1051B000042806D10B9DFFF7D5FB2860204600F0A0
:1051C000A0FD16A001F062FC384600F09AFDC04632
:1051D00000180020FCFF0000441A0020B41C00202E
:1051E000201D002080190020AC180020B01C0020D9
:1051F00060190020416374696F6E202325640000EC
:10520000B0180020445010B0901C00202564206F7E
:105210007065726174696F6E73000000556E657819
:105220007065637465642070617273657220737455
:10523000617475730A000000506172736572206EAC
:105240006F7420696E697469616C697A65640A00BB
:10525000A85800002C520000CFFBFFFF99F7FFFF7A
:1052600098510000904F000087F9FFFF71F6FFFF93
:10527000C64B000070B58EB00C46054603AE3046F6
:1052800004F010FA308581B2002923D010294FD0C4
:1052900003A900220A850F210A030240FF21090207
:1052A0000140090A03235B039A4209D009231B0327
:1052B0009A4205D02B4908400D21C9020843010A32
:1052C0002268274B99542168591848702068801C1F
:1052D00020601EE003A800F0ACFB214A1078D4281F
:1052E0002CD1507802280BD004282BD11379D178F7
:1052F00090786E4635607460521DFFF73BFE08E003
:10530000D17890786B461D605C60521D0023FFF7DA
:105310003DFD00F0FBFC03A9884203D100F0F8FC3E
:1053200000F087FB03A8008D002809D10EB070BDE6
:1053300003A800210185102000F0E3FC3720400283
:1053400000F0DFFC062806D16846446000200146D4
:105350000346FFF7F3FD6D20000200F0D2FCC046CB
:10536000181E0020FF07000070B590B000250F95B3
:105370000E950D95304E0CA8058001AC204604F02A
:1053800091F9208581B2002911D0102947D001A9B7
:105390000D850F210903014009221203914203D018
:1053A00003225203914219D10CA908801DE001A8E3
:1053B00000F03FFB0E980F9000240E940D980F996B
:1053C000C0B289B201F030F80F900D940F98002808
:1053D0002AD00DA80EA9FFF74DFF11E0154908408E
:1053E0000D21C90201430CA801800C98000A0E99F6
:1053F00070540C980E99711848700E98801C0E907D
:1054000000F084FC01A9884203D100F081FC00F087
:1054100010FB01A8008D0028ADD000F072FC01A89F
:105420000585102000F06DFC014800F06AFCC046C4
:1054300082690000FF070000181E0020F0B585B04B
:10544000E04D2878E04F0C2810DD0D287BD00E2889
:1054500000D1B8E0152835D1DC480078012831D1D9
:10546000A87900072ED4102000F04BFC052800D1AD
:10547000EBE00C2826D1D64C012020760026E661F0
:105480002046183002F03AF8E06101F0FDFAE069D8
:10549000D049884200D191E2002800D18EE2FD4936
:1054A000884200D01FE200F091FD00F095FDA6605B
:1054B0002068002800D181E2E069F849884200D0E4
:1054C00031E17BE2F44C012020760025E5612046A5
:1054D000183002F013F8E06101F0D6FAE069B84242
:1054E00000D0D8E000F072FD00F076FDA5602068E5
:1054F000002800D162E2E069E849884220D15DE2FB
:105500006068854200D359E202F052F8002800D0CA
:1055100054E2A068E1683825684322681018002921
:1055200002D08847002807D0012803D1A06845434E
:105530002068401900F09EFEA068451CA560206808
:105540000028DDD13AE2D44C012020760025E56127
:105550002046183001F0D2FFE06101F095FAE069D1
:10556000CE49884200D129E2CA49884200D182E16D
:10557000002800D122E22068002800D118E2A068AB
:105580006168884200D313E202F012F8002800D0CC
:105590000EE2A068E16838256843226810180029E7
:1055A00002D08847002807D0012803D1A0684543CE
:1055B0002068401900F05EFEA068401CA0602168D1
:1055C0000029DDD1F4E1B44C012020760026E6610B
:1055D0002046183001F092FFE06101F055FAE569CC
:1055E000BD4200D0C5E000F0F1FC00F0F5FC002069
:1055F000A0602168002900D1E0E1E169F84A914208
:1056000020D1DBE16168884200D3D7E101F0D0FF0F
:10561000002800D0D2E1A068E168382568432268FC
:105620001018002902D08847002807D0012803D18C
:10563000A06845432068401900F01CFEA068401C8B
:10564000A06021680029DDD1B8E1E24C012020767C
:105650000026E6612046183001F050FFE06101F0BD
:1056600013FAE069DE49884200D1A7E1002800D1A1
:10567000A4E1D749884200D06FE100F0A7FC00F018
:10568000ABFCA6602068002800D197E1E069D4490E
:1056900088426BD192E12068002800D188E1A0689F
:1056A0006168884200D383E101F082FF002800D0C6
:1056B0007EE1A068E1683825684322681018002957
:1056C00002D08847002807D0012803D1A0684543AD
:1056D0002068401900F0CEFDA068401CA060216841
:1056E0000029DDD164E16068864200D366E101F003
:1056F0005FFF002800D061E1A068E16838256843B9
:1057000022681018002902D08847002807D00128F5
:1057100003D1A06845432068401900F0ABFDA068A4
:10572000461CA66020680028DDD147E160688642FB
:1057300000D343E101F03CFF002800D03EE1A06827
:10574000E1683825684322681018002902D088478C
:10575000002807D0012803D1A068454320684019DC
:1057600000F088FDA068461CA66020680028DDD1F6
:1057700024E1606900284FD064216428024600D3E8
:105780000A46801A6061113FBD4245D0002D43D0CA
:10579000002841D19048016800293DD08F4F3868DA
:1057A000401C03F085FC396000F010FC00F014FC94
:1057B000A660206800282FD0E0698949884229D155
:1057C0002AE0C0468C1D0020555010B0741F0020E8
:1057D000B0180020445010B0606886421CD201F01E
:1057E000E7FE002818D1A068E168382670432268D7
:1057F0001018002902D08847002807D0012803D1BB
:10580000A06846432068801900F034FDA068461C5B
:10581000A66020680028DFD17148854200D1CDE024
:10582000002D00D1CAE02068002800D1C0E0A068A7
:105830006168884200D3BBE001F0BAFE002800D0C6
:10584000B6E0A068E168382568432268101800298E
:1058500002D08847002807D0012803D1A06845431B
:105860002068401900F006FDA068401CA060216877
:105870000029DDD19CE000F0A9FB00F0ADFBA560A4
:105880002068002800D199E0E0695549884227D175
:1058900094E0C046555010B0B0180020445010B0ED
:1058A0006068854200D389E001F082FE002800D0C4
:1058B00084E0A068E1683825684322681018002950
:1058C00002D08847002807D0012803D1A0684543AB
:1058D0002068401900F0CEFCA068451CA560206837
:1058E0000028DDD16AE0A088049020680390EE795A
:1058F000AB796F792A79ED78E16868460560416097
:1059000012023A431B0233430398049900F0E4FB6C
:10591000206800284CD0A0686168884248D201F015
:1059200047FE002844D1A068E16838256843226812
:105930001018002902D08847002807D0012803D179
:10594000A06845432068401900F094FCA068401C02
:10595000A06021680029DFD12AE02069002803D057
:10596000E978490800F002FD2068002820D0A068EE
:10597000616888421CD201F01BFE002818D1A06883
:10598000E1683825684322681018002902D088474A
:10599000002807D0012803D1A0684543206840199A
:1059A00000F068FCA068401CA06021680029DFD1DD
:1059B0006068A168814201D301F0FAFD01F0F8FDB1
:1059C000002801D100F0AAF9012005B0F0BDC046C1
:1059D000555010B0B0180020B01C0020AC180020AA
:1059E000445010B010B58CB001AC204603F05AFE04
:1059F00020850D49084206D101A800F01AF80020C0
:105A0000C04301F065FD00F081F901A9884203D18E
:105A100000F07EF900F00DF801A8008D002801D1FA
:105A20000CB010BD00F06DF9FFFF000000208146B2
:105A30007047814670470000F0B581B000920F4674
:105A40000546484B9F420FD0464C402620463146E3
:105A500003F092FD00984028024600D332462046CB
:105A6000394600F09AF83F4B987801280BDC002863
:105A70002BD0012869D1D81C04211C4601F014FC4C
:105A8000402120462CE0022828D005285DD1187935
:105A9000D97809020143344A1068002481425AD15E
:105AA000324E00988019071F106800281BD014463A
:105AB000394631402E480268914200D907683A467B
:105AC00032402C480068591D31E000249C715C7103
:105AD0001C71DC7040211846A8473CE02148402159
